{
  "contractName": "Blockvitae",
  "abi": [
    {
      "constant": true,
      "inputs": [],
      "name": "allWhitelisted",
      "outputs": [
        {
          "name": "",
          "type": "bool"
        }
      ],
      "payable": false,
      "stateMutability": "view",
      "type": "function"
    },
    {
      "constant": true,
      "inputs": [],
      "name": "owner",
      "outputs": [
        {
          "name": "",
          "type": "address"
        }
      ],
      "payable": false,
      "stateMutability": "view",
      "type": "function"
    },
    {
      "constant": true,
      "inputs": [
        {
          "name": "",
          "type": "address"
        }
      ],
      "name": "whitelist",
      "outputs": [
        {
          "name": "",
          "type": "bool"
        }
      ],
      "payable": false,
      "stateMutability": "view",
      "type": "function"
    },
    {
      "inputs": [
        {
          "name": "_db",
          "type": "address"
        },
        {
          "name": "_dbInsert",
          "type": "address"
        },
        {
          "name": "_dbGetter",
          "type": "address"
        },
        {
          "name": "_dbDelete",
          "type": "address"
        }
      ],
      "payable": false,
      "stateMutability": "nonpayable",
      "type": "constructor"
    },
    {
      "constant": false,
      "inputs": [
        {
          "name": "_owner",
          "type": "address"
        },
        {
          "name": "_sender",
          "type": "address"
        }
      ],
      "name": "setOwner",
      "outputs": [],
      "payable": false,
      "stateMutability": "nonpayable",
      "type": "function"
    },
    {
      "constant": false,
      "inputs": [
        {
          "name": "_user",
          "type": "address"
        },
        {
          "name": "_sender",
          "type": "address"
        }
      ],
      "name": "addToWhiteList",
      "outputs": [],
      "payable": false,
      "stateMutability": "nonpayable",
      "type": "function"
    },
    {
      "constant": false,
      "inputs": [
        {
          "name": "_user",
          "type": "address"
        },
        {
          "name": "_sender",
          "type": "address"
        }
      ],
      "name": "removeFromWhiteList",
      "outputs": [],
      "payable": false,
      "stateMutability": "nonpayable",
      "type": "function"
    },
    {
      "constant": false,
      "inputs": [
        {
          "name": "_sender",
          "type": "address"
        }
      ],
      "name": "setAllWhitelist",
      "outputs": [],
      "payable": false,
      "stateMutability": "nonpayable",
      "type": "function"
    }
  ],
  "bytecode": "0x608060405234801561001057600080fd5b506040516080806105dd833981018060405261002f9190810190610128565b60018054600160a060020a03808616600160a060020a031992831617909255600280548584169083161790556003805484841690831617905560048054909116331781556006805460ff191690556040517f13af4035000000000000000000000000000000000000000000000000000000008152918616916313af4035916100b991309101610198565b600060405180830381600087803b1580156100d357600080fd5b505af11580156100e7573d6000803e3d6000fd5b505060008054600160a060020a031916600160a060020a039790971696909617909555506101c39350505050565b600061012182516101b8565b9392505050565b6000806000806080858703121561013e57600080fd5b600061014a8787610115565b945050602061015b87828801610115565b935050604061016c87828801610115565b925050606061017d87828801610115565b91505092959194509250565b610192816101ac565b82525050565b602081016101a68284610189565b92915050565b600160a060020a031690565b60006101a6826101ac565b61040b806101d26000396000f3006080604052600436106100825763ffffffff7c01000000000000000000000000000000000000000000000000000000006000350416631605750d8114610087578063299a7bcc146100a95780632b590e7a146100c9578063765b9d6b146100e95780638da5cb5b146101145780639b19251a14610136578063c6b0de7e14610156575b600080fd5b34801561009357600080fd5b506100a76100a236600461033f565b610176565b005b3480156100b557600080fd5b506100a76100c436600461033f565b6101d2565b3480156100d557600080fd5b506100a76100e4366004610319565b610239565b3480156100f557600080fd5b506100fe610273565b60405161010b91906103a5565b60405180910390f35b34801561012057600080fd5b5061012961027c565b60405161010b9190610391565b34801561014257600080fd5b506100fe610151366004610319565b610298565b34801561016257600080fd5b506100a761017136600461033f565b6102ad565b600454819073ffffffffffffffffffffffffffffffffffffffff80831691161461019f57600080fd5b505073ffffffffffffffffffffffffffffffffffffffff166000908152600560205260409020805460ff19166001179055565b600454819073ffffffffffffffffffffffffffffffffffffffff8083169116146101fb57600080fd5b50506004805473ffffffffffffffffffffffffffffffffffffffff191673ffffffffffffffffffffffffffffffffffffffff92909216919091179055565b600454819073ffffffffffffffffffffffffffffffffffffffff80831691161461026257600080fd5b50506006805460ff19166001179055565b60065460ff1681565b60045473ffffffffffffffffffffffffffffffffffffffff1681565b60056020526000908152604090205460ff1681565b600454819073ffffffffffffffffffffffffffffffffffffffff8083169116146102d657600080fd5b505073ffffffffffffffffffffffffffffffffffffffff166000908152600560205260409020805460ff19169055565b600061031282356103b3565b9392505050565b60006020828403121561032b57600080fd5b60006103378484610306565b949350505050565b6000806040838503121561035257600080fd5b600061035e8585610306565b925050602061036f85828601610306565b9150509250929050565b610382816103b3565b82525050565b610382816103cc565b6020810161039f8284610379565b92915050565b6020810161039f8284610388565b73ffffffffffffffffffffffffffffffffffffffff1690565b1515905600a265627a7a723058206cac8eaf03558500ce6759536213d09298b090a7ca73dd065412484a419cbc9f6c6578706572696d656e74616cf50037",
  "source": "/**\r\n * This contract acts as a controller for front-end\r\n * requests. The DB file is separate incase, solidity adds\r\n * functionality to return structs. In that case, only\r\n * this contract needs to be redeployed and data migration\r\n * will not be needed as the data is stored in DB.sol\r\n * contract.\r\n */\r\npragma solidity ^0.4.24;\r\npragma experimental ABIEncoderV2; // experimental\r\n\r\n// import user.sol contract\r\nimport \"./User.sol\";\r\nimport \"./DBGetter.sol\";\r\nimport \"./DBDelete.sol\";\r\nimport \"./DBInsert.sol\";\r\n\r\n// @title Blockvitae for CV\r\ncontract Blockvitae {\r\n\r\n    using User for User.UserMain;\r\n\r\n    DB internal db;\r\n\r\n    // DB Insert\r\n    DBInsert internal dbInsert;\r\n\r\n    // Getter DB\r\n    DBGetter internal dbGetter;\r\n\r\n    // Delete DB\r\n    DBDelete internal dbDelete;\r\n\r\n    // owner of the contract\r\n    address public owner;\r\n\r\n    // if user is whitelisted to create account\r\n    mapping(address => bool) public whitelist;\r\n\r\n    // if anyone is allowed to create account\r\n    bool public allWhitelisted;\r\n\r\n    // sets the owner of the contract\r\n    constructor(DB _db, DBInsert _dbInsert, DBGetter _dbGetter, DBDelete _dbDelete) public {\r\n        dbInsert = _dbInsert;\r\n        dbGetter = _dbGetter;\r\n        dbDelete = _dbDelete;\r\n        owner = msg.sender;\r\n        allWhitelisted = false;\r\n        _db.setOwner(address(this));\r\n        db = _db;\r\n    }\r\n\r\n    // checks if the user has an account or not\r\n    modifier userExists() {\r\n        require(db.isExists(msg.sender, address(this)));\r\n        _;\r\n    }\r\n\r\n    // checks if the address is not zero\r\n    modifier addressNotZero() {\r\n        require(msg.sender != address(0));\r\n        _;\r\n    }\r\n\r\n    // check for the owner\r\n    modifier isOwner(address _sender) {\r\n        require(owner == _sender);\r\n        _;\r\n    }\r\n\r\n    function setOwner(address _owner, address _sender) public isOwner(_sender) {\r\n        owner = _owner;\r\n    }\r\n\r\n    function addToWhiteList(address _user, address _sender) public isOwner(_sender) {\r\n        whitelist[_user] = true;\r\n    }\r\n\r\n    function removeFromWhiteList(address _user, address _sender) public isOwner(_sender) {\r\n        whitelist[_user] = false;\r\n    }\r\n\r\n    function setAllWhitelist(address _sender) public isOwner(_sender) {\r\n        allWhitelisted = true;\r\n    }\r\n \r\n}",
  "sourcePath": "E:\\GitHub\\Blockchain\\Blockvitae\\blockvitae-ethereum\\contracts\\Blockvitae.sol",
  "compiler": {
    "name": "solc",
    "version": "0.4.24+commit.e67f0147.Emscripten.clang"
  },
  "schemaVersion": "2.0.0",
  "updatedAt": "2018-08-03T15:13:24.916Z"
}