{
  "contractName": "Blockvitae",
  "abi": [
    {
      "constant": true,
      "inputs": [],
      "name": "owner",
      "outputs": [
        {
          "name": "",
          "type": "address"
        }
      ],
      "payable": false,
      "stateMutability": "view",
      "type": "function"
    },
    {
      "inputs": [
        {
          "name": "_dbContract",
          "type": "address"
        }
      ],
      "payable": false,
      "stateMutability": "nonpayable",
      "type": "constructor"
    },
    {
      "constant": false,
      "inputs": [
        {
          "name": "_owner",
          "type": "address"
        }
      ],
      "name": "setOwner",
      "outputs": [],
      "payable": false,
      "stateMutability": "nonpayable",
      "type": "function"
    },
    {
      "constant": false,
      "inputs": [
        {
          "name": "_fullName",
          "type": "string"
        },
        {
          "name": "_userName",
          "type": "string"
        },
        {
          "name": "_imgUrl",
          "type": "string"
        },
        {
          "name": "_email",
          "type": "string"
        }
      ],
      "name": "createUserDetail",
      "outputs": [],
      "payable": false,
      "stateMutability": "nonpayable",
      "type": "function"
    },
    {
      "constant": false,
      "inputs": [
        {
          "name": "_twitterUrl",
          "type": "string"
        },
        {
          "name": "_fbUrl",
          "type": "string"
        },
        {
          "name": "_githubUrl",
          "type": "string"
        },
        {
          "name": "_dribbbleUrl",
          "type": "string"
        },
        {
          "name": "_linkedInUrl",
          "type": "string"
        },
        {
          "name": "_behanceUrl",
          "type": "string"
        },
        {
          "name": "_mediumUrl",
          "type": "string"
        }
      ],
      "name": "createUserSocial",
      "outputs": [],
      "payable": false,
      "stateMutability": "nonpayable",
      "type": "function"
    },
    {
      "constant": false,
      "inputs": [
        {
          "name": "_name",
          "type": "string"
        },
        {
          "name": "_description",
          "type": "string"
        },
        {
          "name": "_url",
          "type": "string"
        }
      ],
      "name": "createUserProject",
      "outputs": [],
      "payable": false,
      "stateMutability": "nonpayable",
      "type": "function"
    },
    {
      "constant": false,
      "inputs": [
        {
          "name": "_company",
          "type": "string"
        },
        {
          "name": "_position",
          "type": "string"
        },
        {
          "name": "_dateStart",
          "type": "string"
        },
        {
          "name": "_dateEnd",
          "type": "string"
        },
        {
          "name": "_description",
          "type": "string"
        }
      ],
      "name": "createUserWorkExp",
      "outputs": [],
      "payable": false,
      "stateMutability": "nonpayable",
      "type": "function"
    },
    {
      "constant": false,
      "inputs": [
        {
          "name": "_skills",
          "type": "bytes32[]"
        }
      ],
      "name": "createUserSkill",
      "outputs": [],
      "payable": false,
      "stateMutability": "nonpayable",
      "type": "function"
    },
    {
      "constant": false,
      "inputs": [
        {
          "name": "_organization",
          "type": "string"
        },
        {
          "name": "_level",
          "type": "string"
        },
        {
          "name": "_dateStart",
          "type": "string"
        },
        {
          "name": "_dateEnd",
          "type": "string"
        },
        {
          "name": "_description",
          "type": "string"
        }
      ],
      "name": "createUserEducation",
      "outputs": [],
      "payable": false,
      "stateMutability": "nonpayable",
      "type": "function"
    },
    {
      "constant": true,
      "inputs": [
        {
          "name": "_user",
          "type": "address"
        }
      ],
      "name": "getEducationCount",
      "outputs": [
        {
          "name": "",
          "type": "uint256"
        }
      ],
      "payable": false,
      "stateMutability": "view",
      "type": "function"
    },
    {
      "constant": true,
      "inputs": [
        {
          "name": "_user",
          "type": "address"
        },
        {
          "name": "index",
          "type": "uint256"
        }
      ],
      "name": "getUserEducation",
      "outputs": [
        {
          "name": "",
          "type": "string"
        },
        {
          "name": "",
          "type": "string"
        },
        {
          "name": "",
          "type": "string"
        },
        {
          "name": "",
          "type": "string"
        },
        {
          "name": "",
          "type": "string"
        }
      ],
      "payable": false,
      "stateMutability": "view",
      "type": "function"
    },
    {
      "constant": true,
      "inputs": [
        {
          "name": "_user",
          "type": "address"
        }
      ],
      "name": "getUserSkills",
      "outputs": [
        {
          "name": "",
          "type": "bytes32[]"
        }
      ],
      "payable": false,
      "stateMutability": "view",
      "type": "function"
    },
    {
      "constant": true,
      "inputs": [
        {
          "name": "_user",
          "type": "address"
        }
      ],
      "name": "getProjectCount",
      "outputs": [
        {
          "name": "",
          "type": "uint256"
        }
      ],
      "payable": false,
      "stateMutability": "view",
      "type": "function"
    },
    {
      "constant": true,
      "inputs": [
        {
          "name": "_user",
          "type": "address"
        },
        {
          "name": "index",
          "type": "uint256"
        }
      ],
      "name": "getUserProject",
      "outputs": [
        {
          "name": "",
          "type": "string"
        },
        {
          "name": "",
          "type": "string"
        },
        {
          "name": "",
          "type": "string"
        }
      ],
      "payable": false,
      "stateMutability": "view",
      "type": "function"
    },
    {
      "constant": true,
      "inputs": [
        {
          "name": "_user",
          "type": "address"
        }
      ],
      "name": "getWorkExpCount",
      "outputs": [
        {
          "name": "",
          "type": "uint256"
        }
      ],
      "payable": false,
      "stateMutability": "view",
      "type": "function"
    },
    {
      "constant": true,
      "inputs": [
        {
          "name": "_user",
          "type": "address"
        },
        {
          "name": "index",
          "type": "uint256"
        }
      ],
      "name": "getUserWorkExp",
      "outputs": [
        {
          "name": "",
          "type": "string"
        },
        {
          "name": "",
          "type": "string"
        },
        {
          "name": "",
          "type": "string"
        },
        {
          "name": "",
          "type": "string"
        },
        {
          "name": "",
          "type": "string"
        }
      ],
      "payable": false,
      "stateMutability": "view",
      "type": "function"
    },
    {
      "constant": true,
      "inputs": [
        {
          "name": "_user",
          "type": "address"
        }
      ],
      "name": "getUserDetail",
      "outputs": [
        {
          "name": "",
          "type": "string"
        },
        {
          "name": "",
          "type": "string"
        },
        {
          "name": "",
          "type": "string"
        },
        {
          "name": "",
          "type": "string"
        }
      ],
      "payable": false,
      "stateMutability": "view",
      "type": "function"
    },
    {
      "constant": true,
      "inputs": [
        {
          "name": "_user",
          "type": "address"
        }
      ],
      "name": "getUserSocial",
      "outputs": [
        {
          "name": "",
          "type": "string"
        },
        {
          "name": "",
          "type": "string"
        },
        {
          "name": "",
          "type": "string"
        },
        {
          "name": "",
          "type": "string"
        },
        {
          "name": "",
          "type": "string"
        },
        {
          "name": "",
          "type": "string"
        },
        {
          "name": "",
          "type": "string"
        }
      ],
      "payable": false,
      "stateMutability": "view",
      "type": "function"
    },
    {
      "constant": true,
      "inputs": [
        {
          "name": "_userName",
          "type": "string"
        }
      ],
      "name": "getAddrForUserName",
      "outputs": [
        {
          "name": "",
          "type": "address"
        }
      ],
      "payable": false,
      "stateMutability": "view",
      "type": "function"
    },
    {
      "constant": true,
      "inputs": [
        {
          "name": "_userName",
          "type": "string"
        }
      ],
      "name": "isUsernameAvailable",
      "outputs": [
        {
          "name": "",
          "type": "bool"
        }
      ],
      "payable": false,
      "stateMutability": "view",
      "type": "function"
    }
  ],
  "bytecode": "0x60806040523480156200001157600080fd5b5060405160208062002bc18339810180604052620000339190810190620000ee565b60008054600160a060020a03808416600160a060020a031992831617928390556001805490921633179091556040517f13af40350000000000000000000000000000000000000000000000000000000081529116906313af4035906200009e90309060040162000128565b600060405180830381600087803b158015620000b957600080fd5b505af1158015620000ce573d6000803e3d6000fd5b505050505062000157565b6000620000e782516200014a565b9392505050565b6000602082840312156200010157600080fd5b60006200010f8484620000d9565b949350505050565b62000122816200013e565b82525050565b6020810162000138828462000117565b92915050565b600160a060020a031690565b600062000138826200013e565b612a5a80620001676000396000f3006080604052600436106101065763ffffffff7c01000000000000000000000000000000000000000000000000000000006000350416630168fe81811461010b578063038b1f921461014157806306602d82146101725780630e586670146101a557806313af4035146101d45780631a0a4d4c146101f65780632251f8b1146102165780633e94f93d1461023657806342ce594a146102565780634a48c84b146102765780636962f9f1146102a6578063770685ac146102c65780638c28105e146102f35780638da5cb5b14610313578063968f419d14610328578063b6d9226b14610348578063d2886ebc14610368578063f4b1729114610395578063f69c6dec146103b5575b600080fd5b34801561011757600080fd5b5061012b610126366004611e42565b6103e2565b604051610138919061293e565b60405180910390f35b34801561014d57600080fd5b5061016161015c366004611e86565b610489565b6040516101389594939291906127d8565b34801561017e57600080fd5b5061019261018d366004611e42565b6105f7565b6040516101389796959493929190612844565b3480156101b157600080fd5b506101c56101c0366004611e86565b6106e1565b60405161013893929190612748565b3480156101e057600080fd5b506101f46101ef366004611e42565b6107f7565b005b34801561020257600080fd5b5061012b610211366004611e42565b61083d565b34801561022257600080fd5b506101f461023136600461213b565b6108dd565b34801561024257600080fd5b506101f461025136600461207b565b610a2a565b34801561026257600080fd5b506101f4610271366004611ec0565b610acf565b34801561028257600080fd5b50610296610291366004611e42565b610c14565b6040516101389493929190612781565b3480156102b257600080fd5b506101f46102c1366004612227565b610ce3565b3480156102d257600080fd5b506102e66102e1366004611fb2565b610e34565b604051610138919061270a565b3480156102ff57600080fd5b506101f461030e36600461213b565b610ed6565b34801561031f57600080fd5b506102e6610fe9565b34801561033457600080fd5b506101f4610343366004611fe7565b610ff8565b34801561035457600080fd5b50610161610363366004611e86565b611141565b34801561037457600080fd5b50610388610383366004611e42565b611204565b6040516101389190612718565b3480156103a157600080fd5b5061012b6103b0366004611e42565b6112a4565b3480156103c157600080fd5b506103d56103d0366004611fb2565b611344565b6040516101389190612729565b600080546040517f586a1f47000000000000000000000000000000000000000000000000000000008152600160a060020a039091169063586a1f479061042c90859060040161270a565b600060405180830381600087803b15801561044657600080fd5b505af115801561045a573d6000803e3d6000fd5b505050506040513d6000823e601f3d908101601f191682016040526104829190810190611f5f565b5192915050565b60608060608060608060608060608060606000809054906101000a9004600160a060020a0316600160a060020a031663099c34d98e6040518263ffffffff167c01000000000000000000000000000000000000000000000000000000000281526004016104f6919061270a565b600060405180830381600087803b15801561051057600080fd5b505af1158015610524573d6000803e3d6000fd5b505050506040513d6000823e601f3d908101601f1916820160405261054c9190810190611ef5565b9550858c81518110151561055c57fe5b90602001906020020151600001519450858c81518110151561057a57fe5b90602001906020020151602001519350858c81518110151561059857fe5b90602001906020020151604001519250858c8151811015156105b657fe5b90602001906020020151606001519150858c8151811015156105d457fe5b6020908102909101015160800151949d939c50919a509850919650945050505050565b606080606080606080606061060a61168e565b6000546040517fe9411881000000000000000000000000000000000000000000000000000000008152600160a060020a039091169063e941188190610653908c9060040161270a565b600060405180830381600087803b15801561066d57600080fd5b505af1158015610681573d6000803e3d6000fd5b505050506040513d6000823e601f3d908101601f191682016040526106a991908101906123d4565b8051602082015160408301516060840151608085015160a086015160c090960151949f939e50919c509a509850919650945092505050565b6000546040517f93a8022c000000000000000000000000000000000000000000000000000000008152606091829182918291829182918291600160a060020a0316906393a8022c90610737908c9060040161270a565b600060405180830381600087803b15801561075157600080fd5b505af1158015610765573d6000803e3d6000fd5b505050506040513d6000823e601f3d908101601f1916820160405261078d9190810190611f2a565b9350838881518110151561079d57fe5b9060200190602002015160000151925083888151811015156107bb57fe5b9060200190602002015160200151915083888151811015156107d957fe5b60209081029091010151604001519299919850919650945050505050565b600154600160a060020a0316331461080e57600080fd5b6001805473ffffffffffffffffffffffffffffffffffffffff1916600160a060020a0392909216919091179055565b600080546040517f93a8022c000000000000000000000000000000000000000000000000000000008152600160a060020a03909116906393a8022c9061088790859060040161270a565b600060405180830381600087803b1580156108a157600080fd5b505af11580156108b5573d6000803e3d6000fd5b505050506040513d6000823e601f3d908101601f191682016040526104829190810190611f2a565b6108e56116cc565b3315156108f157600080fd5b6000546040517fe0d4f1c3000000000000000000000000000000000000000000000000000000008152600160a060020a039091169063e0d4f1c39061093a90339060040161270a565b602060405180830381600087803b15801561095457600080fd5b505af1158015610968573d6000803e3d6000fd5b505050506040513d601f19601f8201168201806040525061098c9190810190611f94565b151561099757600080fd5b6109a486868686866113e0565b6000546040517f21d6eb07000000000000000000000000000000000000000000000000000000008152919250600160a060020a0316906321d6eb07906109f090849033906004016128fa565b600060405180830381600087803b158015610a0a57600080fd5b505af1158015610a1e573d6000803e3d6000fd5b50505050505050505050565b610a326116fc565b331515610a3e57600080fd5b610a4a858585856114b4565b6000546040517f8822269e000000000000000000000000000000000000000000000000000000008152919250600160a060020a031690638822269e90610a9690849033906004016128da565b600060405180830381600087803b158015610ab057600080fd5b505af1158015610ac4573d6000803e3d6000fd5b505050505050505050565b610ad7611725565b331515610ae357600080fd5b6000546040517fe0d4f1c3000000000000000000000000000000000000000000000000000000008152600160a060020a039091169063e0d4f1c390610b2c90339060040161270a565b602060405180830381600087803b158015610b4657600080fd5b505af1158015610b5a573d6000803e3d6000fd5b505050506040513d601f19601f82011682018060405250610b7e9190810190611f94565b1515610b8957600080fd5b610b92826114dd565b6000546040517f1a57db1f000000000000000000000000000000000000000000000000000000008152919250600160a060020a031690631a57db1f90610bde908490339060040161291c565b600060405180830381600087803b158015610bf857600080fd5b505af1158015610c0c573d6000803e3d6000fd5b505050505050565b606080606080610c226116fc565b6000546040517f11934703000000000000000000000000000000000000000000000000000000008152600160a060020a0390911690631193470390610c6b90899060040161270a565b600060405180830381600087803b158015610c8557600080fd5b505af1158015610c99573d6000803e3d6000fd5b505050506040513d6000823e601f3d908101601f19168201604052610cc1919081019061236a565b8051602082015160408301516060909301519199909850919650945092505050565b610ceb61168e565b331515610cf757600080fd5b6000546040517fe0d4f1c3000000000000000000000000000000000000000000000000000000008152600160a060020a039091169063e0d4f1c390610d4090339060040161270a565b602060405180830381600087803b158015610d5a57600080fd5b505af1158015610d6e573d6000803e3d6000fd5b505050506040513d601f19601f82011682018060405250610d929190810190611f94565b1515610d9d57600080fd5b610dac888888888888886114f4565b6000546040517f37799bbd000000000000000000000000000000000000000000000000000000008152919250600160a060020a0316906337799bbd90610df8908490339060040161292d565b600060405180830381600087803b158015610e1257600080fd5b505af1158015610e26573d6000803e3d6000fd5b505050505050505050505050565b600080546040517fd9148419000000000000000000000000000000000000000000000000000000008152600160a060020a039091169063d914841990610e7e908590600401612737565b602060405180830381600087803b158015610e9857600080fd5b505af1158015610eac573d6000803e3d6000fd5b505050506040513d601f19601f82011682018060405250610ed09190810190611e68565b92915050565b610ede6116cc565b331515610eea57600080fd5b6000546040517fe0d4f1c3000000000000000000000000000000000000000000000000000000008152600160a060020a039091169063e0d4f1c390610f3390339060040161270a565b602060405180830381600087803b158015610f4d57600080fd5b505af1158015610f61573d6000803e3d6000fd5b505050506040513d601f19601f82011682018060405250610f859190810190611f94565b1515610f9057600080fd5b610f9d86868686866113e0565b6000546040517f9fec7fcb000000000000000000000000000000000000000000000000000000008152919250600160a060020a031690639fec7fcb906109f090849033906004016128fa565b600154600160a060020a031681565b611000611737565b33151561100c57600080fd5b6000546040517fe0d4f1c3000000000000000000000000000000000000000000000000000000008152600160a060020a039091169063e0d4f1c39061105590339060040161270a565b602060405180830381600087803b15801561106f57600080fd5b505af1158015611083573d6000803e3d6000fd5b505050506040513d601f19601f820116820180604052506110a79190810190611f94565b15156110b257600080fd5b6110bd848484611602565b6000546040517fc7f05246000000000000000000000000000000000000000000000000000000008152919250600160a060020a03169063c7f0524690611109908490339060040161290b565b600060405180830381600087803b15801561112357600080fd5b505af1158015611137573d6000803e3d6000fd5b5050505050505050565b60608060608060608060608060608060606000809054906101000a9004600160a060020a0316600160a060020a031663586a1f478e6040518263ffffffff167c01000000000000000000000000000000000000000000000000000000000281526004016111ae919061270a565b600060405180830381600087803b1580156111c857600080fd5b505af11580156111dc573d6000803e3d6000fd5b505050506040513d6000823e601f3d908101601f1916820160405261054c9190810190611f5f565b6000546040517f066b2a1e000000000000000000000000000000000000000000000000000000008152606091600160a060020a03169063066b2a1e9061124e90859060040161270a565b600060405180830381600087803b15801561126857600080fd5b505af115801561127c573d6000803e3d6000fd5b505050506040513d6000823e601f3d908101601f19168201604052610482919081019061239f565b600080546040517f099c34d9000000000000000000000000000000000000000000000000000000008152600160a060020a039091169063099c34d9906112ee90859060040161270a565b600060405180830381600087803b15801561130857600080fd5b505af115801561131c573d6000803e3d6000fd5b505050506040513d6000823e601f3d908101601f191682016040526104829190810190611ef5565b600080546040517ff309e3f9000000000000000000000000000000000000000000000000000000008152600160a060020a039091169063f309e3f99061138e908590600401612737565b602060405180830381600087803b1580156113a857600080fd5b505af11580156113bc573d6000803e3d6000fd5b505050506040513d601f19601f82011682018060405250610ed09190810190611f94565b6113e86116cc565b6113f06116cc565b86516000106113fe57600080fd5b8651151561141a5760408051602081019091526000815261141c565b865b81528551151561143a5760408051602081019091526000815261143c565b855b60208201528451151561145d5760408051602081019091526000815261145f565b845b60408201528351151561148057604080516020810190915260008152611482565b835b6060820152825115156114a3576040805160208101909152600081526114a5565b825b60808201529695505050505050565b6114bc6116fc565b6114c46116fc565b9485525060208401929092526040830152606082015290565b6114e5611725565b6114ed611725565b9182525090565b6114fc61168e565b61150461168e565b8851151561152057604080516020810190915260008152611522565b885b81528751151561154057604080516020810190915260008152611542565b875b60208201528651151561156357604080516020810190915260008152611565565b865b60408201528551151561158657604080516020810190915260008152611588565b855b6060820152845115156115a9576040805160208101909152600081526115ab565b845b6080820152835115156115cc576040805160208101909152600081526115ce565b835b60a0820152825115156115ef576040805160208101909152600081526115f1565b825b60c082015298975050505050505050565b61160a611737565b611612611737565b845160001061162057600080fd5b8351151561163c5760408051602081019091526000815261163e565b835b60208201528451151561165f57604080516020810190915260008152611661565b845b81528251151561167f57604080516020810190915260008152611681565b825b6040820152949350505050565b60e060405190810160405280606081526020016060815260200160608152602001606081526020016060815260200160608152602001606081525090565b60a06040519081016040528060608152602001606081526020016060815260200160608152602001606081525090565b608060405190810160405280606081526020016060815260200160608152602001606081525090565b60408051602081019091526060815290565b6060604051908101604052806060815260200160608152602001606081525090565b600061176582356129c6565b9392505050565b600061176582516129c6565b6000601f8201831361178957600080fd5b815161179c61179782612973565b61294c565b915081818352602084019350602081019050838560208402820111156117c157600080fd5b60005b838110156117ed57816117d78882611996565b84525060209283019291909101906001016117c4565b5050505092915050565b6000601f8201831361180857600080fd5b813561181661179782612973565b9150818183526020840193506020810190508385602084028201111561183b57600080fd5b60005b838110156117ed5781611851888261198a565b845250602092830192919091019060010161183e565b6000601f8201831361187857600080fd5b815161188661179782612973565b81815260209384019390925082018360005b838110156117ed57815186016118ae8882611b06565b8452506020928301929190910190600101611898565b6000601f820183136118d557600080fd5b81516118e361179782612973565b81815260209384019390925082018360005b838110156117ed578151860161190b8882611c01565b84525060209283019291909101906001016118f5565b6000601f8201831361193257600080fd5b815161194061179782612973565b81815260209384019390925082018360005b838110156117ed57815186016119688882611b06565b8452506020928301929190910190600101611952565b600061176582516129d2565b600061176582356129d7565b600061176582516129d7565b6000601f820183136119b357600080fd5b81516119c161179782612994565b915080825260208301602083018583830111156119dd57600080fd5b6119e88382846129e6565b50505092915050565b6000601f82018313611a0257600080fd5b8135611a1061179782612994565b91508082526020830160208301858383011115611a2c57600080fd5b6119e88382846129da565b600060808284031215611a4957600080fd5b611a53608061294c565b825190915067ffffffffffffffff811115611a6d57600080fd5b611a79848285016119a2565b825250602082015167ffffffffffffffff811115611a9657600080fd5b611aa2848285016119a2565b602083015250604082015167ffffffffffffffff811115611ac257600080fd5b611ace848285016119a2565b604083015250606082015167ffffffffffffffff811115611aee57600080fd5b611afa848285016119a2565b60608301525092915050565b600060a08284031215611b1857600080fd5b611b2260a061294c565b825190915067ffffffffffffffff811115611b3c57600080fd5b611b48848285016119a2565b825250602082015167ffffffffffffffff811115611b6557600080fd5b611b71848285016119a2565b602083015250604082015167ffffffffffffffff811115611b9157600080fd5b611b9d848285016119a2565b604083015250606082015167ffffffffffffffff811115611bbd57600080fd5b611bc9848285016119a2565b606083015250608082015167ffffffffffffffff811115611be957600080fd5b611bf5848285016119a2565b60808301525092915050565b600060608284031215611c1357600080fd5b611c1d606061294c565b825190915067ffffffffffffffff811115611c3757600080fd5b611c43848285016119a2565b825250602082015167ffffffffffffffff811115611c6057600080fd5b611c6c848285016119a2565b602083015250604082015167ffffffffffffffff811115611c8c57600080fd5b611c98848285016119a2565b60408301525092915050565b600060208284031215611cb657600080fd5b611cc0602061294c565b825190915067ffffffffffffffff811115611cda57600080fd5b611ce684828501611778565b82525092915050565b600060e08284031215611d0157600080fd5b611d0b60e061294c565b825190915067ffffffffffffffff811115611d2557600080fd5b611d31848285016119a2565b825250602082015167ffffffffffffffff811115611d4e57600080fd5b611d5a848285016119a2565b602083015250604082015167ffffffffffffffff811115611d7a57600080fd5b611d86848285016119a2565b604083015250606082015167ffffffffffffffff811115611da657600080fd5b611db2848285016119a2565b606083015250608082015167ffffffffffffffff811115611dd257600080fd5b611dde848285016119a2565b60808301525060a082015167ffffffffffffffff811115611dfe57600080fd5b611e0a848285016119a2565b60a08301525060c082015167ffffffffffffffff811115611e2a57600080fd5b611e36848285016119a2565b60c08301525092915050565b600060208284031215611e5457600080fd5b6000611e608484611759565b949350505050565b600060208284031215611e7a57600080fd5b6000611e60848461176c565b60008060408385031215611e9957600080fd5b6000611ea58585611759565b9250506020611eb68582860161198a565b9150509250929050565b600060208284031215611ed257600080fd5b813567ffffffffffffffff811115611ee957600080fd5b611e60848285016117f7565b600060208284031215611f0757600080fd5b815167ffffffffffffffff811115611f1e57600080fd5b611e6084828501611867565b600060208284031215611f3c57600080fd5b815167ffffffffffffffff811115611f5357600080fd5b611e60848285016118c4565b600060208284031215611f7157600080fd5b815167ffffffffffffffff811115611f8857600080fd5b611e6084828501611921565b600060208284031215611fa657600080fd5b6000611e60848461197e565b600060208284031215611fc457600080fd5b813567ffffffffffffffff811115611fdb57600080fd5b611e60848285016119f1565b600080600060608486031215611ffc57600080fd5b833567ffffffffffffffff81111561201357600080fd5b61201f868287016119f1565b935050602084013567ffffffffffffffff81111561203c57600080fd5b612048868287016119f1565b925050604084013567ffffffffffffffff81111561206557600080fd5b612071868287016119f1565b9150509250925092565b6000806000806080858703121561209157600080fd5b843567ffffffffffffffff8111156120a857600080fd5b6120b4878288016119f1565b945050602085013567ffffffffffffffff8111156120d157600080fd5b6120dd878288016119f1565b935050604085013567ffffffffffffffff8111156120fa57600080fd5b612106878288016119f1565b925050606085013567ffffffffffffffff81111561212357600080fd5b61212f878288016119f1565b91505092959194509250565b600080600080600060a0868803121561215357600080fd5b853567ffffffffffffffff81111561216a57600080fd5b612176888289016119f1565b955050602086013567ffffffffffffffff81111561219357600080fd5b61219f888289016119f1565b945050604086013567ffffffffffffffff8111156121bc57600080fd5b6121c8888289016119f1565b935050606086013567ffffffffffffffff8111156121e557600080fd5b6121f1888289016119f1565b925050608086013567ffffffffffffffff81111561220e57600080fd5b61221a888289016119f1565b9150509295509295909350565b600080600080600080600060e0888a03121561224257600080fd5b873567ffffffffffffffff81111561225957600080fd5b6122658a828b016119f1565b975050602088013567ffffffffffffffff81111561228257600080fd5b61228e8a828b016119f1565b965050604088013567ffffffffffffffff8111156122ab57600080fd5b6122b78a828b016119f1565b955050606088013567ffffffffffffffff8111156122d457600080fd5b6122e08a828b016119f1565b945050608088013567ffffffffffffffff8111156122fd57600080fd5b6123098a828b016119f1565b93505060a088013567ffffffffffffffff81111561232657600080fd5b6123328a828b016119f1565b92505060c088013567ffffffffffffffff81111561234f57600080fd5b61235b8a828b016119f1565b91505092959891949750929550565b60006020828403121561237c57600080fd5b815167ffffffffffffffff81111561239357600080fd5b611e6084828501611a37565b6000602082840312156123b157600080fd5b815167ffffffffffffffff8111156123c857600080fd5b611e6084828501611ca4565b6000602082840312156123e657600080fd5b815167ffffffffffffffff8111156123fd57600080fd5b611e6084828501611cef565b612412816129c6565b82525050565b6000612423826129c2565b808452602084019350612435836129bc565b60005b828110156124655761244b8683516124c5565b612454826129bc565b602096909601959150600101612438565b5093949350505050565b600061247a826129c2565b80845260208401935061248c836129bc565b60005b82811015612465576124a28683516124c5565b6124ab826129bc565b60209690960195915060010161248f565b612412816129d2565b612412816129d7565b60006124d9826129c2565b8084526124ed8160208601602086016129e6565b6124f681612a16565b9093016020019392505050565b805160808084526000919084019061251b82826124ce565b9150506020830151848203602086015261253582826124ce565b9150506040830151848203604086015261254f82826124ce565b9150506060830151848203606086015261256982826124ce565b95945050505050565b805160a08084526000919084019061258a82826124ce565b915050602083015184820360208601526125a482826124ce565b915050604083015184820360408601526125be82826124ce565b915050606083015184820360608601526125d882826124ce565b9150506080830151848203608086015261256982826124ce565b805160608084526000919084019061260a82826124ce565b9150506020830151848203602086015261262482826124ce565b9150506040830151848203604086015261256982826124ce565b8051602080845260009190840190612569828261246f565b805160e08084526000919084019061266e82826124ce565b9150506020830151848203602086015261268882826124ce565b915050604083015184820360408601526126a282826124ce565b915050606083015184820360608601526126bc82826124ce565b915050608083015184820360808601526126d682826124ce565b91505060a083015184820360a08601526126f082826124ce565b91505060c083015184820360c086015261256982826124ce565b60208101610ed08284612409565b602080825281016117658184612418565b60208101610ed082846124bc565b6020808252810161176581846124ce565b6060808252810161275981866124ce565b9050818103602083015261276d81856124ce565b9050818103604083015261256981846124ce565b6080808252810161279281876124ce565b905081810360208301526127a681866124ce565b905081810360408301526127ba81856124ce565b905081810360608301526127ce81846124ce565b9695505050505050565b60a080825281016127e981886124ce565b905081810360208301526127fd81876124ce565b9050818103604083015261281181866124ce565b9050818103606083015261282581856124ce565b9050818103608083015261283981846124ce565b979650505050505050565b60e08082528101612855818a6124ce565b9050818103602083015261286981896124ce565b9050818103604083015261287d81886124ce565b9050818103606083015261289181876124ce565b905081810360808301526128a581866124ce565b905081810360a08301526128b981856124ce565b905081810360c08301526128cd81846124ce565b9998505050505050505050565b604080825281016128eb8185612503565b90506117656020830184612409565b604080825281016128eb8185612572565b604080825281016128eb81856125f2565b604080825281016128eb818561263e565b604080825281016128eb8185612656565b60208101610ed082846124c5565b60405181810167ffffffffffffffff8111828210171561296b57600080fd5b604052919050565b600067ffffffffffffffff82111561298a57600080fd5b5060209081020190565b600067ffffffffffffffff8211156129ab57600080fd5b506020601f91909101601f19160190565b60200190565b5190565b600160a060020a031690565b151590565b90565b82818337506000910152565b60005b83811015612a015781810151838201526020016129e9565b83811115612a10576000848401525b50505050565b601f01601f1916905600a265627a7a72305820a877d3e7bf9a93799543d0fd99191892b7d6d191c3a394d8812e94f9ce58a42c6c6578706572696d656e74616cf50037",
  "source": "/**\r\n * This contract acts as a controller for front-end\r\n * requests. The DB file is separate incase, solidity adds\r\n * functionality to return structs. In that case, only\r\n * this contract needs to be redeployed and data migration\r\n * will not be needed as the data is stored in DB.sol\r\n * contract.\r\n */\r\npragma solidity ^0.4.24;\r\npragma experimental ABIEncoderV2; // experimental\r\n\r\n// import user.sol contract\r\nimport \"./User.sol\";\r\nimport \"./DB.sol\";\r\n\r\n// @title Blockvitae for CV\r\ncontract Blockvitae {\r\n\r\n    using User for User.UserMain;\r\n\r\n    // DB\r\n    DB private dbContract;\r\n\r\n    // owner of the contract\r\n    address public owner;\r\n\r\n    // checks if the user has an account or not\r\n    modifier userExists() {\r\n        require (dbContract.isExists(msg.sender));\r\n        _;\r\n    }\r\n\r\n    // checks if the address is not zero\r\n    modifier addressNotZero() {\r\n        require (msg.sender != address(0));\r\n        _;\r\n    }\r\n\r\n    // check for the owner\r\n    modifier isOwner() {\r\n        require(owner == msg.sender);\r\n        _;\r\n    }\r\n\r\n    // sets the owner of the contract\r\n    constructor(DB _dbContract) public {\r\n        dbContract = _dbContract;\r\n        owner = msg.sender;\r\n\r\n        // set this contract as the owner of DB contract\r\n        // to avoid any external calls to DB contract\r\n        // All calls to DB contract should pass through this\r\n        // contract\r\n        dbContract.setOwner(address(this));\r\n    } \r\n\r\n    // @description\r\n    // Change Owner function incase Blockviate is redeployed\r\n    // old Blockviate should be able to update the owner to new \r\n    // Blockviate.\r\n    //\r\n    // @param address _owner\r\n    // address of the new owner \r\n    function setOwner(address _owner) public isOwner {\r\n        owner = _owner;\r\n    }\r\n\r\n    // @description\r\n    // creates UserDetail struct\r\n    //\r\n    // @param string _fullName \r\n    // full name of the user\r\n    //\r\n    // @param string _userName \r\n    // username of the user\r\n    //\r\n    // @param string _imgUrl \r\n    // profile image url of the user\r\n    //\r\n    // @param string _email \r\n    // email of the user\r\n    function createUserDetail(\r\n        string _fullName,\r\n        string _userName,\r\n        string _imgUrl,\r\n        string _email\r\n    )\r\n    public\r\n    addressNotZero\r\n    {\r\n        // create userDetail struct\r\n        User.UserDetail memory personal = User.setUserDetail(\r\n            _fullName,\r\n            _userName,\r\n            _imgUrl,\r\n            _email\r\n        );\r\n\r\n        // insert into the database\r\n        dbContract.insertUserDetail(personal, msg.sender);\r\n    }\r\n\r\n    // @description\r\n    // create UserSocial struct and insers in DB\r\n    //\r\n    // @param string _twitterUrl\r\n    // twitter url of the user\r\n    //\r\n    // @param string _fbUrl\r\n    // facebook url of the user\r\n    //\r\n    // @param string _githubUrl\r\n    // github url of the user\r\n    //\r\n    // @param string _linkedInUrl\r\n    // linked in url of the user\r\n    //\r\n    // @param string _behanceUrl\r\n    // behance url of the user\r\n    //\r\n    // @param string _mediumUrl\r\n    // medium url of the user\r\n    function createUserSocial(\r\n        string _twitterUrl,\r\n        string _fbUrl,\r\n        string _githubUrl,\r\n        string _dribbbleUrl,\r\n        string _linkedInUrl,\r\n        string _behanceUrl,\r\n        string _mediumUrl\r\n    )\r\n    public\r\n    addressNotZero\r\n    userExists\r\n    {\r\n        // create userSocial struct\r\n        User.UserSocial memory social = User.setUserSocial(\r\n            _twitterUrl,\r\n            _fbUrl,\r\n            _githubUrl,\r\n            _dribbbleUrl,\r\n            _linkedInUrl,\r\n            _behanceUrl,\r\n            _mediumUrl\r\n        );\r\n\r\n        // insert into the database\r\n        dbContract.insertUserSocial(social, msg.sender);\r\n    }\r\n\r\n    // @description\r\n    // creates UserProject struct and insert in DB\r\n    //\r\n    // @param string _name\r\n    // name of the project\r\n    //\r\n    // @param string _description \r\n    // description of the project\r\n    //\r\n    // @param string _url\r\n    // url of the project\r\n    function createUserProject(\r\n        string _name,\r\n        string _description,\r\n        string _url\r\n    )\r\n    public\r\n    addressNotZero\r\n    userExists\r\n    {\r\n        // create UserProject struct\r\n        User.UserProject memory project = User.setUserProject(\r\n            _name,\r\n            _description,\r\n            _url\r\n        );\r\n\r\n        // insert into the database\r\n        dbContract.insertUserProject(project, msg.sender);\r\n    }\r\n\r\n    // @description\r\n    // creates UserWorkExp struct and inserts in DB\r\n    //\r\n    // @param string _company\r\n    // name of the company or organization\r\n    //\r\n    // @param string _position\r\n    // position held in the given company\r\n    //\r\n    // @param string _dateStart\r\n    // start date of the job\r\n    //\r\n    // @param string _dateEnd\r\n    // end date of the job\r\n    //\r\n    // @param string _description\r\n    // description of the work experience\r\n    function createUserWorkExp(\r\n        string _company,\r\n        string _position,\r\n        string _dateStart,\r\n        string _dateEnd,\r\n        string _description\r\n    )\r\n    public\r\n    addressNotZero\r\n    userExists\r\n    {\r\n        // create UserWorkExp struct\r\n        User.UserWorkExp memory work = User.setUserWorkExp(\r\n            _company,\r\n            _position,\r\n            _dateStart,\r\n            _dateEnd,\r\n            _description\r\n        );\r\n\r\n        // insert in to database\r\n        dbContract.insertUserWorkExp(work, msg.sender);\r\n    }\r\n\r\n    // @description\r\n    // creates UserSkill struct and inserts in DB\r\n    //\r\n    // @param bytes32[] _skills\r\n    // array of skills\r\n    function createUserSkill(bytes32[] _skills) public addressNotZero userExists {\r\n        // create user skill struct\r\n        User.UserSkill memory skills = User.setUserSkill(_skills);\r\n\r\n        // insert into DB\r\n        dbContract.insertUserSkill(skills, msg.sender);\r\n    }\r\n\r\n    // @description\r\n    // creates UserEducation struct and inserts in DB\r\n    //\r\n     // @param string _organization\r\n    // name of the organization\r\n    //\r\n    // @param string _level\r\n    // education level held in the given organization\r\n    //\r\n    // @param string _dateStart\r\n    // start date of the education\r\n    //\r\n    // @param string _dateEnd\r\n    // end date of the education\r\n    //\r\n    // @param string _description\r\n    // description of the education\r\n    //\r\n    // @return UserEducation\r\n    // UserEducation struct for the given values\r\n    function createUserEducation(\r\n        string _organization,\r\n        string _level,\r\n        string _dateStart,\r\n        string _dateEnd,\r\n        string _description \r\n    )\r\n    public\r\n    addressNotZero\r\n    userExists\r\n    {\r\n        // create UserEducation struct\r\n        User.UserEducation memory education = User.setUserEducation(\r\n            _organization,\r\n            _level,\r\n            _dateStart,\r\n            _dateEnd,\r\n            _description\r\n        );\r\n\r\n        // insert in the database\r\n        dbContract.insertUserEducation(education, msg.sender);\r\n    }\r\n\r\n    // @description\r\n    // gets count of total education added\r\n    //\r\n    // @param address _user\r\n    // address of the user who's data is to be searched\r\n    //\r\n    // @return uint\r\n    // count of the total education for the given user\r\n    function getEducationCount(address _user)\r\n    public\r\n    view\r\n    returns(uint) {\r\n        return dbContract.findUserEducation(_user).length;\r\n    }\r\n\r\n    // @description\r\n    // gets the user education with the given index for the given user\r\n    //\r\n    // @param address _user\r\n    // address of the user who's education is to be searched\r\n    //\r\n    // @param uint index\r\n    // index of the education to be searched\r\n    //\r\n    // @return (string, string, string, string, string)\r\n    // organization, level, dateStart, dateEnd\r\n    // and description of the education with given index\r\n    function getUserEducation(address _user, uint index)\r\n    public\r\n    view\r\n    returns(string, string, string, string, string) {\r\n        User.UserEducation[] memory education = dbContract.findUserEducation(_user);\r\n\r\n        string memory organization = education[index].organization;\r\n        string memory level = education[index].level;\r\n        string memory dateStart = education[index].dateStart;\r\n        string memory dateEnd = education[index].dateEnd;\r\n        string memory description = education[index].description;\r\n    \r\n        return (organization, level, dateStart, dateEnd, description);\r\n    }\r\n\r\n\r\n    // @description\r\n    // gets the array of skills of the user\r\n    //\r\n    // @param address _user\r\n    // address of the user who's data is to be searched\r\n    //\r\n    // @return bytes32[]\r\n    // bytes32 array of skills of the user with given address\r\n    function getUserSkills(address _user) public view returns(bytes32[]) {\r\n        return dbContract.findUserSkill(_user).skills;\r\n    }\r\n\r\n    // @description\r\n    // Solidity doesn't allow to return array of strings\r\n    // Therefore, get count of projects first and\r\n    // then get each project one at a time from front end\r\n    //\r\n    // @param address _user\r\n    // address of the user who's data is to be searched\r\n    //\r\n    // @return uint\r\n    // count of the total projects for the given user\r\n    function getProjectCount(address _user) \r\n    public \r\n    view \r\n    returns(uint) {\r\n        return dbContract.findUserProject(_user).length;\r\n    }\r\n\r\n    // @description\r\n    // gets the user project with the given index for the given user\r\n    //\r\n    // @param address _user\r\n    // address of the user who's projects are to be searched\r\n    //\r\n    // @param uint index\r\n    // index of the project to be searched\r\n    //\r\n    // @return (string, string, string)\r\n    // name, description and url of the project with given index\r\n    function getUserProject(address _user, uint index)\r\n    public\r\n    view\r\n    returns(string, string, string) {\r\n        User.UserProject[] memory projects = dbContract.findUserProject(_user);\r\n\r\n        string memory name = projects[index].name;\r\n        string memory description = projects[index].description;\r\n        string memory url = projects[index].url;\r\n    \r\n        return (name, description, url);\r\n    }\r\n\r\n    // @description\r\n    // gets count of total work experiences added\r\n    //\r\n    // @param address _user\r\n    // address of the user who's data is to be searched\r\n    //\r\n    // @return uint\r\n    // count of the total work exp for the given user\r\n    function getWorkExpCount(address _user) \r\n    public \r\n    view \r\n    returns(uint) {\r\n        return dbContract.findUserWorkExp(_user).length;\r\n    }\r\n\r\n    // @description\r\n    // gets the user work exp with the given index for the given user\r\n    //\r\n    // @param address _user\r\n    // address of the user who's work exp are to be searched\r\n    //\r\n    // @param uint index\r\n    // index of the work exp to be searched\r\n    //\r\n    // @return (string, string, string, string, string)\r\n    // company, position, dateStart, dateEnd\r\n    // and description of the work exp with given index\r\n    function getUserWorkExp(address _user, uint index)\r\n    public\r\n    view\r\n    returns(string, string, string, string, string) {\r\n        User.UserWorkExp[] memory work = dbContract.findUserWorkExp(_user);\r\n\r\n        string memory company = work[index].company;\r\n        string memory position = work[index].position;\r\n        string memory dateStart = work[index].dateStart;\r\n        string memory dateEnd = work[index].dateEnd;\r\n        string memory description = work[index].description;\r\n    \r\n        return (company, position, dateStart, dateEnd, description);\r\n    }\r\n\r\n    // @description \r\n    // returns UserDetail struct values\r\n    // for the given address if user exists\r\n    //\r\n    // @param address _user \r\n    // address of the user for which UserDetail is \r\n    // to be searched\r\n    //\r\n    // @return (string, string, string, string)\r\n    // array of strings containing values of \r\n    // UserDetail struct in the respective order\r\n    function getUserDetail(address _user)  \r\n    public \r\n    view\r\n    returns(string, string, string, string) \r\n    {\r\n        // find the user details\r\n        User.UserDetail memory personal = dbContract.findUserDetail(_user);\r\n\r\n        // return\r\n        return (personal.fullName, personal.userName, personal.imgUrl, personal.email);\r\n    }\r\n\r\n    // @description \r\n    // returns UserSocial struct values\r\n    // for the given address if user exists\r\n    //\r\n    // @param address _user \r\n    // address of the user for which UserSocial is \r\n    // to be searched\r\n    //\r\n    // @return (string, string, string, string)\r\n    // array of strings containing values of \r\n    // UserSocial struct in the respective order\r\n    function getUserSocial(address _user)  \r\n    public \r\n    view\r\n    returns(string, string, string, string, string, string, string) \r\n    {\r\n        // find the user details\r\n        User.UserSocial memory social = dbContract.findUserSocial(_user);\r\n\r\n        // return\r\n        return (social.twitterUrl, social.fbUrl, social.githubUrl, social.dribbbleUrl, \r\n            social.linkedInUrl, social.behanceUrl, social.mediumUrl);\r\n    }\r\n\r\n    // @description\r\n    // finds the address the given userName\r\n    //\r\n    // @param string _userName\r\n    // userName of the user who's address is to be searched\r\n    //\r\n    // @return address\r\n    // address of the user with given userName\r\n    function getAddrForUserName(string _userName)\r\n    public\r\n    view\r\n    returns(address) \r\n    {\r\n        return dbContract.findAddrForUserName(_userName);\r\n    }\r\n\r\n    function isUsernameAvailable(string _userName)\r\n    public\r\n    view\r\n    returns(bool)\r\n    {\r\n        return dbContract.usernameExists(_userName);\r\n    }\r\n}",
  "sourcePath": "E:\\GitHub\\Blockchain\\Blockvitae\\blockvitae-ethereum\\contracts\\Blockvitae.sol",
  "compiler": {
    "name": "solc",
    "version": "0.4.24+commit.e67f0147.Emscripten.clang"
  },
  "schemaVersion": "2.0.0",
  "updatedAt": "2018-06-24T04:26:04.989Z"
}