{
  "contractName": "BlockvitaeInsert",
  "abi": [
    {
      "constant": false,
      "inputs": [
        {
          "name": "_user",
          "type": "address"
        },
        {
          "name": "_sender",
          "type": "address"
        }
      ],
      "name": "addToWhiteList",
      "outputs": [],
      "payable": false,
      "stateMutability": "nonpayable",
      "type": "function"
    },
    {
      "constant": false,
      "inputs": [
        {
          "name": "_owner",
          "type": "address"
        },
        {
          "name": "_sender",
          "type": "address"
        }
      ],
      "name": "setOwner",
      "outputs": [],
      "payable": false,
      "stateMutability": "nonpayable",
      "type": "function"
    },
    {
      "constant": false,
      "inputs": [
        {
          "name": "_sender",
          "type": "address"
        }
      ],
      "name": "setAllWhitelist",
      "outputs": [],
      "payable": false,
      "stateMutability": "nonpayable",
      "type": "function"
    },
    {
      "constant": true,
      "inputs": [],
      "name": "allWhitelisted",
      "outputs": [
        {
          "name": "",
          "type": "bool"
        }
      ],
      "payable": false,
      "stateMutability": "view",
      "type": "function"
    },
    {
      "constant": true,
      "inputs": [],
      "name": "owner",
      "outputs": [
        {
          "name": "",
          "type": "address"
        }
      ],
      "payable": false,
      "stateMutability": "view",
      "type": "function"
    },
    {
      "constant": true,
      "inputs": [
        {
          "name": "",
          "type": "address"
        }
      ],
      "name": "whitelist",
      "outputs": [
        {
          "name": "",
          "type": "bool"
        }
      ],
      "payable": false,
      "stateMutability": "view",
      "type": "function"
    },
    {
      "constant": false,
      "inputs": [
        {
          "name": "_user",
          "type": "address"
        },
        {
          "name": "_sender",
          "type": "address"
        }
      ],
      "name": "removeFromWhiteList",
      "outputs": [],
      "payable": false,
      "stateMutability": "nonpayable",
      "type": "function"
    },
    {
      "inputs": [
        {
          "name": "_db",
          "type": "address"
        },
        {
          "name": "_dbInsert",
          "type": "address"
        },
        {
          "name": "_dbGetter",
          "type": "address"
        },
        {
          "name": "_dbDelete",
          "type": "address"
        },
        {
          "name": "_blockvitae",
          "type": "address"
        }
      ],
      "payable": false,
      "stateMutability": "nonpayable",
      "type": "constructor"
    },
    {
      "constant": false,
      "inputs": [
        {
          "name": "_owner",
          "type": "address"
        }
      ],
      "name": "setOwnerBlockvitae",
      "outputs": [],
      "payable": false,
      "stateMutability": "nonpayable",
      "type": "function"
    },
    {
      "constant": false,
      "inputs": [
        {
          "name": "_user",
          "type": "address"
        }
      ],
      "name": "addToWhitelist",
      "outputs": [],
      "payable": false,
      "stateMutability": "nonpayable",
      "type": "function"
    },
    {
      "constant": false,
      "inputs": [
        {
          "name": "_user",
          "type": "address"
        }
      ],
      "name": "removeFromWhitelist",
      "outputs": [],
      "payable": false,
      "stateMutability": "nonpayable",
      "type": "function"
    },
    {
      "constant": false,
      "inputs": [],
      "name": "setAllWhitelisted",
      "outputs": [],
      "payable": false,
      "stateMutability": "nonpayable",
      "type": "function"
    },
    {
      "constant": false,
      "inputs": [
        {
          "name": "_fullName",
          "type": "string"
        },
        {
          "name": "_userName",
          "type": "bytes32"
        },
        {
          "name": "_imgUrl",
          "type": "string"
        },
        {
          "name": "_email",
          "type": "string"
        },
        {
          "name": "_location",
          "type": "string"
        },
        {
          "name": "_description",
          "type": "string"
        }
      ],
      "name": "createUserDetail",
      "outputs": [],
      "payable": false,
      "stateMutability": "nonpayable",
      "type": "function"
    },
    {
      "constant": false,
      "inputs": [
        {
          "name": "_fullName",
          "type": "string"
        },
        {
          "name": "_userName",
          "type": "bytes32"
        },
        {
          "name": "_imgUrl",
          "type": "string"
        },
        {
          "name": "_email",
          "type": "string"
        },
        {
          "name": "_location",
          "type": "string"
        },
        {
          "name": "_description",
          "type": "string"
        }
      ],
      "name": "updateUserDetail",
      "outputs": [],
      "payable": false,
      "stateMutability": "nonpayable",
      "type": "function"
    },
    {
      "constant": false,
      "inputs": [
        {
          "name": "_websiteUrl",
          "type": "string"
        },
        {
          "name": "_twitterUrl",
          "type": "string"
        },
        {
          "name": "_fbUrl",
          "type": "string"
        },
        {
          "name": "_githubUrl",
          "type": "string"
        },
        {
          "name": "_dribbbleUrl",
          "type": "string"
        },
        {
          "name": "_linkedInUrl",
          "type": "string"
        },
        {
          "name": "_behanceUrl",
          "type": "string"
        },
        {
          "name": "_mediumUrl",
          "type": "string"
        }
      ],
      "name": "createUserSocial",
      "outputs": [],
      "payable": false,
      "stateMutability": "nonpayable",
      "type": "function"
    },
    {
      "constant": false,
      "inputs": [
        {
          "name": "_name",
          "type": "string"
        },
        {
          "name": "_shortDescription",
          "type": "string"
        },
        {
          "name": "_description",
          "type": "string"
        },
        {
          "name": "_url",
          "type": "string"
        },
        {
          "name": "_isDeleted",
          "type": "bool"
        }
      ],
      "name": "createUserProject",
      "outputs": [],
      "payable": false,
      "stateMutability": "nonpayable",
      "type": "function"
    },
    {
      "constant": false,
      "inputs": [
        {
          "name": "_title",
          "type": "string"
        },
        {
          "name": "_url",
          "type": "string"
        },
        {
          "name": "_description",
          "type": "string"
        },
        {
          "name": "_isDeleted",
          "type": "bool"
        }
      ],
      "name": "createUserPublication",
      "outputs": [],
      "payable": false,
      "stateMutability": "nonpayable",
      "type": "function"
    },
    {
      "constant": false,
      "inputs": [
        {
          "name": "_company",
          "type": "string"
        },
        {
          "name": "_position",
          "type": "string"
        },
        {
          "name": "_dateStart",
          "type": "string"
        },
        {
          "name": "_dateEnd",
          "type": "string"
        },
        {
          "name": "_description",
          "type": "string"
        },
        {
          "name": "_isWorking",
          "type": "bool"
        },
        {
          "name": "_isDeleted",
          "type": "bool"
        }
      ],
      "name": "createUserWorkExp",
      "outputs": [],
      "payable": false,
      "stateMutability": "nonpayable",
      "type": "function"
    },
    {
      "constant": false,
      "inputs": [
        {
          "name": "_skills",
          "type": "bytes32[]"
        }
      ],
      "name": "createUserSkill",
      "outputs": [],
      "payable": false,
      "stateMutability": "nonpayable",
      "type": "function"
    },
    {
      "constant": false,
      "inputs": [
        {
          "name": "_introduction",
          "type": "string"
        }
      ],
      "name": "createUserIntroduction",
      "outputs": [],
      "payable": false,
      "stateMutability": "nonpayable",
      "type": "function"
    },
    {
      "constant": false,
      "inputs": [
        {
          "name": "_organization",
          "type": "string"
        },
        {
          "name": "_level",
          "type": "string"
        },
        {
          "name": "_dateStart",
          "type": "string"
        },
        {
          "name": "_dateEnd",
          "type": "string"
        },
        {
          "name": "_description",
          "type": "string"
        },
        {
          "name": "_isDeleted",
          "type": "bool"
        }
      ],
      "name": "createUserEducation",
      "outputs": [],
      "payable": false,
      "stateMutability": "nonpayable",
      "type": "function"
    }
  ],
  "bytecode": "0x60806040523480156200001157600080fd5b5060405160a080620036948339810180604052620000339190810190620001e7565b60018054600160a060020a03808716600160a060020a031992831617909255600280548387169083161790556003805483861690831617905560048054909116331781556006805460ff191690556040517f13af403500000000000000000000000000000000000000000000000000000000815287928792879287928616916313af403591620000c69130910162000278565b600060405180830381600087803b158015620000e157600080fd5b505af1158015620000f6573d6000803e3d6000fd5b505060008054600160a060020a031916600160a060020a0397881617905550506040517f13af4035000000000000000000000000000000000000000000000000000000008152938916936313af4035935062000159925030915060040162000278565b600060405180830381600087803b1580156200017457600080fd5b505af115801562000189573d6000803e3d6000fd5b505060078054600160a060020a03988916600160a060020a0319909116179055505060068054919095166101000261010060a860020a03199091161790935550620002a7915050565b6000620001e082516200029a565b9392505050565b600080600080600060a086880312156200020057600080fd5b60006200020e8888620001d2565b95505060206200022188828901620001d2565b94505060406200023488828901620001d2565b93505060606200024788828901620001d2565b92505060806200025a88828901620001d2565b9150509295509295909350565b62000272816200028e565b82525050565b6020810162000288828462000267565b92915050565b600160a060020a031690565b600062000288826200028e565b6133dd80620002b76000396000f3006080604052600436106100f85763ffffffff60e060020a6000350416631218095b81146100fd578063147f3af91461011f5780631605750d1461013f578063299a7bcc1461015f5780632b590e7a1461017f57806342ce594a1461019f5780635519d390146101bf5780635db599b8146101df57806371ede71b146101f4578063765b9d6b14610214578063785ad71f1461023f5780638ab1d6811461025f5780638da5cb5b1461027f5780639b19251a146102a1578063bcf7dc03146102c1578063c1e2514f146102e1578063c6b0de7e14610301578063ce10958314610321578063e43252d714610341578063ea9db6ff14610361575b600080fd5b34801561010957600080fd5b5061011d61011836600461290b565b610381565b005b34801561012b57600080fd5b5061011d61013a366004612be3565b6105c4565b34801561014b57600080fd5b5061011d61015a3660046126a3565b61080d565b34801561016b57600080fd5b5061011d61017a3660046126a3565b6108dc565b34801561018b57600080fd5b5061011d61019a36600461265f565b6109b6565b3480156101ab57600080fd5b5061011d6101ba3660046126dd565b610a70565b3480156101cb57600080fd5b5061011d6101da3660046129df565b610cab565b3480156101eb57600080fd5b5061011d610ef0565b34801561020057600080fd5b5061011d61020f366004612765565b610fe6565b34801561022057600080fd5b506102296111f0565b60405161023691906131ea565b60405180910390f35b34801561024b57600080fd5b5061011d61025a366004612765565b6111f9565b34801561026b57600080fd5b5061011d61027a36600461265f565b6113c4565b34801561028b57600080fd5b506102946114f2565b60405161023691906131bb565b3480156102ad57600080fd5b506102296102bc36600461265f565b611501565b3480156102cd57600080fd5b5061011d6102dc366004612863565b611516565b3480156102ed57600080fd5b5061011d6102fc36600461265f565b611757565b34801561030d57600080fd5b5061011d61031c3660046126a3565b61184f565b34801561032d57600080fd5b5061011d61033c366004612ad0565b61191b565b34801561034d57600080fd5b5061011d61035c36600461265f565b611b62565b34801561036d57600080fd5b5061011d61037c366004612730565b611c5a565b33151561038d57600080fd5b6000546040516000805160206133848339815191528152600160a060020a03909116906399ec372a906103c690339030906004016131cf565b602060405180830381600087803b1580156103e057600080fd5b505af11580156103f4573d6000803e3d6000fd5b505050506040513d601f19601f820116820180604052506104189190810190612712565b151561042357600080fd5b6006546040516000805160206133648339815191528152610100909104600160a060020a031690639b19251a9061045e9033906004016131bb565b602060405180830381600087803b15801561047857600080fd5b505af115801561048c573d6000803e3d6000fd5b505050506040513d601f19601f820116820180604052506104b09190810190612712565b806105415750600660019054906101000a9004600160a060020a0316600160a060020a031663765b9d6b6040518163ffffffff1660e060020a028152600401602060405180830381600087803b15801561050957600080fd5b505af115801561051d573d6000803e3d6000fd5b505050506040513d601f19601f820116820180604052506105419190810190612712565b151561054c57600080fd5b600154600160a060020a031663410de53661056a8787878787611e60565b336040518363ffffffff1660e060020a02815260040161058b92919061323a565b600060405180830381600087803b1580156105a557600080fd5b505af11580156105b9573d6000803e3d6000fd5b505050505050505050565b3315156105d057600080fd5b6000546040516000805160206133848339815191528152600160a060020a03909116906399ec372a9061060990339030906004016131cf565b602060405180830381600087803b15801561062357600080fd5b505af1158015610637573d6000803e3d6000fd5b505050506040513d601f19601f8201168201806040525061065b9190810190612712565b151561066657600080fd5b6006546040516000805160206133648339815191528152610100909104600160a060020a031690639b19251a906106a19033906004016131bb565b602060405180830381600087803b1580156106bb57600080fd5b505af11580156106cf573d6000803e3d6000fd5b505050506040513d601f19601f820116820180604052506106f39190810190612712565b806107845750600660019054906101000a9004600160a060020a0316600160a060020a031663765b9d6b6040518163ffffffff1660e060020a028152600401602060405180830381600087803b15801561074c57600080fd5b505af1158015610760573d6000803e3d6000fd5b505050506040513d601f19601f820116820180604052506107849190810190612712565b151561078f57600080fd5b600154600160a060020a03166302630c1f6107b08a8a8a8a8a8a8a8a611f43565b336040518363ffffffff1660e060020a0281526004016107d192919061326d565b600060405180830381600087803b1580156107eb57600080fd5b505af11580156107ff573d6000803e3d6000fd5b505050505050505050505050565b8080600160a060020a0316600660019054906101000a9004600160a060020a0316600160a060020a0316638da5cb5b6040518163ffffffff1660e060020a028152600401602060405180830381600087803b15801561086b57600080fd5b505af115801561087f573d6000803e3d6000fd5b505050506040513d601f19601f820116820180604052506108a39190810190612685565b600160a060020a0316146108b657600080fd5b5050600160a060020a03166000908152600560205260409020805460ff19166001179055565b8080600160a060020a0316600660019054906101000a9004600160a060020a0316600160a060020a0316638da5cb5b6040518163ffffffff1660e060020a028152600401602060405180830381600087803b15801561093a57600080fd5b505af115801561094e573d6000803e3d6000fd5b505050506040513d601f19601f820116820180604052506109729190810190612685565b600160a060020a03161461098557600080fd5b50506004805473ffffffffffffffffffffffffffffffffffffffff1916600160a060020a0392909216919091179055565b8080600160a060020a0316600660019054906101000a9004600160a060020a0316600160a060020a0316638da5cb5b6040518163ffffffff1660e060020a028152600401602060405180830381600087803b158015610a1457600080fd5b505af1158015610a28573d6000803e3d6000fd5b505050506040513d601f19601f82011682018060405250610a4c9190810190612685565b600160a060020a031614610a5f57600080fd5b50506006805460ff19166001179055565b331515610a7c57600080fd5b6000546040516000805160206133848339815191528152600160a060020a03909116906399ec372a90610ab590339030906004016131cf565b602060405180830381600087803b158015610acf57600080fd5b505af1158015610ae3573d6000803e3d6000fd5b505050506040513d601f19601f82011682018060405250610b079190810190612712565b1515610b1257600080fd5b6006546040516000805160206133648339815191528152610100909104600160a060020a031690639b19251a90610b4d9033906004016131bb565b602060405180830381600087803b158015610b6757600080fd5b505af1158015610b7b573d6000803e3d6000fd5b505050506040513d601f19601f82011682018060405250610b9f9190810190612712565b80610c305750600660019054906101000a9004600160a060020a0316600160a060020a031663765b9d6b6040518163ffffffff1660e060020a028152600401602060405180830381600087803b158015610bf857600080fd5b505af1158015610c0c573d6000803e3d6000fd5b505050506040513d601f19601f82011682018060405250610c309190810190612712565b1515610c3b57600080fd5b600154600160a060020a0316631a57db1f610c5583612075565b336040518363ffffffff1660e060020a028152600401610c7692919061325c565b600060405180830381600087803b158015610c9057600080fd5b505af1158015610ca4573d6000803e3d6000fd5b5050505050565b331515610cb757600080fd5b6000546040516000805160206133848339815191528152600160a060020a03909116906399ec372a90610cf090339030906004016131cf565b602060405180830381600087803b158015610d0a57600080fd5b505af1158015610d1e573d6000803e3d6000fd5b505050506040513d601f19601f82011682018060405250610d429190810190612712565b1515610d4d57600080fd5b6006546040516000805160206133648339815191528152610100909104600160a060020a031690639b19251a90610d889033906004016131bb565b602060405180830381600087803b158015610da257600080fd5b505af1158015610db6573d6000803e3d6000fd5b505050506040513d601f19601f82011682018060405250610dda9190810190612712565b80610e6b5750600660019054906101000a9004600160a060020a0316600160a060020a031663765b9d6b6040518163ffffffff1660e060020a028152600401602060405180830381600087803b158015610e3357600080fd5b505af1158015610e47573d6000803e3d6000fd5b505050506040513d601f19601f82011682018060405250610e6b9190810190612712565b1515610e7657600080fd5b600154600160a060020a031663eab065e7610e9588888888888861208c565b336040518363ffffffff1660e060020a028152600401610eb6929190613218565b600060405180830381600087803b158015610ed057600080fd5b505af1158015610ee4573d6000803e3d6000fd5b50505050505050505050565b3380600160a060020a0316600660019054906101000a9004600160a060020a0316600160a060020a0316638da5cb5b6040518163ffffffff1660e060020a028152600401602060405180830381600087803b158015610f4e57600080fd5b505af1158015610f62573d6000803e3d6000fd5b505050506040513d601f19601f82011682018060405250610f869190810190612685565b600160a060020a031614610f9957600080fd5b6006546040517f2b590e7a000000000000000000000000000000000000000000000000000000008152610100909104600160a060020a031690632b590e7a90610c769033906004016131bb565b331515610ff257600080fd5b6006546040516000805160206133648339815191528152610100909104600160a060020a031690639b19251a9061102d9033906004016131bb565b602060405180830381600087803b15801561104757600080fd5b505af115801561105b573d6000803e3d6000fd5b505050506040513d601f19601f8201168201806040525061107f9190810190612712565b806111105750600660019054906101000a9004600160a060020a0316600160a060020a031663765b9d6b6040518163ffffffff1660e060020a028152600401602060405180830381600087803b1580156110d857600080fd5b505af11580156110ec573d6000803e3d6000fd5b505050506040513d601f19601f820116820180604052506111109190810190612712565b151561111b57600080fd5b6007546040516000805160206133848339815191528152600160a060020a03909116906399ec372a9061115490339030906004016131cf565b602060405180830381600087803b15801561116e57600080fd5b505af1158015611182573d6000803e3d6000fd5b505050506040513d601f19601f820116820180604052506111a69190810190612712565b156111b057600080fd5b600154600160a060020a0316632a709fc76111cf8888888888886121a1565b336040518363ffffffff1660e060020a028152600401610eb69291906131f8565b60065460ff1681565b33151561120557600080fd5b6006546040516000805160206133648339815191528152610100909104600160a060020a031690639b19251a906112409033906004016131bb565b602060405180830381600087803b15801561125a57600080fd5b505af115801561126e573d6000803e3d6000fd5b505050506040513d601f19601f820116820180604052506112929190810190612712565b806113235750600660019054906101000a9004600160a060020a0316600160a060020a031663765b9d6b6040518163ffffffff1660e060020a028152600401602060405180830381600087803b1580156112eb57600080fd5b505af11580156112ff573d6000803e3d6000fd5b505050506040513d601f19601f820116820180604052506113239190810190612712565b151561132e57600080fd5b6000546040516000805160206133848339815191528152600160a060020a03909116906399ec372a9061136790339030906004016131cf565b602060405180830381600087803b15801561138157600080fd5b505af1158015611395573d6000803e3d6000fd5b505050506040513d601f19601f820116820180604052506113b99190810190612712565b15156111b057600080fd5b3380600160a060020a0316600660019054906101000a9004600160a060020a0316600160a060020a0316638da5cb5b6040518163ffffffff1660e060020a028152600401602060405180830381600087803b15801561142257600080fd5b505af1158015611436573d6000803e3d6000fd5b505050506040513d601f19601f8201168201806040525061145a9190810190612685565b600160a060020a03161461146d57600080fd5b6006546040517fc6b0de7e000000000000000000000000000000000000000000000000000000008152610100909104600160a060020a03169063c6b0de7e906114bc90859033906004016131cf565b600060405180830381600087803b1580156114d657600080fd5b505af11580156114ea573d6000803e3d6000fd5b505050505050565b600454600160a060020a031681565b60056020526000908152604090205460ff1681565b33151561152257600080fd5b6000546040516000805160206133848339815191528152600160a060020a03909116906399ec372a9061155b90339030906004016131cf565b602060405180830381600087803b15801561157557600080fd5b505af1158015611589573d6000803e3d6000fd5b505050506040513d601f19601f820116820180604052506115ad9190810190612712565b15156115b857600080fd5b6006546040516000805160206133648339815191528152610100909104600160a060020a031690639b19251a906115f39033906004016131bb565b602060405180830381600087803b15801561160d57600080fd5b505af1158015611621573d6000803e3d6000fd5b505050506040513d601f19601f820116820180604052506116459190810190612712565b806116d65750600660019054906101000a9004600160a060020a0316600160a060020a031663765b9d6b6040518163ffffffff1660e060020a028152600401602060405180830381600087803b15801561169e57600080fd5b505af11580156116b2573d6000803e3d6000fd5b505050506040513d601f19601f820116820180604052506116d69190810190612712565b15156116e157600080fd5b600154600160a060020a031663e39515376116fe868686866121f9565b336040518363ffffffff1660e060020a02815260040161171f92919061324b565b600060405180830381600087803b15801561173957600080fd5b505af115801561174d573d6000803e3d6000fd5b5050505050505050565b3380600160a060020a0316600660019054906101000a9004600160a060020a0316600160a060020a0316638da5cb5b6040518163ffffffff1660e060020a028152600401602060405180830381600087803b1580156117b557600080fd5b505af11580156117c9573d6000803e3d6000fd5b505050506040513d601f19601f820116820180604052506117ed9190810190612685565b600160a060020a03161461180057600080fd5b6006546040517f299a7bcc000000000000000000000000000000000000000000000000000000008152610100909104600160a060020a03169063299a7bcc906114bc90859033906004016131cf565b8080600160a060020a0316600660019054906101000a9004600160a060020a0316600160a060020a0316638da5cb5b6040518163ffffffff1660e060020a028152600401602060405180830381600087803b1580156118ad57600080fd5b505af11580156118c1573d6000803e3d6000fd5b505050506040513d601f19601f820116820180604052506118e59190810190612685565b600160a060020a0316146118f857600080fd5b5050600160a060020a03166000908152600560205260409020805460ff19169055565b33151561192757600080fd5b6000546040516000805160206133848339815191528152600160a060020a03909116906399ec372a9061196090339030906004016131cf565b602060405180830381600087803b15801561197a57600080fd5b505af115801561198e573d6000803e3d6000fd5b505050506040513d601f19601f820116820180604052506119b29190810190612712565b15156119bd57600080fd5b6006546040516000805160206133648339815191528152610100909104600160a060020a031690639b19251a906119f89033906004016131bb565b602060405180830381600087803b158015611a1257600080fd5b505af1158015611a26573d6000803e3d6000fd5b505050506040513d601f19601f82011682018060405250611a4a9190810190612712565b80611adb5750600660019054906101000a9004600160a060020a0316600160a060020a031663765b9d6b6040518163ffffffff1660e060020a028152600401602060405180830381600087803b158015611aa357600080fd5b505af1158015611ab7573d6000803e3d6000fd5b505050506040513d601f19601f82011682018060405250611adb9190810190612712565b1515611ae657600080fd5b600154600160a060020a0316634e28b0e7611b06898989898989896122b8565b336040518363ffffffff1660e060020a028152600401611b2792919061327e565b600060405180830381600087803b158015611b4157600080fd5b505af1158015611b55573d6000803e3d6000fd5b5050505050505050505050565b3380600160a060020a0316600660019054906101000a9004600160a060020a0316600160a060020a0316638da5cb5b6040518163ffffffff1660e060020a028152600401602060405180830381600087803b158015611bc057600080fd5b505af1158015611bd4573d6000803e3d6000fd5b505050506040513d601f19601f82011682018060405250611bf89190810190612685565b600160a060020a031614611c0b57600080fd5b6006546040517f1605750d000000000000000000000000000000000000000000000000000000008152610100909104600160a060020a031690631605750d906114bc90859033906004016131cf565b331515611c6657600080fd5b6000546040516000805160206133848339815191528152600160a060020a03909116906399ec372a90611c9f90339030906004016131cf565b602060405180830381600087803b158015611cb957600080fd5b505af1158015611ccd573d6000803e3d6000fd5b505050506040513d601f19601f82011682018060405250611cf19190810190612712565b1515611cfc57600080fd5b6006546040516000805160206133648339815191528152610100909104600160a060020a031690639b19251a90611d379033906004016131bb565b602060405180830381600087803b158015611d5157600080fd5b505af1158015611d65573d6000803e3d6000fd5b505050506040513d601f19601f82011682018060405250611d899190810190612712565b80611e1a5750600660019054906101000a9004600160a060020a0316600160a060020a031663765b9d6b6040518163ffffffff1660e060020a028152600401602060405180830381600087803b158015611de257600080fd5b505af1158015611df6573d6000803e3d6000fd5b505050506040513d601f19601f82011682018060405250611e1a9190810190612712565b1515611e2557600080fd5b600154600160a060020a031663d3e26ee7611e3f83612075565b336040518363ffffffff1660e060020a028152600401610c76929190613229565b611e686123e4565b611e706123e4565b8651600010611e7e57600080fd5b8551600010611e8c57600080fd5b8451600010611e9a57600080fd5b84511515611eb657604080516020810190915260008152611eb8565b845b604082015285511515611ed957604080516020810190915260008152611edb565b855b602082015286511515611efc57604080516020810190915260008152611efe565b865b815283511515611f1c57604080516020810190915260008152611f1e565b835b606082015282611f2f576000611f32565b60015b151560808201529695505050505050565b611f4b612416565b611f53612416565b88511515611f6f57604080516020810190915260008152611f71565b885b602082015289511515611f9257604080516020810190915260008152611f94565b895b815287511515611fb257604080516020810190915260008152611fb4565b875b604082015286511515611fd557604080516020810190915260008152611fd7565b865b606082015285511515611ff857604080516020810190915260008152611ffa565b855b60808201528451151561201b5760408051602081019091526000815261201d565b845b60a08201528351151561203e57604080516020810190915260008152612040565b835b60c08201528251151561206157604080516020810190915260008152612063565b825b60e08201529998505050505050505050565b61207d61245c565b61208561245c565b9182525090565b61209461246e565b61209c61246e565b87516000106120aa57600080fd5b86516000106120b857600080fd5b85516000106120c657600080fd5b83516000106120d457600080fd5b875115156120f0576040805160208101909152600081526120f2565b875b81528651151561211057604080516020810190915260008152612112565b865b60208201528551151561213357604080516020810190915260008152612135565b855b60408201528451151561215657604080516020810190915260008152612158565b845b6060820152835115156121795760408051602081019091526000815261217b565b835b60808201528261218c57600061218f565b60015b151560a0820152979650505050505050565b6121a96124a7565b6121b16124a7565b875115156121cd576040805160208101909152600081526121cf565b875b815260208101969096525060408501939093526060840191909152608083015260a0820152919050565b6122016124e1565b6122096124e1565b855160001061221757600080fd5b845160001061222557600080fd5b835160001061223357600080fd5b8551151561224f57604080516020810190915260008152612251565b855b81528451151561226f57604080516020810190915260008152612271565b845b60208201528351151561229257604080516020810190915260008152612294565b835b6040820152826122a55760006122a8565b60015b1515606082015295945050505050565b6122c061250c565b6122c861250c565b88516000106122d657600080fd5b87516000106122e457600080fd5b86516000106122f257600080fd5b845160001061230057600080fd5b8851151561231c5760408051602081019091526000815261231e565b885b81528751151561233c5760408051602081019091526000815261233e565b875b60208201528651151561235f57604080516020810190915260008152612361565b865b60408201528551151561238257604080516020810190915260008152612384565b855b6060820152845115156123a5576040805160208101909152600081526123a7565b845b6080820152836123b85760006123bb565b60015b151560a0820152826123ce5760006123d1565b60015b151560c082015298975050505050505050565b60a060405190810160405280606081526020016060815260200160608152602001606081526020016000151581525090565b6101006040519081016040528060608152602001606081526020016060815260200160608152602001606081526020016060815260200160608152602001606081525090565b60408051602081019091526060815290565b60c06040519081016040528060608152602001606081526020016060815260200160608152602001606081526020016000151581525090565b60c0604051908101604052806060815260200160008019168152602001606081526020016060815260200160608152602001606081525090565b6080604051908101604052806060815260200160608152602001606081526020016000151581525090565b60e06040519081016040528060608152602001606081526020016060815260200160608152602001606081526020016000151581526020016000151581525090565b600061255a8235613309565b9392505050565b600061255a8251613309565b6000601f8201831361257e57600080fd5b813561259161258c826132b6565b61328f565b915081818352602084019350602081019050838560208402820111156125b657600080fd5b60005b838110156125e257816125cc8882612604565b84525060209283019291909101906001016125b9565b5050505092915050565b600061255a8235613315565b600061255a8251613315565b600061255a823561331a565b6000601f8201831361262157600080fd5b813561262f61258c826132d7565b9150808252602083016020830185838301111561264b57600080fd5b61265683828461331d565b50505092915050565b60006020828403121561267157600080fd5b600061267d848461254e565b949350505050565b60006020828403121561269757600080fd5b600061267d8484612561565b600080604083850312156126b657600080fd5b60006126c2858561254e565b92505060206126d38582860161254e565b9150509250929050565b6000602082840312156126ef57600080fd5b813567ffffffffffffffff81111561270657600080fd5b61267d8482850161256d565b60006020828403121561272457600080fd5b600061267d84846125f8565b60006020828403121561274257600080fd5b813567ffffffffffffffff81111561275957600080fd5b61267d84828501612610565b60008060008060008060c0878903121561277e57600080fd5b863567ffffffffffffffff81111561279557600080fd5b6127a189828a01612610565b96505060206127b289828a01612604565b955050604087013567ffffffffffffffff8111156127cf57600080fd5b6127db89828a01612610565b945050606087013567ffffffffffffffff8111156127f857600080fd5b61280489828a01612610565b935050608087013567ffffffffffffffff81111561282157600080fd5b61282d89828a01612610565b92505060a087013567ffffffffffffffff81111561284a57600080fd5b61285689828a01612610565b9150509295509295509295565b6000806000806080858703121561287957600080fd5b843567ffffffffffffffff81111561289057600080fd5b61289c87828801612610565b945050602085013567ffffffffffffffff8111156128b957600080fd5b6128c587828801612610565b935050604085013567ffffffffffffffff8111156128e257600080fd5b6128ee87828801612610565b92505060606128ff878288016125ec565b91505092959194509250565b600080600080600060a0868803121561292357600080fd5b853567ffffffffffffffff81111561293a57600080fd5b61294688828901612610565b955050602086013567ffffffffffffffff81111561296357600080fd5b61296f88828901612610565b945050604086013567ffffffffffffffff81111561298c57600080fd5b61299888828901612610565b935050606086013567ffffffffffffffff8111156129b557600080fd5b6129c188828901612610565b92505060806129d2888289016125ec565b9150509295509295909350565b60008060008060008060c087890312156129f857600080fd5b863567ffffffffffffffff811115612a0f57600080fd5b612a1b89828a01612610565b965050602087013567ffffffffffffffff811115612a3857600080fd5b612a4489828a01612610565b955050604087013567ffffffffffffffff811115612a6157600080fd5b612a6d89828a01612610565b945050606087013567ffffffffffffffff811115612a8a57600080fd5b612a9689828a01612610565b935050608087013567ffffffffffffffff811115612ab357600080fd5b612abf89828a01612610565b92505060a061285689828a016125ec565b600080600080600080600060e0888a031215612aeb57600080fd5b873567ffffffffffffffff811115612b0257600080fd5b612b0e8a828b01612610565b975050602088013567ffffffffffffffff811115612b2b57600080fd5b612b378a828b01612610565b965050604088013567ffffffffffffffff811115612b5457600080fd5b612b608a828b01612610565b955050606088013567ffffffffffffffff811115612b7d57600080fd5b612b898a828b01612610565b945050608088013567ffffffffffffffff811115612ba657600080fd5b612bb28a828b01612610565b93505060a0612bc38a828b016125ec565b92505060c0612bd48a828b016125ec565b91505092959891949750929550565b600080600080600080600080610100898b031215612c0057600080fd5b883567ffffffffffffffff811115612c1757600080fd5b612c238b828c01612610565b985050602089013567ffffffffffffffff811115612c4057600080fd5b612c4c8b828c01612610565b975050604089013567ffffffffffffffff811115612c6957600080fd5b612c758b828c01612610565b965050606089013567ffffffffffffffff811115612c9257600080fd5b612c9e8b828c01612610565b955050608089013567ffffffffffffffff811115612cbb57600080fd5b612cc78b828c01612610565b94505060a089013567ffffffffffffffff811115612ce457600080fd5b612cf08b828c01612610565b93505060c089013567ffffffffffffffff811115612d0d57600080fd5b612d198b828c01612610565b92505060e089013567ffffffffffffffff811115612d3657600080fd5b612d428b828c01612610565b9150509295985092959890939650565b612d5b81613309565b82525050565b6000612d6c82613305565b808452602084019350612d7e836132ff565b60005b82811015612dae57612d94868351612dc1565b612d9d826132ff565b602096909601959150600101612d81565b5093949350505050565b612d5b81613315565b612d5b8161331a565b6000612dd582613305565b808452612de9816020860160208601613329565b612df281613359565b9093016020019392505050565b805160c080845260009190840190612e178282612dca565b9150506020830151612e2c6020860182612dc1565b5060408301518482036040860152612e448282612dca565b91505060608301518482036060860152612e5e8282612dca565b91505060808301518482036080860152612e788282612dca565b91505060a083015184820360a0860152612e928282612dca565b95945050505050565b805160c080845260009190840190612eb38282612dca565b91505060208301518482036020860152612ecd8282612dca565b91505060408301518482036040860152612ee78282612dca565b91505060608301518482036060860152612f018282612dca565b91505060808301518482036080860152612f1b8282612dca565b91505060a0830151612f3060a0860182612db8565b509392505050565b8051602080845260009190840190612e928282612dca565b805160a080845260009190840190612f688282612dca565b91505060208301518482036020860152612f828282612dca565b91505060408301518482036040860152612f9c8282612dca565b91505060608301518482036060860152612fb68282612dca565b9150506080830151612f306080860182612db8565b8051608080845260009190840190612fe38282612dca565b91505060208301518482036020860152612ffd8282612dca565b915050604083015184820360408601526130178282612dca565b9150506060830151612f306060860182612db8565b8051602080845260009190840190612e928282612d61565b80516101008084526000919084019061305d8282612dca565b915050602083015184820360208601526130778282612dca565b915050604083015184820360408601526130918282612dca565b915050606083015184820360608601526130ab8282612dca565b915050608083015184820360808601526130c58282612dca565b91505060a083015184820360a08601526130df8282612dca565b91505060c083015184820360c08601526130f98282612dca565b91505060e083015184820360e0860152612e928282612dca565b805160e08084526000919084019061312b8282612dca565b915050602083015184820360208601526131458282612dca565b9150506040830151848203604086015261315f8282612dca565b915050606083015184820360608601526131798282612dca565b915050608083015184820360808601526131938282612dca565b91505060a08301516131a860a0860182612db8565b5060c0830151612f3060c0860182612db8565b602081016131c98284612d52565b92915050565b604081016131dd8285612d52565b61255a6020830184612d52565b602081016131c98284612db8565b604080825281016132098185612dff565b905061255a6020830184612d52565b604080825281016132098185612e9b565b604080825281016132098185612f38565b604080825281016132098185612f50565b604080825281016132098185612fcb565b60408082528101613209818561302c565b604080825281016132098185613044565b604080825281016132098185613113565b60405181810167ffffffffffffffff811182821017156132ae57600080fd5b604052919050565b600067ffffffffffffffff8211156132cd57600080fd5b5060209081020190565b600067ffffffffffffffff8211156132ee57600080fd5b506020601f91909101601f19160190565b60200190565b5190565b600160a060020a031690565b151590565b90565b82818337506000910152565b60005b8381101561334457818101518382015260200161332c565b83811115613353576000848401525b50505050565b601f01601f19169056009b19251a0000000000000000000000000000000000000000000000000000000099ec372a00000000000000000000000000000000000000000000000000000000a265627a7a723058206774d86d60230fd237b8c2639856e8933bb078f2648ef852f2489e3a6b24ba646c6578706572696d656e74616cf50037",
  "source": "/**\r\n * This contract acts as a controller for front-end\r\n * requests. The DB file is separate incase, solidity adds\r\n * functionality to return structs. In that case, only\r\n * this contract needs to be redeployed and data migration\r\n * will not be needed as the data is stored in DB.sol\r\n * contract.\r\n */\r\npragma solidity ^0.4.24;\r\npragma experimental ABIEncoderV2; // experimental\r\n\r\n// imports\r\nimport \"./Blockvitae.sol\";\r\nimport \"./DB.sol\";\r\n\r\n// @title Blockvitae for CV\r\ncontract BlockvitaeInsert is Blockvitae {\r\n\r\n    Blockvitae private blockvitae;\r\n\r\n    DB private db;\r\n\r\n    // @Reference: \r\n\t// http://solidity.readthedocs.io/en/latest/contracts.html#arguments-for-base-constructors\r\n\tconstructor(DB _db, DBInsert _dbInsert, DBGetter _dbGetter, DBDelete _dbDelete, Blockvitae _blockvitae)\r\n\tBlockvitae(_db, _dbInsert, _dbGetter, _dbDelete) \r\n    public {\r\n        // set this contract as the owner of DB contract\r\n        // to avoid any external calls to DB contract\r\n        // All calls to DB contract should pass through this\r\n        // contract\r\n        _db.setOwner(address(this));\r\n        db = _db;\r\n        blockvitae = _blockvitae;\r\n    }\r\n\r\n    // checks if the sender address has been registered before or not\r\n    modifier newAccount() {\r\n        require(!db.isExists(msg.sender, address(this)));\r\n        _;\r\n    }\r\n\r\n    // check for the owner\r\n    modifier isOwner(address _sender) {\r\n        require(blockvitae.owner() == _sender);\r\n        _;\r\n    }\r\n\r\n    // if user is whitelisted to create account\r\n    modifier isWhitelisted() {\r\n        require(blockvitae.whitelist(msg.sender) || blockvitae.allWhitelisted());\r\n        _;\r\n    }\r\n\r\n    // @description\r\n    // Change Owner function incase Blockviate is redeployed\r\n    // old Blockviate should be able to update the owner to new \r\n    // Blockviate.\r\n    //\r\n    // @param address _owner\r\n    // address of the new owner \r\n    function setOwnerBlockvitae(address _owner) public isOwner(msg.sender) {\r\n       blockvitae.setOwner(_owner, msg.sender);\r\n    }\r\n\r\n    // @description\r\n    // add user to whitelist so that the given user can create account\r\n    //\r\n    // @param address _user\r\n    // address of the user\r\n    function addToWhitelist(address _user) public isOwner(msg.sender) {\r\n        blockvitae.addToWhiteList(_user, msg.sender);\r\n    }\r\n\r\n    // @description\r\n    // removes the user from the whitelist and blocks user access\r\n    //\r\n    // @param address _user\r\n    // address of the user\r\n    function removeFromWhitelist(address _user) public isOwner(msg.sender) {\r\n        blockvitae.removeFromWhiteList(_user, msg.sender);\r\n    }\r\n\r\n    // @description\r\n    // anyone can create account\r\n    function setAllWhitelisted() public isOwner(msg.sender) {\r\n        blockvitae.setAllWhitelist(msg.sender);\r\n    }\r\n\r\n    // @description\r\n    // creates UserDetail struct\r\n    //\r\n    // @param string _fullName \r\n    // full name of the user\r\n    //\r\n    // @param bytes32 _userName \r\n    // username of the user\r\n    //\r\n    // @param string _imgUrl \r\n    // profile image url of the user\r\n    //\r\n    // @param string _email \r\n    // email of the user\r\n    //\r\n    // @param string _location\r\n    // (City, State) of the user\r\n    //\r\n    // @param string _description\r\n    // One line descriprion of the user\r\n    function createUserDetail(\r\n        string _fullName,\r\n        bytes32 _userName,\r\n        string _imgUrl,\r\n        string _email,\r\n        string _location,\r\n        string _description\r\n    )\r\n    public\r\n    addressNotZero\r\n    isWhitelisted\r\n    newAccount\r\n    {\r\n        // insert into the database\r\n        dbInsert.insertUserDetail(User.setUserDetail(\r\n            _fullName,\r\n            _userName,\r\n            _imgUrl,\r\n            _email,\r\n            _location,\r\n            _description), msg.sender);\r\n    }\r\n\r\n    // @description\r\n    // updates UserDetail struct for\r\n    // existing user\r\n    //\r\n    // @param string _fullName \r\n    // full name of the user\r\n    //\r\n    // @param bytes32 _userName \r\n    // username of the user\r\n    //\r\n    // @param string _imgUrl \r\n    // profile image url of the user\r\n    //\r\n    // @param string _email \r\n    // email of the user\r\n    //\r\n    // @param string _location\r\n    // (City, State) of the user\r\n    //\r\n    // @param string _description\r\n    // One line descriprion of the user\r\n    function updateUserDetail(\r\n        string _fullName,\r\n        bytes32 _userName,\r\n        string _imgUrl,\r\n        string _email,\r\n        string _location,\r\n        string _description\r\n    )\r\n    public\r\n    addressNotZero\r\n    isWhitelisted\r\n    userExists\r\n    {\r\n        // insert into the database\r\n        dbInsert.insertUserDetail(User.setUserDetail(\r\n            _fullName,\r\n            _userName,\r\n            _imgUrl,\r\n            _email,\r\n            _location,\r\n            _description), msg.sender);\r\n    }\r\n\r\n    // @description\r\n    // create UserSocial struct and insers in DB\r\n    // \r\n    // @param string _websiteUrl\r\n    // personal website url\r\n    //\r\n    // @param string _twitterUrl\r\n    // twitter url of the user\r\n    //\r\n    // @param string _fbUrl\r\n    // facebook url of the user\r\n    //\r\n    // @param string _githubUrl\r\n    // github url of the user\r\n    //\r\n    // @param string _linkedInUrl\r\n    // linked in url of the user\r\n    //\r\n    // @param string _behanceUrl\r\n    // behance url of the user\r\n    //\r\n    // @param string _mediumUrl\r\n    // medium url of the user\r\n    function createUserSocial(\r\n        string _websiteUrl,\r\n        string _twitterUrl,\r\n        string _fbUrl,\r\n        string _githubUrl,\r\n        string _dribbbleUrl,\r\n        string _linkedInUrl,\r\n        string _behanceUrl,\r\n        string _mediumUrl\r\n    )\r\n    public\r\n    addressNotZero\r\n    userExists\r\n    isWhitelisted\r\n    {\r\n        // insert into the database\r\n        dbInsert.insertUserSocial(User.setUserSocial(\r\n            _websiteUrl,\r\n            _twitterUrl,\r\n            _fbUrl,\r\n            _githubUrl,\r\n            _dribbbleUrl,\r\n            _linkedInUrl,\r\n            _behanceUrl,\r\n            _mediumUrl), msg.sender);\r\n    }\r\n\r\n    // @description\r\n    // creates UserProject struct and insert in DB\r\n    //\r\n    // @param string _name\r\n    // name of the project\r\n    //\r\n    // @param string _shortDescription\r\n    // One line description of the project\r\n    //\r\n    // @param string _description \r\n    // description of the project\r\n    //\r\n    // @param bool _isDeleted\r\n    // true if the current record has been deleted by the user\r\n    //\r\n    // @param string _url\r\n    // url of the project\r\n    function createUserProject(\r\n        string _name,\r\n        string _shortDescription,\r\n        string _description,\r\n        string _url,\r\n        bool _isDeleted\r\n    )\r\n    public\r\n    addressNotZero\r\n    userExists\r\n    isWhitelisted\r\n    {\r\n        // insert into the database\r\n        dbInsert.insertUserProject(User.setUserProject(\r\n            _name,\r\n            _shortDescription,\r\n            _description,\r\n            _url,\r\n            _isDeleted), msg.sender);\r\n    }\r\n\r\n    // @description\r\n    // creates UserPublication struct and insert in DB\r\n    //\r\n    // @param string _title\r\n    // title of the paper\r\n    //\r\n    // @param string _url\r\n    // url of the paper\r\n    //\r\n    // @param string _description \r\n    // description of the paper\r\n    //\r\n    // @param bool _isDeleted\r\n    // true if the current record has been deleted by the user\r\n    function createUserPublication(\r\n        string _title,\r\n        string _url,\r\n        string _description,\r\n        bool _isDeleted\r\n    )\r\n    public\r\n    addressNotZero\r\n    userExists\r\n    isWhitelisted\r\n    {\r\n        // insert into the database\r\n        dbInsert.insertUserPublication(User.setUserPublication(\r\n            _title,\r\n            _url,\r\n            _description,\r\n            _isDeleted), msg.sender);\r\n    }\r\n\r\n    // @description\r\n    // creates UserWorkExp struct and inserts in DB\r\n    //\r\n    // @param string _company\r\n    // name of the company or organization\r\n    //\r\n    // @param string _position\r\n    // position held in the given company\r\n    //\r\n    // @param string _dateStart\r\n    // start date of the job\r\n    //\r\n    // @param string _dateEnd\r\n    // end date of the job\r\n    //\r\n    // @param string _description\r\n    // description of the work experience\r\n    //\r\n    // @param bool _isDeleted\r\n    // true if the current record has been deleted by the user\r\n    //\r\n    // @param bool _isWorking\r\n    // true if user still works here\r\n    function createUserWorkExp(\r\n        string _company,\r\n        string _position,\r\n        string _dateStart,\r\n        string _dateEnd,\r\n        string _description,\r\n        bool _isWorking,\r\n        bool _isDeleted\r\n    )\r\n    public\r\n    addressNotZero\r\n    userExists\r\n    isWhitelisted\r\n    {\r\n        // insert in to database\r\n        dbInsert.insertUserWorkExp(User.setUserWorkExp(\r\n            _company,\r\n            _position,\r\n            _dateStart,\r\n            _dateEnd,\r\n            _description,\r\n            _isWorking,\r\n            _isDeleted), msg.sender);\r\n    }\r\n\r\n    // @description\r\n    // creates UserSkill struct and inserts in DB\r\n    //\r\n    // @param bytes32[] _skills\r\n    // array of skills\r\n    function createUserSkill(bytes32[] _skills) \r\n    public \r\n    addressNotZero \r\n    userExists\r\n    isWhitelisted {\r\n        // insert into DB\r\n        dbInsert.insertUserSkill(User.setUserSkill(_skills), msg.sender);\r\n    }\r\n\r\n    // @description\r\n    // creates UserIntroduction struct and inserts in DB\r\n    //\r\n    // @param string _introduction\r\n    // introduction of the user\r\n    function createUserIntroduction(string _introduction) \r\n    public \r\n    addressNotZero\r\n    userExists\r\n    isWhitelisted {\r\n        // insert into DB\r\n        dbInsert.insertUserIntroduction(User.setUserIntroduction(_introduction), msg.sender);\r\n    }\r\n\r\n    // @description\r\n    // creates UserEducation struct and inserts in DB\r\n    //\r\n     // @param string _organization\r\n    // name of the organization\r\n    //\r\n    // @param string _level\r\n    // education level held in the given organization\r\n    //\r\n    // @param string _dateStart\r\n    // start date of the education\r\n    //\r\n    // @param string _dateEnd\r\n    // end date of the education\r\n    //\r\n    // @param string _description\r\n    // description of the education\r\n    //\r\n    // @param bool _isDeleted\r\n    // true if the current record has been deleted by the user\r\n    //\r\n    // @return UserEducation\r\n    // UserEducation struct for the given values\r\n    function createUserEducation(\r\n        string _organization,\r\n        string _level,\r\n        string _dateStart,\r\n        string _dateEnd,\r\n        string _description,\r\n        bool _isDeleted \r\n    )\r\n    public\r\n    addressNotZero\r\n    userExists\r\n    isWhitelisted\r\n    {\r\n        // insert in the database\r\n        dbInsert.insertUserEducation(User.setUserEducation(\r\n            _organization,\r\n            _level,\r\n            _dateStart,\r\n            _dateEnd,\r\n            _description,\r\n            _isDeleted), msg.sender);\r\n    }\r\n}\r\n\r\n\r\n",
  "sourcePath": "E:\\GitHub\\Blockchain\\Blockvitae\\blockvitae-ethereum\\contracts\\BlockvitaeInsert.sol",
  "compiler": {
    "name": "solc",
    "version": "0.4.24+commit.e67f0147.Emscripten.clang"
  },
  "schemaVersion": "2.0.0",
  "updatedAt": "2018-08-03T15:13:24.938Z"
}