{
  "contractName": "BlockvitaeDelete",
  "abi": [
    {
      "constant": false,
      "inputs": [
        {
          "name": "_user",
          "type": "address"
        },
        {
          "name": "_sender",
          "type": "address"
        }
      ],
      "name": "addToWhiteList",
      "outputs": [],
      "payable": false,
      "stateMutability": "nonpayable",
      "type": "function"
    },
    {
      "constant": false,
      "inputs": [
        {
          "name": "_owner",
          "type": "address"
        },
        {
          "name": "_sender",
          "type": "address"
        }
      ],
      "name": "setOwner",
      "outputs": [],
      "payable": false,
      "stateMutability": "nonpayable",
      "type": "function"
    },
    {
      "constant": false,
      "inputs": [
        {
          "name": "_sender",
          "type": "address"
        }
      ],
      "name": "setAllWhitelist",
      "outputs": [],
      "payable": false,
      "stateMutability": "nonpayable",
      "type": "function"
    },
    {
      "constant": true,
      "inputs": [],
      "name": "allWhitelisted",
      "outputs": [
        {
          "name": "",
          "type": "bool"
        }
      ],
      "payable": false,
      "stateMutability": "view",
      "type": "function"
    },
    {
      "constant": true,
      "inputs": [],
      "name": "owner",
      "outputs": [
        {
          "name": "",
          "type": "address"
        }
      ],
      "payable": false,
      "stateMutability": "view",
      "type": "function"
    },
    {
      "constant": true,
      "inputs": [
        {
          "name": "",
          "type": "address"
        }
      ],
      "name": "whitelist",
      "outputs": [
        {
          "name": "",
          "type": "bool"
        }
      ],
      "payable": false,
      "stateMutability": "view",
      "type": "function"
    },
    {
      "constant": false,
      "inputs": [
        {
          "name": "_user",
          "type": "address"
        },
        {
          "name": "_sender",
          "type": "address"
        }
      ],
      "name": "removeFromWhiteList",
      "outputs": [],
      "payable": false,
      "stateMutability": "nonpayable",
      "type": "function"
    },
    {
      "inputs": [
        {
          "name": "_db",
          "type": "address"
        },
        {
          "name": "_dbInsert",
          "type": "address"
        },
        {
          "name": "_dbGetter",
          "type": "address"
        },
        {
          "name": "_dbDelete",
          "type": "address"
        },
        {
          "name": "_blockvitae",
          "type": "address"
        }
      ],
      "payable": false,
      "stateMutability": "nonpayable",
      "type": "constructor"
    },
    {
      "constant": false,
      "inputs": [
        {
          "name": "_index",
          "type": "uint256"
        }
      ],
      "name": "deleteUserEducation",
      "outputs": [],
      "payable": false,
      "stateMutability": "nonpayable",
      "type": "function"
    },
    {
      "constant": false,
      "inputs": [
        {
          "name": "_index",
          "type": "uint256"
        }
      ],
      "name": "deleteUserPublication",
      "outputs": [],
      "payable": false,
      "stateMutability": "nonpayable",
      "type": "function"
    },
    {
      "constant": false,
      "inputs": [
        {
          "name": "_index",
          "type": "uint256"
        }
      ],
      "name": "deleteUserProject",
      "outputs": [],
      "payable": false,
      "stateMutability": "nonpayable",
      "type": "function"
    },
    {
      "constant": false,
      "inputs": [
        {
          "name": "_index",
          "type": "uint256"
        }
      ],
      "name": "deleteUserWorkExp",
      "outputs": [],
      "payable": false,
      "stateMutability": "nonpayable",
      "type": "function"
    }
  ],
  "bytecode": "0x60806040523480156200001157600080fd5b5060405160a080620011028339810180604052620000339190810190620001e6565b60018054600160a060020a03808716600160a060020a031992831617909255600280548387169083161790556003805483861690831617905560048054909116331781556006805460ff191690556040517f13af403500000000000000000000000000000000000000000000000000000000815287928792879287928616916313af403591620000c69130910162000277565b600060405180830381600087803b158015620000e157600080fd5b505af1158015620000f6573d6000803e3d6000fd5b505060008054600160a060020a031916600160a060020a0397881617905550506040517f13af4035000000000000000000000000000000000000000000000000000000008152938916936313af4035935062000159925030915060040162000277565b600060405180830381600087803b1580156200017457600080fd5b505af115801562000189573d6000803e3d6000fd5b505060078054600160a060020a03958616600160a060020a0319909116179055505060068054919092166101000261010060a860020a031990911617905550620002a6915050565b6000620001df825162000299565b9392505050565b600080600080600060a08688031215620001ff57600080fd5b60006200020d8888620001d1565b95505060206200022088828901620001d1565b94505060406200023388828901620001d1565b93505060606200024688828901620001d1565b92505060806200025988828901620001d1565b9150509295509295909350565b62000271816200028d565b82525050565b6020810162000287828462000266565b92915050565b600160a060020a031690565b600062000287826200028d565b610e4c80620002b66000396000f3006080604052600436106100ae5763ffffffff7c01000000000000000000000000000000000000000000000000000000006000350416631605750d81146100b3578063299a7bcc146100d55780632b590e7a146100f5578063698508e014610115578063765b9d6b146101355780638da5cb5b146101605780639b19251a14610182578063b72c47e9146101a2578063b8ed6af0146101c2578063c6b0de7e146101e2578063e1aa2fc814610202575b600080fd5b3480156100bf57600080fd5b506100d36100ce366004610d1c565b610222565b005b3480156100e157600080fd5b506100d36100f0366004610d1c565b610264565b34801561010157600080fd5b506100d3610110366004610cf6565b6102b1565b34801561012157600080fd5b506100d3610130366004610d74565b6102de565b34801561014157600080fd5b5061014a610566565b6040516101579190610de2565b60405180910390f35b34801561016c57600080fd5b5061017561056f565b6040516101579190610db3565b34801561018e57600080fd5b5061014a61019d366004610cf6565b61057e565b3480156101ae57600080fd5b506100d36101bd366004610d74565b610593565b3480156101ce57600080fd5b506100d36101dd366004610d74565b6107e6565b3480156101ee57600080fd5b506100d36101fd366004610d1c565b610a39565b34801561020e57600080fd5b506100d361021d366004610d74565b610a78565b6004548190600160a060020a0380831691161461023e57600080fd5b5050600160a060020a03166000908152600560205260409020805460ff19166001179055565b6004548190600160a060020a0380831691161461028057600080fd5b50506004805473ffffffffffffffffffffffffffffffffffffffff1916600160a060020a0392909216919091179055565b6004548190600160a060020a038083169116146102cd57600080fd5b50506006805460ff19166001179055565b3315156102ea57600080fd5b6000546040517f99ec372a000000000000000000000000000000000000000000000000000000008152600160a060020a03909116906399ec372a906103359033903090600401610dc7565b602060405180830381600087803b15801561034f57600080fd5b505af1158015610363573d6000803e3d6000fd5b505050506040513d601f19601f820116820180604052506103879190810190610d56565b151561039257600080fd5b6006546040517f9b19251a000000000000000000000000000000000000000000000000000000008152610100909104600160a060020a031690639b19251a906103df903390600401610db3565b602060405180830381600087803b1580156103f957600080fd5b505af115801561040d573d6000803e3d6000fd5b505050506040513d601f19601f820116820180604052506104319190810190610d56565b806104db5750600660019054906101000a9004600160a060020a0316600160a060020a031663765b9d6b6040518163ffffffff167c0100000000000000000000000000000000000000000000000000000000028152600401602060405180830381600087803b1580156104a357600080fd5b505af11580156104b7573d6000803e3d6000fd5b505050506040513d601f19601f820116820180604052506104db9190810190610d56565b15156104e657600080fd5b6007546040517f390d1adc000000000000000000000000000000000000000000000000000000008152600160a060020a039091169063390d1adc906105319084903390600401610df0565b600060405180830381600087803b15801561054b57600080fd5b505af115801561055f573d6000803e3d6000fd5b5050505050565b60065460ff1681565b600454600160a060020a031681565b60056020526000908152604090205460ff1681565b33151561059f57600080fd5b6000546040517f99ec372a000000000000000000000000000000000000000000000000000000008152600160a060020a03909116906399ec372a906105ea9033903090600401610dc7565b602060405180830381600087803b15801561060457600080fd5b505af1158015610618573d6000803e3d6000fd5b505050506040513d601f19601f8201168201806040525061063c9190810190610d56565b151561064757600080fd5b6006546040517f9b19251a000000000000000000000000000000000000000000000000000000008152610100909104600160a060020a031690639b19251a90610694903390600401610db3565b602060405180830381600087803b1580156106ae57600080fd5b505af11580156106c2573d6000803e3d6000fd5b505050506040513d601f19601f820116820180604052506106e69190810190610d56565b806107905750600660019054906101000a9004600160a060020a0316600160a060020a031663765b9d6b6040518163ffffffff167c0100000000000000000000000000000000000000000000000000000000028152600401602060405180830381600087803b15801561075857600080fd5b505af115801561076c573d6000803e3d6000fd5b505050506040513d601f19601f820116820180604052506107909190810190610d56565b151561079b57600080fd5b6007546040517fe65200a9000000000000000000000000000000000000000000000000000000008152600160a060020a039091169063e65200a9906105319084903390600401610df0565b3315156107f257600080fd5b6000546040517f99ec372a000000000000000000000000000000000000000000000000000000008152600160a060020a03909116906399ec372a9061083d9033903090600401610dc7565b602060405180830381600087803b15801561085757600080fd5b505af115801561086b573d6000803e3d6000fd5b505050506040513d601f19601f8201168201806040525061088f9190810190610d56565b151561089a57600080fd5b6006546040517f9b19251a000000000000000000000000000000000000000000000000000000008152610100909104600160a060020a031690639b19251a906108e7903390600401610db3565b602060405180830381600087803b15801561090157600080fd5b505af1158015610915573d6000803e3d6000fd5b505050506040513d601f19601f820116820180604052506109399190810190610d56565b806109e35750600660019054906101000a9004600160a060020a0316600160a060020a031663765b9d6b6040518163ffffffff167c0100000000000000000000000000000000000000000000000000000000028152600401602060405180830381600087803b1580156109ab57600080fd5b505af11580156109bf573d6000803e3d6000fd5b505050506040513d601f19601f820116820180604052506109e39190810190610d56565b15156109ee57600080fd5b6007546040517f87d5e034000000000000000000000000000000000000000000000000000000008152600160a060020a03909116906387d5e034906105319084903390600401610df0565b6004548190600160a060020a03808316911614610a5557600080fd5b5050600160a060020a03166000908152600560205260409020805460ff19169055565b331515610a8457600080fd5b6000546040517f99ec372a000000000000000000000000000000000000000000000000000000008152600160a060020a03909116906399ec372a90610acf9033903090600401610dc7565b602060405180830381600087803b158015610ae957600080fd5b505af1158015610afd573d6000803e3d6000fd5b505050506040513d601f19601f82011682018060405250610b219190810190610d56565b1515610b2c57600080fd5b6006546040517f9b19251a000000000000000000000000000000000000000000000000000000008152610100909104600160a060020a031690639b19251a90610b79903390600401610db3565b602060405180830381600087803b158015610b9357600080fd5b505af1158015610ba7573d6000803e3d6000fd5b505050506040513d601f19601f82011682018060405250610bcb9190810190610d56565b80610c755750600660019054906101000a9004600160a060020a0316600160a060020a031663765b9d6b6040518163ffffffff167c0100000000000000000000000000000000000000000000000000000000028152600401602060405180830381600087803b158015610c3d57600080fd5b505af1158015610c51573d6000803e3d6000fd5b505050506040513d601f19601f82011682018060405250610c759190810190610d56565b1515610c8057600080fd5b6007546040517f65be7fe0000000000000000000000000000000000000000000000000000000008152600160a060020a03909116906365be7fe0906105319084903390600401610df0565b6000610cd78235610dfe565b9392505050565b6000610cd78251610e0a565b6000610cd78235610e0f565b600060208284031215610d0857600080fd5b6000610d148484610ccb565b949350505050565b60008060408385031215610d2f57600080fd5b6000610d3b8585610ccb565b9250506020610d4c85828601610ccb565b9150509250929050565b600060208284031215610d6857600080fd5b6000610d148484610cde565b600060208284031215610d8657600080fd5b6000610d148484610cea565b610d9b81610dfe565b82525050565b610d9b81610e0a565b610d9b81610e0f565b60208101610dc18284610d92565b92915050565b60408101610dd58285610d92565b610cd76020830184610d92565b60208101610dc18284610da1565b60408101610dd58285610daa565b600160a060020a031690565b151590565b905600a265627a7a72305820981b6659e35ea4c26f00d6183fdb8f1c21720e515d7963f7dce0cab39ec2f3606c6578706572696d656e74616cf50037",
  "source": "/**\r\n * This contract acts as a controller for front-end\r\n * requests. The DB file is separate incase, solidity adds\r\n * functionality to return structs. In that case, only\r\n * this contract needs to be redeployed and data migration\r\n * will not be needed as the data is stored in DB.sol\r\n * contract.\r\n */\r\npragma solidity ^0.4.24;\r\npragma experimental ABIEncoderV2; // experimental\r\n\r\n// imports\r\nimport \"./Blockvitae.sol\";\r\nimport \"./DBDelete.sol\";\r\n\r\ncontract BlockvitaeDelete is Blockvitae {\r\n\r\n    Blockvitae blockvitae;\r\n\r\n    DBDelete private dbDelete;\r\n\r\n    // @Reference: \r\n    // http://solidity.readthedocs.io/en/latest/contracts.html#arguments-for-base-constructors\r\n    constructor(DB _db, DBInsert _dbInsert, DBGetter _dbGetter, DBDelete _dbDelete, Blockvitae _blockvitae)\r\n    Blockvitae(_db,_dbInsert, _dbGetter, _dbDelete) \r\n    public {\r\n      // set this contract as the owner of DB contract\r\n      // to avoid any external calls to DB contract\r\n      // All calls to DB contract should pass through this\r\n      // contract\r\n      _db.setOwner(address(this));\r\n      dbDelete = _dbDelete;\r\n      blockvitae = _blockvitae;\r\n    }\r\n\r\n    // if user is whitelisted to create account\r\n    modifier isWhitelisted() {\r\n        require(blockvitae.whitelist(msg.sender) || blockvitae.allWhitelisted());\r\n        _;\r\n    }\r\n\r\n    // @description\r\n    // deletes the education for the given index and address\r\n    //\r\n    // @param uint _index\r\n    // index of the education to be deleted\r\n    function deleteUserEducation(uint _index)\r\n    public\r\n    addressNotZero\r\n    userExists\r\n    isWhitelisted\r\n    {\r\n        dbDelete.deleteEducation(_index, msg.sender);\r\n    }\r\n\r\n    // @description\r\n    // deletes the publication for the given index and address\r\n    //\r\n    // @param uint _index\r\n    // index of the publication to be deleted\r\n    function deleteUserPublication(uint _index)\r\n    public\r\n    addressNotZero\r\n    userExists\r\n    isWhitelisted\r\n    {\r\n        dbDelete.deletePublication(_index, msg.sender);\r\n    }\r\n\r\n    // @description\r\n    // deletes the project for the given index and address\r\n    //\r\n    // @param uint _index\r\n    // index of the project to be deleted\r\n    function deleteUserProject(uint _index)\r\n    public\r\n    addressNotZero\r\n    userExists\r\n    isWhitelisted\r\n    {\r\n        dbDelete.deleteProject(_index, msg.sender);\r\n    }\r\n\r\n    // @description\r\n    // deletes the workexp for the given index and address\r\n    //\r\n    // @param uint _index\r\n    // index of the workexp to be deleted\r\n    function deleteUserWorkExp(uint _index)\r\n    public\r\n    addressNotZero\r\n    userExists\r\n    isWhitelisted\r\n    {\r\n        dbDelete.deleteWorkExp(_index, msg.sender);\r\n    }\r\n}",
  "sourcePath": "E:\\GitHub\\Blockchain\\Blockvitae\\blockvitae-ethereum\\contracts\\BlockvitaeDelete.sol",
  "compiler": {
    "name": "solc",
    "version": "0.4.24+commit.e67f0147.Emscripten.clang"
  },
  "schemaVersion": "2.0.0",
  "updatedAt": "2018-08-03T15:13:25.027Z"
}