{
  "contractName": "BlockvitaeGetter",
  "abi": [
    {
      "constant": false,
      "inputs": [
        {
          "name": "_user",
          "type": "address"
        },
        {
          "name": "_sender",
          "type": "address"
        }
      ],
      "name": "addToWhiteList",
      "outputs": [],
      "payable": false,
      "stateMutability": "nonpayable",
      "type": "function"
    },
    {
      "constant": false,
      "inputs": [
        {
          "name": "_owner",
          "type": "address"
        },
        {
          "name": "_sender",
          "type": "address"
        }
      ],
      "name": "setOwner",
      "outputs": [],
      "payable": false,
      "stateMutability": "nonpayable",
      "type": "function"
    },
    {
      "constant": false,
      "inputs": [
        {
          "name": "_sender",
          "type": "address"
        }
      ],
      "name": "setAllWhitelist",
      "outputs": [],
      "payable": false,
      "stateMutability": "nonpayable",
      "type": "function"
    },
    {
      "constant": true,
      "inputs": [],
      "name": "allWhitelisted",
      "outputs": [
        {
          "name": "",
          "type": "bool"
        }
      ],
      "payable": false,
      "stateMutability": "view",
      "type": "function"
    },
    {
      "constant": true,
      "inputs": [],
      "name": "owner",
      "outputs": [
        {
          "name": "",
          "type": "address"
        }
      ],
      "payable": false,
      "stateMutability": "view",
      "type": "function"
    },
    {
      "constant": true,
      "inputs": [
        {
          "name": "",
          "type": "address"
        }
      ],
      "name": "whitelist",
      "outputs": [
        {
          "name": "",
          "type": "bool"
        }
      ],
      "payable": false,
      "stateMutability": "view",
      "type": "function"
    },
    {
      "constant": false,
      "inputs": [
        {
          "name": "_user",
          "type": "address"
        },
        {
          "name": "_sender",
          "type": "address"
        }
      ],
      "name": "removeFromWhiteList",
      "outputs": [],
      "payable": false,
      "stateMutability": "nonpayable",
      "type": "function"
    },
    {
      "inputs": [
        {
          "name": "_db",
          "type": "address"
        },
        {
          "name": "_dbInsert",
          "type": "address"
        },
        {
          "name": "_dbGetter",
          "type": "address"
        },
        {
          "name": "_dbDelete",
          "type": "address"
        },
        {
          "name": "_blockvitae",
          "type": "address"
        }
      ],
      "payable": false,
      "stateMutability": "nonpayable",
      "type": "constructor"
    },
    {
      "constant": true,
      "inputs": [
        {
          "name": "_user",
          "type": "address"
        }
      ],
      "name": "getEducationCount",
      "outputs": [
        {
          "name": "",
          "type": "uint256"
        }
      ],
      "payable": false,
      "stateMutability": "view",
      "type": "function"
    },
    {
      "constant": true,
      "inputs": [
        {
          "name": "_user",
          "type": "address"
        },
        {
          "name": "_index",
          "type": "uint256"
        }
      ],
      "name": "getUserEducation",
      "outputs": [
        {
          "name": "",
          "type": "string"
        },
        {
          "name": "",
          "type": "string"
        },
        {
          "name": "",
          "type": "string"
        },
        {
          "name": "",
          "type": "string"
        },
        {
          "name": "",
          "type": "string"
        },
        {
          "name": "",
          "type": "bool"
        }
      ],
      "payable": false,
      "stateMutability": "view",
      "type": "function"
    },
    {
      "constant": true,
      "inputs": [
        {
          "name": "_user",
          "type": "address"
        }
      ],
      "name": "getPublicationCount",
      "outputs": [
        {
          "name": "",
          "type": "uint256"
        }
      ],
      "payable": false,
      "stateMutability": "view",
      "type": "function"
    },
    {
      "constant": true,
      "inputs": [
        {
          "name": "_user",
          "type": "address"
        },
        {
          "name": "_index",
          "type": "uint256"
        }
      ],
      "name": "getUserPublication",
      "outputs": [
        {
          "name": "",
          "type": "string"
        },
        {
          "name": "",
          "type": "string"
        },
        {
          "name": "",
          "type": "string"
        },
        {
          "name": "",
          "type": "bool"
        }
      ],
      "payable": false,
      "stateMutability": "view",
      "type": "function"
    },
    {
      "constant": true,
      "inputs": [
        {
          "name": "_user",
          "type": "address"
        }
      ],
      "name": "getUserSkills",
      "outputs": [
        {
          "name": "",
          "type": "bytes32[]"
        }
      ],
      "payable": false,
      "stateMutability": "view",
      "type": "function"
    },
    {
      "constant": true,
      "inputs": [
        {
          "name": "_user",
          "type": "address"
        }
      ],
      "name": "getUserIntroduction",
      "outputs": [
        {
          "name": "",
          "type": "string"
        }
      ],
      "payable": false,
      "stateMutability": "view",
      "type": "function"
    },
    {
      "constant": true,
      "inputs": [
        {
          "name": "_user",
          "type": "address"
        }
      ],
      "name": "getProjectCount",
      "outputs": [
        {
          "name": "",
          "type": "uint256"
        }
      ],
      "payable": false,
      "stateMutability": "view",
      "type": "function"
    },
    {
      "constant": true,
      "inputs": [
        {
          "name": "_user",
          "type": "address"
        },
        {
          "name": "_index",
          "type": "uint256"
        }
      ],
      "name": "getUserProject",
      "outputs": [
        {
          "name": "",
          "type": "string"
        },
        {
          "name": "",
          "type": "string"
        },
        {
          "name": "",
          "type": "string"
        },
        {
          "name": "",
          "type": "string"
        },
        {
          "name": "",
          "type": "bool"
        }
      ],
      "payable": false,
      "stateMutability": "view",
      "type": "function"
    },
    {
      "constant": true,
      "inputs": [
        {
          "name": "_user",
          "type": "address"
        }
      ],
      "name": "getWorkExpCount",
      "outputs": [
        {
          "name": "",
          "type": "uint256"
        }
      ],
      "payable": false,
      "stateMutability": "view",
      "type": "function"
    },
    {
      "constant": true,
      "inputs": [
        {
          "name": "_user",
          "type": "address"
        },
        {
          "name": "_index",
          "type": "uint256"
        }
      ],
      "name": "getUserWorkExp",
      "outputs": [
        {
          "name": "",
          "type": "string"
        },
        {
          "name": "",
          "type": "string"
        },
        {
          "name": "",
          "type": "string"
        },
        {
          "name": "",
          "type": "string"
        },
        {
          "name": "",
          "type": "string"
        },
        {
          "name": "",
          "type": "bool"
        },
        {
          "name": "",
          "type": "bool"
        }
      ],
      "payable": false,
      "stateMutability": "view",
      "type": "function"
    },
    {
      "constant": true,
      "inputs": [
        {
          "name": "_user",
          "type": "address"
        }
      ],
      "name": "getUserDetail",
      "outputs": [
        {
          "name": "",
          "type": "string"
        },
        {
          "name": "",
          "type": "bytes32"
        },
        {
          "name": "",
          "type": "string"
        },
        {
          "name": "",
          "type": "string"
        },
        {
          "name": "",
          "type": "string"
        },
        {
          "name": "",
          "type": "string"
        }
      ],
      "payable": false,
      "stateMutability": "view",
      "type": "function"
    },
    {
      "constant": true,
      "inputs": [
        {
          "name": "_user",
          "type": "address"
        }
      ],
      "name": "getUserSocial",
      "outputs": [
        {
          "name": "",
          "type": "string"
        },
        {
          "name": "",
          "type": "string"
        },
        {
          "name": "",
          "type": "string"
        },
        {
          "name": "",
          "type": "string"
        },
        {
          "name": "",
          "type": "string"
        },
        {
          "name": "",
          "type": "string"
        },
        {
          "name": "",
          "type": "string"
        },
        {
          "name": "",
          "type": "string"
        }
      ],
      "payable": false,
      "stateMutability": "view",
      "type": "function"
    },
    {
      "constant": true,
      "inputs": [
        {
          "name": "_userName",
          "type": "bytes32"
        }
      ],
      "name": "getAddrForUserName",
      "outputs": [
        {
          "name": "",
          "type": "address"
        }
      ],
      "payable": false,
      "stateMutability": "view",
      "type": "function"
    },
    {
      "constant": true,
      "inputs": [
        {
          "name": "_userName",
          "type": "bytes32"
        }
      ],
      "name": "isUsernameAvailable",
      "outputs": [
        {
          "name": "",
          "type": "bool"
        }
      ],
      "payable": false,
      "stateMutability": "view",
      "type": "function"
    },
    {
      "constant": true,
      "inputs": [],
      "name": "getTotalUsers",
      "outputs": [
        {
          "name": "",
          "type": "uint256"
        }
      ],
      "payable": false,
      "stateMutability": "view",
      "type": "function"
    }
  ],
  "bytecode": "0x60806040523480156200001157600080fd5b5060405160a08062002a488339810180604052620000339190810190620001f9565b60018054600160a060020a03808716600160a060020a031992831617909255600280548387169083161790556003805483861690831617905560048054909116331781556006805460ff191690556040517f13af403500000000000000000000000000000000000000000000000000000000815287928792879287928616916313af403591620000c6913091016200028a565b600060405180830381600087803b158015620000e157600080fd5b505af1158015620000f6573d6000803e3d6000fd5b505060008054600160a060020a031916600160a060020a0397881617905550506040517f13af4035000000000000000000000000000000000000000000000000000000008152938916936313af403593506200015992503091506004016200028a565b600060405180830381600087803b1580156200017457600080fd5b505af115801562000189573d6000803e3d6000fd5b505060088054600160a060020a03988916600160a060020a0319918216179091556007805496891696909116959095179094555060068054919095166101000261010060a860020a03199091161790935550620002b9915050565b6000620001f28251620002ac565b9392505050565b600080600080600060a086880312156200021257600080fd5b6000620002208888620001e4565b95505060206200023388828901620001e4565b94505060406200024688828901620001e4565b93505060606200025988828901620001e4565b92505060806200026c88828901620001e4565b9150509295509295909350565b6200028481620002a0565b82525050565b602081016200029a828462000279565b92915050565b600160a060020a031690565b60006200029a82620002a0565b61277f80620002c96000396000f3006080604052600436106101275763ffffffff7c01000000000000000000000000000000000000000000000000000000006000350416630168fe81811461012c578063038b1f921461016257806306602d82146101945780630e586670146101c85780631605750d146101f95780631a0a4d4c1461021b578063299a7bcc1461023b5780632b590e7a1461025b5780634a48c84b1461027b5780634cb4b73f146102ad578063765b9d6b146102da5780638da5cb5b146102fc5780639b19251a1461031e5780639be572f61461033e5780639cc882d814610353578063ad4459fa14610373578063b6d9226b146103a3578063c2ff7936146103d6578063c6b0de7e146103f6578063d2886ebc14610416578063e0c9127e14610443578063f4b1729114610463575b600080fd5b34801561013857600080fd5b5061014c610147366004611fff565b610483565b6040516101599190612389565b60405180910390f35b34801561016e57600080fd5b5061018261017d36600461207d565b61052a565b604051610159969594939291906124d9565b3480156101a057600080fd5b506101b46101af366004611fff565b610695565b6040516101599897969594939291906125d1565b3480156101d457600080fd5b506101e86101e336600461207d565b6107a6565b604051610159959493929190612473565b34801561020557600080fd5b50610219610214366004612043565b6108f3565b005b34801561022757600080fd5b5061014c610236366004611fff565b6109db565b34801561024757600080fd5b50610219610256366004612043565b610a7b565b34801561026757600080fd5b50610219610276366004611fff565b610b6e565b34801561028757600080fd5b5061029b610296366004611fff565b610c41565b604051610159969594939291906123a8565b3480156102b957600080fd5b506102cd6102c8366004611fff565b610d23565b6040516101599190612397565b3480156102e657600080fd5b506102ef610dc3565b604051610159919061237b565b34801561030857600080fd5b50610311610dcc565b604051610159919061235c565b34801561032a57600080fd5b506102ef610339366004611fff565b610ddb565b34801561034a57600080fd5b5061014c610df0565b34801561035f57600080fd5b5061031161036e36600461219f565b610f5e565b34801561037f57600080fd5b5061039361038e36600461207d565b611000565b6040516101599493929190612422565b3480156103af57600080fd5b506103c36103be36600461207d565b61112a565b6040516101599796959493929190612554565b3480156103e257600080fd5b5061014c6103f1366004611fff565b6112bc565b34801561040257600080fd5b50610219610411366004612043565b61135c565b34801561042257600080fd5b50610436610431366004611fff565b611441565b604051610159919061236a565b34801561044f57600080fd5b506102ef61045e36600461219f565b6114e1565b34801561046f57600080fd5b5061014c61047e366004611fff565b61157d565b6007546040517f586a1f47000000000000000000000000000000000000000000000000000000008152600091600160a060020a03169063586a1f47906104cd90859060040161235c565b600060405180830381600087803b1580156104e757600080fd5b505af11580156104fb573d6000803e3d6000fd5b505050506040513d6000823e601f3d908101601f19168201604052610523919081019061214c565b5192915050565b6007546040517f099c34d900000000000000000000000000000000000000000000000000000000815260609182918291829182916000918391600160a060020a03169063099c34d990610581908c9060040161235c565b600060405180830381600087803b15801561059b57600080fd5b505af11580156105af573d6000803e3d6000fd5b505050506040513d6000823e601f3d908101601f191682016040526105d791908101906120ad565b905080888151811015156105e757fe5b6020908102909101015151815182908a90811061060057fe5b9060200190602002015160200151828a81518110151561061c57fe5b9060200190602002015160400151838b81518110151561063857fe5b9060200190602002015160600151848c81518110151561065457fe5b9060200190602002015160800151858d81518110151561067057fe5b602090810291909101015160a00151949e939d50919b50995097509095509350505050565b6060806060806060806060806106a961161d565b6007546040517fe9411881000000000000000000000000000000000000000000000000000000008152600160a060020a039091169063e9411881906106f2908d9060040161235c565b600060405180830381600087803b15801561070c57600080fd5b505af1158015610720573d6000803e3d6000fd5b505050506040513d6000823e601f3d908101601f19168201604052610748919081019061225c565b9050806000015181602001518260400151836060015184608001518560a001518660c001518760e001518797508696508595508494508393508292508191508090509850985098509850985098509850985050919395975091939597565b6007546040517f93a8022c0000000000000000000000000000000000000000000000000000000081526060918291829182916000918391600160a060020a03909116906393a8022c906107fd908b9060040161235c565b600060405180830381600087803b15801561081757600080fd5b505af115801561082b573d6000803e3d6000fd5b505050506040513d6000823e601f3d908101601f1916820160405261085391908101906120e2565b9050808781518110151561086357fe5b6020908102909101015151815182908990811061087c57fe5b9060200190602002015160200151828981518110151561089857fe5b9060200190602002015160400151838a8151811015156108b457fe5b9060200190602002015160600151848b8151811015156108d057fe5b602090810291909101015160800151939c929b5090995097509095509350505050565b8080600160a060020a0316600660019054906101000a9004600160a060020a0316600160a060020a0316638da5cb5b6040518163ffffffff167c0100000000000000000000000000000000000000000000000000000000028152600401602060405180830381600087803b15801561096a57600080fd5b505af115801561097e573d6000803e3d6000fd5b505050506040513d601f19601f820116820180604052506109a29190810190612025565b600160a060020a0316146109b557600080fd5b5050600160a060020a03166000908152600560205260409020805460ff19166001179055565b6007546040517f93a8022c000000000000000000000000000000000000000000000000000000008152600091600160a060020a0316906393a8022c90610a2590859060040161235c565b600060405180830381600087803b158015610a3f57600080fd5b505af1158015610a53573d6000803e3d6000fd5b505050506040513d6000823e601f3d908101601f1916820160405261052391908101906120e2565b8080600160a060020a0316600660019054906101000a9004600160a060020a0316600160a060020a0316638da5cb5b6040518163ffffffff167c0100000000000000000000000000000000000000000000000000000000028152600401602060405180830381600087803b158015610af257600080fd5b505af1158015610b06573d6000803e3d6000fd5b505050506040513d601f19601f82011682018060405250610b2a9190810190612025565b600160a060020a031614610b3d57600080fd5b50506004805473ffffffffffffffffffffffffffffffffffffffff1916600160a060020a0392909216919091179055565b8080600160a060020a0316600660019054906101000a9004600160a060020a0316600160a060020a0316638da5cb5b6040518163ffffffff167c0100000000000000000000000000000000000000000000000000000000028152600401602060405180830381600087803b158015610be557600080fd5b505af1158015610bf9573d6000803e3d6000fd5b505050506040513d601f19601f82011682018060405250610c1d9190810190612025565b600160a060020a031614610c3057600080fd5b50506006805460ff19166001179055565b60606000606080606080610c53611663565b6007546040517f11934703000000000000000000000000000000000000000000000000000000008152600160a060020a0390911690631193470390610c9c908b9060040161235c565b600060405180830381600087803b158015610cb657600080fd5b505af1158015610cca573d6000803e3d6000fd5b505050506040513d6000823e601f3d908101601f19168201604052610cf291908101906121bd565b8051602082015160408301516060840151608085015160a090950151939d929c50909a509850919650945092505050565b6007546040517fc6cc2885000000000000000000000000000000000000000000000000000000008152606091600160a060020a03169063c6cc288590610d6d90859060040161235c565b600060405180830381600087803b158015610d8757600080fd5b505af1158015610d9b573d6000803e3d6000fd5b505050506040513d6000823e601f3d908101601f1916820160405261052391908101906121f2565b60065460ff1681565b600454600160a060020a031681565b60056020526000908152604090205460ff1681565b60003380600160a060020a0316600660019054906101000a9004600160a060020a0316600160a060020a0316638da5cb5b6040518163ffffffff167c0100000000000000000000000000000000000000000000000000000000028152600401602060405180830381600087803b158015610e6957600080fd5b505af1158015610e7d573d6000803e3d6000fd5b505050506040513d601f19601f82011682018060405250610ea19190810190612025565b600160a060020a031614610eb457600080fd5b600860009054906101000a9004600160a060020a0316600160a060020a031663bff1f9e16040518163ffffffff167c0100000000000000000000000000000000000000000000000000000000028152600401602060405180830381600087803b158015610f2057600080fd5b505af1158015610f34573d6000803e3d6000fd5b505050506040513d601f19601f82011682018060405250610f589190810190612291565b91505090565b6007546040517ffcab41e3000000000000000000000000000000000000000000000000000000008152600091600160a060020a03169063fcab41e390610fa8908590600401612389565b602060405180830381600087803b158015610fc257600080fd5b505af1158015610fd6573d6000803e3d6000fd5b505050506040513d601f19601f82011682018060405250610ffa9190810190612025565b92915050565b6007546040517f4b075ba3000000000000000000000000000000000000000000000000000000008152606091829182916000918391600160a060020a031690634b075ba390611053908a9060040161235c565b600060405180830381600087803b15801561106d57600080fd5b505af1158015611081573d6000803e3d6000fd5b505050506040513d6000823e601f3d908101601f191682016040526110a99190810190612117565b905080868151811015156110b957fe5b602090810290910101515181518290889081106110d257fe5b906020019060200201516020015182888151811015156110ee57fe5b9060200190602002015160400151838981518110151561110a57fe5b602090810291909101015160600151929a91995097509095509350505050565b6007546040517f586a1f47000000000000000000000000000000000000000000000000000000008152606091829182918291829160009182918491600160a060020a039091169063586a1f4790611185908d9060040161235c565b600060405180830381600087803b15801561119f57600080fd5b505af11580156111b3573d6000803e3d6000fd5b505050506040513d6000823e601f3d908101601f191682016040526111db919081019061214c565b905080898151811015156111eb57fe5b6020908102909101015151815182908b90811061120457fe5b9060200190602002015160200151828b81518110151561122057fe5b9060200190602002015160400151838c81518110151561123c57fe5b9060200190602002015160600151848d81518110151561125857fe5b9060200190602002015160800151858e81518110151561127457fe5b9060200190602002015160a00151868f81518110151561129057fe5b6020908102909101015160c00151959d50939b5091995097509550935091505092959891949750929550565b6007546040517f4b075ba3000000000000000000000000000000000000000000000000000000008152600091600160a060020a031690634b075ba39061130690859060040161235c565b600060405180830381600087803b15801561132057600080fd5b505af1158015611334573d6000803e3d6000fd5b505050506040513d6000823e601f3d908101601f191682016040526105239190810190612117565b8080600160a060020a0316600660019054906101000a9004600160a060020a0316600160a060020a0316638da5cb5b6040518163ffffffff167c0100000000000000000000000000000000000000000000000000000000028152600401602060405180830381600087803b1580156113d357600080fd5b505af11580156113e7573d6000803e3d6000fd5b505050506040513d601f19601f8201168201806040525061140b9190810190612025565b600160a060020a03161461141e57600080fd5b5050600160a060020a03166000908152600560205260409020805460ff19169055565b6007546040517f066b2a1e000000000000000000000000000000000000000000000000000000008152606091600160a060020a03169063066b2a1e9061148b90859060040161235c565b600060405180830381600087803b1580156114a557600080fd5b505af11580156114b9573d6000803e3d6000fd5b505050506040513d6000823e601f3d908101601f191682016040526105239190810190612227565b6007546040517f158a5718000000000000000000000000000000000000000000000000000000008152600091600160a060020a03169063158a57189061152b908590600401612389565b602060405180830381600087803b15801561154557600080fd5b505af1158015611559573d6000803e3d6000fd5b505050506040513d601f19601f82011682018060405250610ffa9190810190612181565b6007546040517f099c34d9000000000000000000000000000000000000000000000000000000008152600091600160a060020a03169063099c34d9906115c790859060040161235c565b600060405180830381600087803b1580156115e157600080fd5b505af11580156115f5573d6000803e3d6000fd5b505050506040513d6000823e601f3d908101601f1916820160405261052391908101906120ad565b6101006040519081016040528060608152602001606081526020016060815260200160608152602001606081526020016060815260200160608152602001606081525090565b60c0604051908101604052806060815260200160008019168152602001606081526020016060815260200160608152602001606081525090565b60006116a982356126f7565b9392505050565b60006116a982516126f7565b6000601f820183136116cd57600080fd5b81516116e06116db826126a4565b61267d565b9150818183526020840193506020810190508385602084028201111561170557600080fd5b60005b83811015611731578161171b88826118c7565b8452506020928301929190910190600101611708565b5050505092915050565b6000601f8201831361174c57600080fd5b815161175a6116db826126a4565b81815260209384019390925082018360005b8381101561173157815186016117828882611a31565b845250602092830192919091019060010161176c565b6000601f820183136117a957600080fd5b81516117b76116db826126a4565b81815260209384019390925082018360005b8381101561173157815186016117df8882611b7f565b84525060209283019291909101906001016117c9565b6000601f8201831361180657600080fd5b81516118146116db826126a4565b81815260209384019390925082018360005b83811015611731578151860161183c8882611c62565b8452506020928301929190910190600101611826565b6000601f8201831361186357600080fd5b81516118716116db826126a4565b81815260209384019390925082018360005b8381101561173157815186016118998882611edc565b8452506020928301929190910190600101611883565b60006116a98251612703565b60006116a98235612708565b60006116a98251612708565b6000601f820183136118e457600080fd5b81516118f26116db826126c5565b9150808252602083016020830185838301111561190e57600080fd5b61191983828461270b565b50505092915050565b600060c0828403121561193457600080fd5b61193e60c061267d565b825190915067ffffffffffffffff81111561195857600080fd5b611964848285016118d3565b8252506020611975848483016118c7565b602083015250604082015167ffffffffffffffff81111561199557600080fd5b6119a1848285016118d3565b604083015250606082015167ffffffffffffffff8111156119c157600080fd5b6119cd848285016118d3565b606083015250608082015167ffffffffffffffff8111156119ed57600080fd5b6119f9848285016118d3565b60808301525060a082015167ffffffffffffffff811115611a1957600080fd5b611a25848285016118d3565b60a08301525092915050565b600060c08284031215611a4357600080fd5b611a4d60c061267d565b825190915067ffffffffffffffff811115611a6757600080fd5b611a73848285016118d3565b825250602082015167ffffffffffffffff811115611a9057600080fd5b611a9c848285016118d3565b602083015250604082015167ffffffffffffffff811115611abc57600080fd5b611ac8848285016118d3565b604083015250606082015167ffffffffffffffff811115611ae857600080fd5b611af4848285016118d3565b606083015250608082015167ffffffffffffffff811115611b1457600080fd5b611b20848285016118d3565b60808301525060a0611a25848285016118af565b600060208284031215611b4657600080fd5b611b50602061267d565b825190915067ffffffffffffffff811115611b6a57600080fd5b611b76848285016118d3565b82525092915050565b600060a08284031215611b9157600080fd5b611b9b60a061267d565b825190915067ffffffffffffffff811115611bb557600080fd5b611bc1848285016118d3565b825250602082015167ffffffffffffffff811115611bde57600080fd5b611bea848285016118d3565b602083015250604082015167ffffffffffffffff811115611c0a57600080fd5b611c16848285016118d3565b604083015250606082015167ffffffffffffffff811115611c3657600080fd5b611c42848285016118d3565b6060830152506080611c56848285016118af565b60808301525092915050565b600060808284031215611c7457600080fd5b611c7e608061267d565b825190915067ffffffffffffffff811115611c9857600080fd5b611ca4848285016118d3565b825250602082015167ffffffffffffffff811115611cc157600080fd5b611ccd848285016118d3565b602083015250604082015167ffffffffffffffff811115611ced57600080fd5b611cf9848285016118d3565b6040830152506060611d0d848285016118af565b60608301525092915050565b600060208284031215611d2b57600080fd5b611d35602061267d565b825190915067ffffffffffffffff811115611d4f57600080fd5b611b76848285016116bc565b60006101008284031215611d6e57600080fd5b611d7961010061267d565b825190915067ffffffffffffffff811115611d9357600080fd5b611d9f848285016118d3565b825250602082015167ffffffffffffffff811115611dbc57600080fd5b611dc8848285016118d3565b602083015250604082015167ffffffffffffffff811115611de857600080fd5b611df4848285016118d3565b604083015250606082015167ffffffffffffffff811115611e1457600080fd5b611e20848285016118d3565b606083015250608082015167ffffffffffffffff811115611e4057600080fd5b611e4c848285016118d3565b60808301525060a082015167ffffffffffffffff811115611e6c57600080fd5b611e78848285016118d3565b60a08301525060c082015167ffffffffffffffff811115611e9857600080fd5b611ea4848285016118d3565b60c08301525060e082015167ffffffffffffffff811115611ec457600080fd5b611ed0848285016118d3565b60e08301525092915050565b600060e08284031215611eee57600080fd5b611ef860e061267d565b825190915067ffffffffffffffff811115611f1257600080fd5b611f1e848285016118d3565b825250602082015167ffffffffffffffff811115611f3b57600080fd5b611f47848285016118d3565b602083015250604082015167ffffffffffffffff811115611f6757600080fd5b611f73848285016118d3565b604083015250606082015167ffffffffffffffff811115611f9357600080fd5b611f9f848285016118d3565b606083015250608082015167ffffffffffffffff811115611fbf57600080fd5b611fcb848285016118d3565b60808301525060a0611fdf848285016118af565b60a08301525060c0611ff3848285016118af565b60c08301525092915050565b60006020828403121561201157600080fd5b600061201d848461169d565b949350505050565b60006020828403121561203757600080fd5b600061201d84846116b0565b6000806040838503121561205657600080fd5b6000612062858561169d565b92505060206120738582860161169d565b9150509250929050565b6000806040838503121561209057600080fd5b600061209c858561169d565b9250506020612073858286016118bb565b6000602082840312156120bf57600080fd5b815167ffffffffffffffff8111156120d657600080fd5b61201d8482850161173b565b6000602082840312156120f457600080fd5b815167ffffffffffffffff81111561210b57600080fd5b61201d84828501611798565b60006020828403121561212957600080fd5b815167ffffffffffffffff81111561214057600080fd5b61201d848285016117f5565b60006020828403121561215e57600080fd5b815167ffffffffffffffff81111561217557600080fd5b61201d84828501611852565b60006020828403121561219357600080fd5b600061201d84846118af565b6000602082840312156121b157600080fd5b600061201d84846118bb565b6000602082840312156121cf57600080fd5b815167ffffffffffffffff8111156121e657600080fd5b61201d84828501611922565b60006020828403121561220457600080fd5b815167ffffffffffffffff81111561221b57600080fd5b61201d84828501611b34565b60006020828403121561223957600080fd5b815167ffffffffffffffff81111561225057600080fd5b61201d84828501611d19565b60006020828403121561226e57600080fd5b815167ffffffffffffffff81111561228557600080fd5b61201d84828501611d5b565b6000602082840312156122a357600080fd5b600061201d84846118c7565b6122b8816126f7565b82525050565b60006122c9826126f3565b8084526020840193506122db836126ed565b60005b8281101561230b576122f186835161231e565b6122fa826126ed565b6020969096019591506001016122de565b5093949350505050565b6122b881612703565b6122b881612708565b6000612332826126f3565b80845261234681602086016020860161270b565b61234f8161273b565b9093016020019392505050565b60208101610ffa82846122af565b602080825281016116a981846122be565b60208101610ffa8284612315565b60208101610ffa828461231e565b602080825281016116a98184612327565b60c080825281016123b98189612327565b90506123c8602083018861231e565b81810360408301526123da8187612327565b905081810360608301526123ee8186612327565b905081810360808301526124028185612327565b905081810360a08301526124168184612327565b98975050505050505050565b608080825281016124338187612327565b905081810360208301526124478186612327565b9050818103604083015261245b8185612327565b905061246a6060830184612315565b95945050505050565b60a080825281016124848188612327565b905081810360208301526124988187612327565b905081810360408301526124ac8186612327565b905081810360608301526124c08185612327565b90506124cf6080830184612315565b9695505050505050565b60c080825281016124ea8189612327565b905081810360208301526124fe8188612327565b905081810360408301526125128187612327565b905081810360608301526125268186612327565b9050818103608083015261253a8185612327565b905061254960a0830184612315565b979650505050505050565b60e08082528101612565818a612327565b905081810360208301526125798189612327565b9050818103604083015261258d8188612327565b905081810360608301526125a18187612327565b905081810360808301526125b58186612327565b90506125c460a0830185612315565b61241660c0830184612315565b61010080825281016125e3818b612327565b905081810360208301526125f7818a612327565b9050818103604083015261260b8189612327565b9050818103606083015261261f8188612327565b905081810360808301526126338187612327565b905081810360a08301526126478186612327565b905081810360c083015261265b8185612327565b905081810360e083015261266f8184612327565b9a9950505050505050505050565b60405181810167ffffffffffffffff8111828210171561269c57600080fd5b604052919050565b600067ffffffffffffffff8211156126bb57600080fd5b5060209081020190565b600067ffffffffffffffff8211156126dc57600080fd5b506020601f91909101601f19160190565b60200190565b5190565b600160a060020a031690565b151590565b90565b60005b8381101561272657818101518382015260200161270e565b83811115612735576000848401525b50505050565b601f01601f1916905600a265627a7a72305820a9bd360614d1b83f5ad23fc1003bcb4d3aab6a7cde7b02b5b7c5a7a84b4a1e3e6c6578706572696d656e74616cf50037",
  "source": "/**\r\n * This contract acts as a controller for front-end\r\n * requests. The DB file is separate incase, solidity adds\r\n * functionality to return structs. In that case, only\r\n * this contract needs to be redeployed and data migration\r\n * will not be needed as the data is stored in DB.sol\r\n * contract.\r\n */\r\npragma solidity ^0.4.24;\r\npragma experimental ABIEncoderV2; // experimental\r\n\r\n// imports\r\nimport \"./Blockvitae.sol\";\r\nimport \"./DBGetter.sol\";\r\nimport \"./DB.sol\";\r\n\r\ncontract BlockvitaeGetter is Blockvitae {\r\n\r\n\tBlockvitae private blockvitae;\r\n\r\n\tDBGetter private dbGetter;\r\n\r\n\tDB private db;\r\n\r\n\t// @Reference: \r\n\t// http://solidity.readthedocs.io/en/latest/contracts.html#arguments-for-base-constructors\r\n\tconstructor(DB _db, DBInsert _dbInsert, DBGetter _dbGetter, DBDelete _dbDelete, Blockvitae _blockvitae)\r\n\tBlockvitae(_db, _dbInsert, _dbGetter, _dbDelete) \r\n\tpublic {\r\n\t\t// set this contract as the owner of DB contract\r\n\t\t// to avoid any external calls to DB contract\r\n\t\t// All calls to DB contract should pass through this\r\n\t\t// contract\r\n\t\t_db.setOwner(address(this));\r\n\t\tdb = _db;\r\n\t\tdbGetter = _dbGetter;\r\n\t\tblockvitae = _blockvitae;\r\n\t}\r\n\r\n\t// check for the owner\r\n    modifier isOwner(address _sender) {\r\n        require(blockvitae.owner() == _sender);\r\n        _;\r\n    }\r\n\r\n\t// @description\r\n\t// gets count of total education added\r\n\t//\r\n\t// @param address _user\r\n\t// address of the user who's data is to be searched\r\n\t//\r\n\t// @return uint\r\n\t// count of the total education for the given user\r\n\tfunction getEducationCount(address _user)\r\n\tpublic\r\n\tview\r\n\treturns(uint) {\r\n\t\t\treturn dbGetter.findUserEducation(_user).length;\r\n\t}\r\n\r\n\t// @description\r\n\t// gets the user education with the given index for the given user\r\n\t//\r\n\t// @param address _user\r\n\t// address of the user who's education is to be searched\r\n\t//\r\n\t// @param uint _index\r\n\t// index of the education to be searched\r\n\t//\r\n\t// @return (string, string, string, string, string, bool)\r\n\t// organization, level, dateStart, dateEnd\r\n\t// and description of the education with given index\r\n\tfunction getUserEducation(address _user, uint _index)\r\n\tpublic\r\n\tview\r\n\treturns(string, string, string, string, string, bool) {\r\n\t\t\tUser.UserEducation[] memory education = dbGetter.findUserEducation(_user);\r\n\r\n\t\t\treturn (education[_index].organization, education[_index].level, \r\n\t\t\teducation[_index].dateStart, education[_index].dateEnd, \r\n\t\t\teducation[_index].description, education[_index].isDeleted);\r\n\t}\r\n\r\n\t// @description\r\n\t// gets count of total publications added\r\n\t//\r\n\t// @param address _user\r\n\t// address of the user who's data is to be searched\r\n\t//\r\n\t// @return uint\r\n\t// count of the total publication for the given user\r\n\tfunction getPublicationCount(address _user)\r\n\tpublic\r\n\tview\r\n\treturns(uint) {\r\n\t\t\treturn dbGetter.findUserPublication(_user).length;\r\n\t}\r\n\r\n\t// @description\r\n\t// gets the user publication with the given index for the given user\r\n\t//\r\n\t// @param address _user\r\n\t// address of the user who's publication is to be searched\r\n\t//\r\n\t// @param uint _index\r\n\t// index of the publication to be searched\r\n\t//\r\n\t// @return (string, string, string, bool)\r\n\t// title, url, description & isDeleted of the publication with given index\r\n\tfunction getUserPublication(address _user, uint _index)\r\n\tpublic\r\n\tview\r\n\treturns(string, string, string, bool) {\r\n\t\t\tUser.UserPublication[] memory publication = dbGetter.findUserPublication(_user);\r\n\r\n\t\t\treturn (publication[_index].title, publication[_index].url,\r\n\t\t\tpublication[_index].description, publication[_index].isDeleted);\r\n\t}\r\n\r\n\t// @description\r\n\t// gets the array of skills of the user\r\n\t//\r\n\t// @param address _user\r\n\t// address of the user who's data is to be searched\r\n\t//\r\n\t// @return bytes32[]\r\n\t// array of skills of the user with given address\r\n\tfunction getUserSkills(address _user) public view returns(bytes32[]) {\r\n\t\t\treturn dbGetter.findUserSkill(_user).skills;\r\n\t}\r\n\r\n\t// @description\r\n\t// gets the string of introduction of the user\r\n\t//\r\n\t// @param address _user\r\n\t// address of the user who's data is to be searched\r\n\t//\r\n\t// @return string\r\n\t// introduction of the user with given address\r\n\tfunction getUserIntroduction(address _user) public view returns(string) {\r\n\t\t\treturn dbGetter.findUserIntroduction(_user).introduction;\r\n\t}\r\n\r\n\t// @description\r\n\t// Solidity doesn't allow to return array of strings\r\n\t// Therefore, get count of projects first and\r\n\t// then get each project one at a time from front end\r\n\t//\r\n\t// @param address _user\r\n\t// address of the user who's data is to be searched\r\n\t//\r\n\t// @return uint\r\n\t// count of the total projects for the given user\r\n\tfunction getProjectCount(address _user) \r\n\tpublic \r\n\tview \r\n\treturns(uint) {\r\n\t\t\treturn dbGetter.findUserProject(_user).length;\r\n\t}\r\n\r\n\t// @description\r\n\t// gets the user project with the given index for the given user\r\n\t//\r\n\t// @param address _user\r\n\t// address of the user who's projects are to be searched\r\n\t//\r\n\t// @param uint _index\r\n\t// index of the project to be searched\r\n\t//\r\n\t// @return (string, string, string, string, bool)\r\n\t// name, short description, description and url of the project with given index\r\n\tfunction getUserProject(address _user, uint _index)\r\n\tpublic\r\n\tview\r\n\treturns(string, string, string, string, bool) {\r\n\t\t\tUser.UserProject[] memory projects = dbGetter.findUserProject(_user);\r\n\t\r\n\t\t\treturn (projects[_index].name, projects[_index].shortDescription, \r\n\t\t\tprojects[_index].description, projects[_index].url,\r\n\t\t\tprojects[_index].isDeleted);\r\n\t}\r\n\r\n\t// @description\r\n\t// gets count of total work experiences added\r\n\t//\r\n\t// @param address _user\r\n\t// address of the user who's data is to be searched\r\n\t//\r\n\t// @return uint\r\n\t// count of the total work exp for the given user\r\n\tfunction getWorkExpCount(address _user) \r\n\tpublic \r\n\tview \r\n\treturns(uint) {\r\n\t\t\treturn dbGetter.findUserWorkExp(_user).length;\r\n\t}\r\n\r\n\t// @description\r\n\t// gets the user work exp with the given index for the given user\r\n\t//\r\n\t// @param address _user\r\n\t// address of the user who's work exp are to be searched\r\n\t//\r\n\t// @param uint _index\r\n\t// index of the work exp to be searched\r\n\t//\r\n\t// @return (string, string, string, string, string, bool, bool)\r\n\t// company, position, dateStart, dateEnd\r\n\t// and description of the work exp with given index\r\n\tfunction getUserWorkExp(address _user, uint _index)\r\n\tpublic\r\n\tview\r\n\treturns(string, string, string, string, string, bool, bool) {\r\n\t\t\tUser.UserWorkExp[] memory work = dbGetter.findUserWorkExp(_user);\r\n\t\r\n\t\t\treturn (work[_index].company, work[_index].position, work[_index].dateStart, \r\n\t\t\twork[_index].dateEnd, work[_index].description, \r\n\t\t\twork[_index].isWorking, work[_index].isDeleted);\r\n\t}\r\n\r\n\t// @description \r\n\t// returns UserDetail struct values\r\n\t// for the given address if user exists\r\n\t//\r\n\t// @param address _user \r\n\t// address of the user for which UserDetail is \r\n\t// to be searched\r\n\t//\r\n\t// @return (string, bytes32, string, string, string, string)\r\n\t// array of strings containing values of \r\n\t// UserDetail struct in the respective order\r\n\tfunction getUserDetail(address _user)  \r\n\tpublic \r\n\tview\r\n\treturns(string, bytes32, string, string, string, string) \r\n\t{\r\n\t\t\t// find the user details\r\n\t\t\tUser.UserDetail memory personal = dbGetter.findUserDetail(_user);\r\n\t\t\t// return\r\n\t\t\treturn (personal.fullName, personal.userName, personal.imgUrl, \r\n\t\t\tpersonal.email, personal.location, personal.description);\r\n\t}\r\n\r\n\t// @description \r\n\t// returns UserSocial struct values\r\n\t// for the given address if user exists\r\n\t//\r\n\t// @param address _user \r\n\t// address of the user for which UserSocial is \r\n\t// to be searched\r\n\t//\r\n\t// @return (string, string, string, string, string, string, string, string)\r\n\t// array of strings containing values of \r\n\t// UserSocial struct in the respective order\r\n\tfunction getUserSocial(address _user)  \r\n\tpublic \r\n\tview\r\n\treturns(string, string, string, string, string, string, string, string) \r\n\t{\r\n\t\t\t// find the user details\r\n\t\t\tUser.UserSocial memory social = dbGetter.findUserSocial(_user);\r\n\r\n\t\t\t// return\r\n\t\t\treturn (social.websiteUrl, social.twitterUrl, social.fbUrl, social.githubUrl, social.dribbbleUrl, \r\n\t\t\t\t\tsocial.linkedInUrl, social.behanceUrl, social.mediumUrl);\r\n\t}\r\n\r\n\t// @description\r\n\t// finds the address the given userName\r\n\t//\r\n\t// @param string _userName\r\n\t// userName of the user who's address is to be searched\r\n\t//\r\n\t// @return address\r\n\t// address of the user with given userName\r\n\tfunction getAddrForUserName(bytes32 _userName)\r\n\tpublic\r\n\tview\r\n\treturns(address) \r\n\t{\r\n\t\t\treturn dbGetter.findAddrForUserName(_userName);\r\n\t}\r\n\r\n\t// @description\r\n\t// Checks if the given username is available or taken\r\n\t//\r\n\t// @param string _userName\r\n\t// username to be checked\r\n\t//\r\n\t// @return bool\r\n\t// true if username is available else false\r\n\tfunction isUsernameAvailable(bytes32 _userName)\r\n\tpublic\r\n\tview\r\n\treturns(bool)\r\n\t{\r\n\t\t\treturn dbGetter.usernameExists(_userName);\r\n\t}\r\n\r\n\t// @description\r\n\t// gets the total number of users registered so far\r\n\t//\r\n\t// @return uint\r\n\t// count of users registered so far\r\n\tfunction getTotalUsers() public view isOwner(msg.sender) returns(uint) {\r\n\t\t\treturn db.totalUsers();\r\n\t}\r\n}",
  "sourcePath": "E:\\GitHub\\Blockchain\\Blockvitae\\blockvitae-ethereum\\contracts\\BlockvitaeGetter.sol",
  "compiler": {
    "name": "solc",
    "version": "0.4.24+commit.e67f0147.Emscripten.clang"
  },
  "schemaVersion": "2.0.0",
  "updatedAt": "2018-08-03T15:13:24.923Z"
}