{
  "contractName": "Blockvitae",
  "abi": [
    {
      "constant": true,
      "inputs": [],
      "name": "owner",
      "outputs": [
        {
          "name": "",
          "type": "address"
        }
      ],
      "payable": false,
      "stateMutability": "view",
      "type": "function"
    },
    {
      "inputs": [
        {
          "name": "_dbContract",
          "type": "address"
        }
      ],
      "payable": false,
      "stateMutability": "nonpayable",
      "type": "constructor"
    },
    {
      "constant": false,
      "inputs": [
        {
          "name": "_owner",
          "type": "address"
        }
      ],
      "name": "setOwner",
      "outputs": [],
      "payable": false,
      "stateMutability": "nonpayable",
      "type": "function"
    },
    {
      "constant": false,
      "inputs": [
        {
          "name": "_fullName",
          "type": "string"
        },
        {
          "name": "_userName",
          "type": "string"
        },
        {
          "name": "_imgUrl",
          "type": "string"
        },
        {
          "name": "_email",
          "type": "string"
        },
        {
          "name": "_location",
          "type": "string"
        }
      ],
      "name": "createUserDetail",
      "outputs": [],
      "payable": false,
      "stateMutability": "nonpayable",
      "type": "function"
    },
    {
      "constant": false,
      "inputs": [
        {
          "name": "_websiteUrl",
          "type": "string"
        },
        {
          "name": "_twitterUrl",
          "type": "string"
        },
        {
          "name": "_fbUrl",
          "type": "string"
        },
        {
          "name": "_githubUrl",
          "type": "string"
        },
        {
          "name": "_dribbbleUrl",
          "type": "string"
        },
        {
          "name": "_linkedInUrl",
          "type": "string"
        },
        {
          "name": "_behanceUrl",
          "type": "string"
        },
        {
          "name": "_mediumUrl",
          "type": "string"
        }
      ],
      "name": "createUserSocial",
      "outputs": [],
      "payable": false,
      "stateMutability": "nonpayable",
      "type": "function"
    },
    {
      "constant": false,
      "inputs": [
        {
          "name": "_name",
          "type": "string"
        },
        {
          "name": "_shortDescription",
          "type": "string"
        },
        {
          "name": "_description",
          "type": "string"
        },
        {
          "name": "_url",
          "type": "string"
        }
      ],
      "name": "createUserProject",
      "outputs": [],
      "payable": false,
      "stateMutability": "nonpayable",
      "type": "function"
    },
    {
      "constant": false,
      "inputs": [
        {
          "name": "_company",
          "type": "string"
        },
        {
          "name": "_position",
          "type": "string"
        },
        {
          "name": "_dateStart",
          "type": "string"
        },
        {
          "name": "_dateEnd",
          "type": "string"
        },
        {
          "name": "_description",
          "type": "string"
        },
        {
          "name": "_isWorking",
          "type": "bool"
        }
      ],
      "name": "createUserWorkExp",
      "outputs": [],
      "payable": false,
      "stateMutability": "nonpayable",
      "type": "function"
    },
    {
      "constant": false,
      "inputs": [
        {
          "name": "_skills",
          "type": "bytes32[]"
        }
      ],
      "name": "createUserSkill",
      "outputs": [],
      "payable": false,
      "stateMutability": "nonpayable",
      "type": "function"
    },
    {
      "constant": false,
      "inputs": [
        {
          "name": "_introduction",
          "type": "string"
        }
      ],
      "name": "createUserIntroduction",
      "outputs": [],
      "payable": false,
      "stateMutability": "nonpayable",
      "type": "function"
    },
    {
      "constant": false,
      "inputs": [
        {
          "name": "_organization",
          "type": "string"
        },
        {
          "name": "_level",
          "type": "string"
        },
        {
          "name": "_dateStart",
          "type": "string"
        },
        {
          "name": "_dateEnd",
          "type": "string"
        },
        {
          "name": "_description",
          "type": "string"
        }
      ],
      "name": "createUserEducation",
      "outputs": [],
      "payable": false,
      "stateMutability": "nonpayable",
      "type": "function"
    },
    {
      "constant": true,
      "inputs": [
        {
          "name": "_user",
          "type": "address"
        }
      ],
      "name": "getEducationCount",
      "outputs": [
        {
          "name": "",
          "type": "uint256"
        }
      ],
      "payable": false,
      "stateMutability": "view",
      "type": "function"
    },
    {
      "constant": true,
      "inputs": [
        {
          "name": "_user",
          "type": "address"
        },
        {
          "name": "index",
          "type": "uint256"
        }
      ],
      "name": "getUserEducation",
      "outputs": [
        {
          "name": "",
          "type": "string"
        },
        {
          "name": "",
          "type": "string"
        },
        {
          "name": "",
          "type": "string"
        },
        {
          "name": "",
          "type": "string"
        },
        {
          "name": "",
          "type": "string"
        }
      ],
      "payable": false,
      "stateMutability": "view",
      "type": "function"
    },
    {
      "constant": true,
      "inputs": [
        {
          "name": "_user",
          "type": "address"
        }
      ],
      "name": "getUserSkills",
      "outputs": [
        {
          "name": "",
          "type": "bytes32[]"
        }
      ],
      "payable": false,
      "stateMutability": "view",
      "type": "function"
    },
    {
      "constant": true,
      "inputs": [
        {
          "name": "_user",
          "type": "address"
        }
      ],
      "name": "getUserIntroduction",
      "outputs": [
        {
          "name": "",
          "type": "string"
        }
      ],
      "payable": false,
      "stateMutability": "view",
      "type": "function"
    },
    {
      "constant": true,
      "inputs": [
        {
          "name": "_user",
          "type": "address"
        }
      ],
      "name": "getProjectCount",
      "outputs": [
        {
          "name": "",
          "type": "uint256"
        }
      ],
      "payable": false,
      "stateMutability": "view",
      "type": "function"
    },
    {
      "constant": true,
      "inputs": [
        {
          "name": "_user",
          "type": "address"
        },
        {
          "name": "index",
          "type": "uint256"
        }
      ],
      "name": "getUserProject",
      "outputs": [
        {
          "name": "",
          "type": "string"
        },
        {
          "name": "",
          "type": "string"
        },
        {
          "name": "",
          "type": "string"
        },
        {
          "name": "",
          "type": "string"
        }
      ],
      "payable": false,
      "stateMutability": "view",
      "type": "function"
    },
    {
      "constant": true,
      "inputs": [
        {
          "name": "_user",
          "type": "address"
        }
      ],
      "name": "getWorkExpCount",
      "outputs": [
        {
          "name": "",
          "type": "uint256"
        }
      ],
      "payable": false,
      "stateMutability": "view",
      "type": "function"
    },
    {
      "constant": true,
      "inputs": [
        {
          "name": "_user",
          "type": "address"
        },
        {
          "name": "index",
          "type": "uint256"
        }
      ],
      "name": "getUserWorkExp",
      "outputs": [
        {
          "name": "",
          "type": "string"
        },
        {
          "name": "",
          "type": "string"
        },
        {
          "name": "",
          "type": "string"
        },
        {
          "name": "",
          "type": "string"
        },
        {
          "name": "",
          "type": "string"
        },
        {
          "name": "",
          "type": "bool"
        }
      ],
      "payable": false,
      "stateMutability": "view",
      "type": "function"
    },
    {
      "constant": true,
      "inputs": [
        {
          "name": "_user",
          "type": "address"
        }
      ],
      "name": "getUserDetail",
      "outputs": [
        {
          "name": "",
          "type": "string"
        },
        {
          "name": "",
          "type": "string"
        },
        {
          "name": "",
          "type": "string"
        },
        {
          "name": "",
          "type": "string"
        },
        {
          "name": "",
          "type": "string"
        }
      ],
      "payable": false,
      "stateMutability": "view",
      "type": "function"
    },
    {
      "constant": true,
      "inputs": [
        {
          "name": "_user",
          "type": "address"
        }
      ],
      "name": "getUserSocial",
      "outputs": [
        {
          "name": "",
          "type": "string"
        },
        {
          "name": "",
          "type": "string"
        },
        {
          "name": "",
          "type": "string"
        },
        {
          "name": "",
          "type": "string"
        },
        {
          "name": "",
          "type": "string"
        },
        {
          "name": "",
          "type": "string"
        },
        {
          "name": "",
          "type": "string"
        },
        {
          "name": "",
          "type": "string"
        }
      ],
      "payable": false,
      "stateMutability": "view",
      "type": "function"
    },
    {
      "constant": true,
      "inputs": [
        {
          "name": "_userName",
          "type": "string"
        }
      ],
      "name": "getAddrForUserName",
      "outputs": [
        {
          "name": "",
          "type": "address"
        }
      ],
      "payable": false,
      "stateMutability": "view",
      "type": "function"
    },
    {
      "constant": true,
      "inputs": [
        {
          "name": "_userName",
          "type": "string"
        }
      ],
      "name": "isUsernameAvailable",
      "outputs": [
        {
          "name": "",
          "type": "bool"
        }
      ],
      "payable": false,
      "stateMutability": "view",
      "type": "function"
    }
  ],
  "bytecode": "0x60806040523480156200001157600080fd5b50604051602080620032188339810180604052620000339190810190620000ee565b60008054600160a060020a03808416600160a060020a031992831617928390556001805490921633179091556040517f13af40350000000000000000000000000000000000000000000000000000000081529116906313af4035906200009e90309060040162000128565b600060405180830381600087803b158015620000b957600080fd5b505af1158015620000ce573d6000803e3d6000fd5b505050505062000157565b6000620000e782516200014a565b9392505050565b6000602082840312156200010157600080fd5b60006200010f8484620000d9565b949350505050565b62000122816200013e565b82525050565b6020810162000138828462000117565b92915050565b600160a060020a031690565b600062000138826200013e565b6130b180620001676000396000f30060806040526004361061011c5763ffffffff7c01000000000000000000000000000000000000000000000000000000006000350416630168fe818114610121578063038b1f921461015757806306602d82146101885780630e586670146101bc57806313af4035146101ec578063147f3af91461020e5780631a0a4d4c1461022e5780632251f8b11461024e57806338aebc101461026e57806342ce594a1461028e5780634a48c84b146102ae5780634cb4b73f146102ce578063770685ac146102fb5780638da5cb5b146103285780638fb9d2511461033d578063b6d9226b1461035d578063cc7ad47e1461038f578063d2886ebc146103af578063ea9db6ff146103dc578063f4b17291146103fc578063f69c6dec1461041c575b600080fd5b34801561012d57600080fd5b5061014161013c3660046122ec565b610449565b60405161014e9190612f95565b60405180910390f35b34801561016357600080fd5b50610177610172366004612330565b6104f0565b60405161014e959493929190612d98565b34801561019457600080fd5b506101a86101a33660046122ec565b61063c565b60405161014e989796959493929190612e74565b3480156101c857600080fd5b506101dc6101d7366004612330565b61074d565b60405161014e9493929190612d41565b3480156101f857600080fd5b5061020c6102073660046122ec565b610876565b005b34801561021a57600080fd5b5061020c61022936600461273b565b6108bc565b34801561023a57600080fd5b506101416102493660046122ec565b610a05565b34801561025a57600080fd5b5061020c610269366004612551565b610aa5565b34801561027a57600080fd5b5061020c610289366004612491565b610be8565b34801561029a57600080fd5b5061020c6102a936600461236a565b610d29565b3480156102ba57600080fd5b506101776102c93660046122ec565b610e64565b3480156102da57600080fd5b506102ee6102e93660046122ec565b610f3c565b60405161014e9190612d30565b34801561030757600080fd5b5061031b61031636600461245c565b610fdc565b60405161014e9190612d03565b34801561033457600080fd5b5061031b61107e565b34801561034957600080fd5b5061020c610358366004612551565b61108d565b34801561036957600080fd5b5061037d610378366004612330565b6110b7565b60405161014e96959493929190612e04565b34801561039b57600080fd5b5061020c6103aa36600461263d565b611222565b3480156103bb57600080fd5b506103cf6103ca3660046122ec565b611367565b60405161014e9190612d11565b3480156103e857600080fd5b5061020c6103f736600461245c565b611407565b34801561040857600080fd5b506101416104173660046122ec565b61150d565b34801561042857600080fd5b5061043c61043736600461245c565b6115ad565b60405161014e9190612d22565b600080546040517f586a1f47000000000000000000000000000000000000000000000000000000008152600160a060020a039091169063586a1f4790610493908590600401612d03565b600060405180830381600087803b1580156104ad57600080fd5b505af11580156104c1573d6000803e3d6000fd5b505050506040513d6000823e601f3d908101601f191682016040526104e99190810190612409565b5192915050565b6000546040517f099c34d900000000000000000000000000000000000000000000000000000000815260609182918291829182918291600160a060020a039091169063099c34d990610546908b90600401612d03565b600060405180830381600087803b15801561056057600080fd5b505af1158015610574573d6000803e3d6000fd5b505050506040513d6000823e601f3d908101601f1916820160405261059c919081019061239f565b905080878151811015156105ac57fe5b602090810290910101515181518290899081106105c557fe5b906020019060200201516020015182898151811015156105e157fe5b9060200190602002015160400151838a8151811015156105fd57fe5b9060200190602002015160600151848b81518110151561061957fe5b602090810291909101015160800151939c929b5090995097509095509350505050565b606080606080606080606080610650611a31565b6000546040517fe9411881000000000000000000000000000000000000000000000000000000008152600160a060020a039091169063e941188190610699908d90600401612d03565b600060405180830381600087803b1580156106b357600080fd5b505af11580156106c7573d6000803e3d6000fd5b505050506040513d6000823e601f3d908101601f191682016040526106ef9190810190612949565b9050806000015181602001518260400151836060015184608001518560a001518660c001518760e001518797508696508595508494508393508292508191508090509850985098509850985098509850985050919395975091939597565b6000546040517f93a8022c0000000000000000000000000000000000000000000000000000000081526060918291829182918291600160a060020a0316906393a8022c9061079f908a90600401612d03565b600060405180830381600087803b1580156107b957600080fd5b505af11580156107cd573d6000803e3d6000fd5b505050506040513d6000823e601f3d908101601f191682016040526107f591908101906123d4565b9050808681518110151561080557fe5b6020908102909101015151815182908890811061081e57fe5b9060200190602002015160200151828881518110151561083a57fe5b9060200190602002015160400151838981518110151561085657fe5b602090810291909101015160600151929a91995097509095509350505050565b600154600160a060020a0316331461088d57600080fd5b6001805473ffffffffffffffffffffffffffffffffffffffff1916600160a060020a0392909216919091179055565b3315156108c857600080fd5b6000546040517fe0d4f1c3000000000000000000000000000000000000000000000000000000008152600160a060020a039091169063e0d4f1c390610911903390600401612d03565b602060405180830381600087803b15801561092b57600080fd5b505af115801561093f573d6000803e3d6000fd5b505050506040513d601f19601f82011682018060405250610963919081019061243e565b151561096e57600080fd5b600054600160a060020a03166302630c1f61098f8a8a8a8a8a8a8a8a611649565b336040518363ffffffff167c01000000000000000000000000000000000000000000000000000000000281526004016109c9929190612f73565b600060405180830381600087803b1580156109e357600080fd5b505af11580156109f7573d6000803e3d6000fd5b505050505050505050505050565b600080546040517f93a8022c000000000000000000000000000000000000000000000000000000008152600160a060020a03909116906393a8022c90610a4f908590600401612d03565b600060405180830381600087803b158015610a6957600080fd5b505af1158015610a7d573d6000803e3d6000fd5b505050506040513d6000823e601f3d908101601f191682016040526104e991908101906123d4565b331515610ab157600080fd5b6000546040517fe0d4f1c3000000000000000000000000000000000000000000000000000000008152600160a060020a039091169063e0d4f1c390610afa903390600401612d03565b602060405180830381600087803b158015610b1457600080fd5b505af1158015610b28573d6000803e3d6000fd5b505050506040513d601f19601f82011682018060405250610b4c919081019061243e565b1515610b5757600080fd5b600054600160a060020a03166321d6eb07610b75878787878761177b565b336040518363ffffffff167c0100000000000000000000000000000000000000000000000000000000028152600401610baf929190612f20565b600060405180830381600087803b158015610bc957600080fd5b505af1158015610bdd573d6000803e3d6000fd5b505050505050505050565b331515610bf457600080fd5b6000546040517fe0d4f1c3000000000000000000000000000000000000000000000000000000008152600160a060020a039091169063e0d4f1c390610c3d903390600401612d03565b602060405180830381600087803b158015610c5757600080fd5b505af1158015610c6b573d6000803e3d6000fd5b505050506040513d601f19601f82011682018060405250610c8f919081019061243e565b1515610c9a57600080fd5b600054600160a060020a031663152cce6b610cb78686868661184f565b336040518363ffffffff167c0100000000000000000000000000000000000000000000000000000000028152600401610cf1929190612f51565b600060405180830381600087803b158015610d0b57600080fd5b505af1158015610d1f573d6000803e3d6000fd5b5050505050505050565b331515610d3557600080fd5b6000546040517fe0d4f1c3000000000000000000000000000000000000000000000000000000008152600160a060020a039091169063e0d4f1c390610d7e903390600401612d03565b602060405180830381600087803b158015610d9857600080fd5b505af1158015610dac573d6000803e3d6000fd5b505050506040513d601f19601f82011682018060405250610dd0919081019061243e565b1515610ddb57600080fd5b600054600160a060020a0316631a57db1f610df5836118ff565b336040518363ffffffff167c0100000000000000000000000000000000000000000000000000000000028152600401610e2f929190612f62565b600060405180830381600087803b158015610e4957600080fd5b505af1158015610e5d573d6000803e3d6000fd5b5050505050565b6060806060806060610e74611a77565b6000546040517f11934703000000000000000000000000000000000000000000000000000000008152600160a060020a0390911690631193470390610ebd908a90600401612d03565b600060405180830381600087803b158015610ed757600080fd5b505af1158015610eeb573d6000803e3d6000fd5b505050506040513d6000823e601f3d908101601f19168201604052610f1391908101906128aa565b8051602082015160408301516060840151608090940151929b919a509850919650945092505050565b6000546040517fc6cc2885000000000000000000000000000000000000000000000000000000008152606091600160a060020a03169063c6cc288590610f86908590600401612d03565b600060405180830381600087803b158015610fa057600080fd5b505af1158015610fb4573d6000803e3d6000fd5b505050506040513d6000823e601f3d908101601f191682016040526104e991908101906128df565b600080546040517fd9148419000000000000000000000000000000000000000000000000000000008152600160a060020a039091169063d914841990611026908590600401612d30565b602060405180830381600087803b15801561104057600080fd5b505af1158015611054573d6000803e3d6000fd5b505050506040513d601f19601f820116820180604052506110789190810190612312565b92915050565b600154600160a060020a031681565b33151561109957600080fd5b600054600160a060020a031663a44a03ac610b758787878787611916565b600080546040517f586a1f47000000000000000000000000000000000000000000000000000000008152606092839283928392839290918391600160a060020a03169063586a1f479061110e908c90600401612d03565b600060405180830381600087803b15801561112857600080fd5b505af115801561113c573d6000803e3d6000fd5b505050506040513d6000823e601f3d908101601f191682016040526111649190810190612409565b9050808881518110151561117457fe5b6020908102909101015151815182908a90811061118d57fe5b9060200190602002015160200151828a8151811015156111a957fe5b9060200190602002015160400151838b8151811015156111c557fe5b9060200190602002015160600151848c8151811015156111e157fe5b9060200190602002015160800151858d8151811015156111fd57fe5b602090810291909101015160a00151949e939d50919b50995097509095509350505050565b33151561122e57600080fd5b6000546040517fe0d4f1c3000000000000000000000000000000000000000000000000000000008152600160a060020a039091169063e0d4f1c390611277903390600401612d03565b602060405180830381600087803b15801561129157600080fd5b505af11580156112a5573d6000803e3d6000fd5b505050506040513d601f19601f820116820180604052506112c9919081019061243e565b15156112d457600080fd5b600054600160a060020a031663d49fb2376112f3888888888888611947565b336040518363ffffffff167c010000000000000000000000000000000000000000000000000000000002815260040161132d929190612f84565b600060405180830381600087803b15801561134757600080fd5b505af115801561135b573d6000803e3d6000fd5b50505050505050505050565b6000546040517f066b2a1e000000000000000000000000000000000000000000000000000000008152606091600160a060020a03169063066b2a1e906113b1908590600401612d03565b600060405180830381600087803b1580156113cb57600080fd5b505af11580156113df573d6000803e3d6000fd5b505050506040513d6000823e601f3d908101601f191682016040526104e99190810190612914565b33151561141357600080fd5b6000546040517fe0d4f1c3000000000000000000000000000000000000000000000000000000008152600160a060020a039091169063e0d4f1c39061145c903390600401612d03565b602060405180830381600087803b15801561147657600080fd5b505af115801561148a573d6000803e3d6000fd5b505050506040513d601f19601f820116820180604052506114ae919081019061243e565b15156114b957600080fd5b600054600160a060020a031663d3e26ee76114d3836118ff565b336040518363ffffffff167c0100000000000000000000000000000000000000000000000000000000028152600401610e2f929190612f40565b600080546040517f099c34d9000000000000000000000000000000000000000000000000000000008152600160a060020a039091169063099c34d990611557908590600401612d03565b600060405180830381600087803b15801561157157600080fd5b505af1158015611585573d6000803e3d6000fd5b505050506040513d6000823e601f3d908101601f191682016040526104e9919081019061239f565b600080546040517ff309e3f9000000000000000000000000000000000000000000000000000000008152600160a060020a039091169063f309e3f9906115f7908590600401612d30565b602060405180830381600087803b15801561161157600080fd5b505af1158015611625573d6000803e3d6000fd5b505050506040513d601f19601f82011682018060405250611078919081019061243e565b611651611a31565b611659611a31565b8851151561167557604080516020810190915260008152611677565b885b6020820152895115156116985760408051602081019091526000815261169a565b895b8152875115156116b8576040805160208101909152600081526116ba565b875b6040820152865115156116db576040805160208101909152600081526116dd565b865b6060820152855115156116fe57604080516020810190915260008152611700565b855b60808201528451151561172157604080516020810190915260008152611723565b845b60a08201528351151561174457604080516020810190915260008152611746565b835b60c08201528251151561176757604080516020810190915260008152611769565b825b60e08201529998505050505050505050565b611783611a77565b61178b611a77565b865160001061179957600080fd5b865115156117b5576040805160208101909152600081526117b7565b865b8152855115156117d5576040805160208101909152600081526117d7565b855b6020820152845115156117f8576040805160208101909152600081526117fa565b845b60408201528351151561181b5760408051602081019091526000815261181d565b835b60608201528251151561183e57604080516020810190915260008152611840565b825b60808201529695505050505050565b611857611aa7565b61185f611aa7565b855160001061186d57600080fd5b835115156118895760408051602081019091526000815261188b565b835b6040820152845115156118ac576040805160208101909152600081526118ae565b845b6020820152855115156118cf576040805160208101909152600081526118d1565b855b8152825115156118ef576040805160208101909152600081526118f1565b825b606082015295945050505050565b611907611ad0565b61190f611ad0565b9182525090565b61191e611a77565b611926611a77565b95865250602085019390935260408401919091526060830152608082015290565b61194f611ae2565b611957611ae2565b875160001061196557600080fd5b8751151561198157604080516020810190915260008152611983565b875b8152865115156119a1576040805160208101909152600081526119a3565b865b6020820152855115156119c4576040805160208101909152600081526119c6565b855b6040820152845115156119e7576040805160208101909152600081526119e9565b845b606082015283511515611a0a57604080516020810190915260008152611a0c565b835b608082015282611a1d576000611a1f565b825b151560a0820152979650505050505050565b6101006040519081016040528060608152602001606081526020016060815260200160608152602001606081526020016060815260200160608152602001606081525090565b60a06040519081016040528060608152602001606081526020016060815260200160608152602001606081525090565b608060405190810160405280606081526020016060815260200160608152602001606081525090565b60408051602081019091526060815290565b60c06040519081016040528060608152602001606081526020016060815260200160608152602001606081526020016000151581525090565b6000611b27823561301d565b9392505050565b6000611b27825161301d565b6000601f82018313611b4b57600080fd5b8151611b5e611b5982612fca565b612fa3565b91508181835260208401935060208101905083856020840282011115611b8357600080fd5b60005b83811015611baf5781611b998882611d64565b8452506020928301929190910190600101611b86565b5050505092915050565b6000601f82018313611bca57600080fd5b8135611bd8611b5982612fca565b91508181835260208401935060208101905083856020840282011115611bfd57600080fd5b60005b83811015611baf5781611c138882611d58565b8452506020928301929190910190600101611c00565b6000601f82018313611c3a57600080fd5b8151611c48611b5982612fca565b81815260209384019390925082018360005b83811015611baf5781518601611c708882611e05565b8452506020928301929190910190600101611c5a565b6000601f82018313611c9757600080fd5b8151611ca5611b5982612fca565b81815260209384019390925082018360005b83811015611baf5781518601611ccd8882611f4b565b8452506020928301929190910190600101611cb7565b6000601f82018313611cf457600080fd5b8151611d02611b5982612fca565b81815260209384019390925082018360005b83811015611baf5781518601611d2a88826121dd565b8452506020928301929190910190600101611d14565b6000611b278235613029565b6000611b278251613029565b6000611b27823561302e565b6000611b27825161302e565b6000601f82018313611d8157600080fd5b8151611d8f611b5982612feb565b91508082526020830160208301858383011115611dab57600080fd5b611db683828461303d565b50505092915050565b6000601f82018313611dd057600080fd5b8135611dde611b5982612feb565b91508082526020830160208301858383011115611dfa57600080fd5b611db6838284613031565b600060a08284031215611e1757600080fd5b611e2160a0612fa3565b825190915067ffffffffffffffff811115611e3b57600080fd5b611e4784828501611d70565b825250602082015167ffffffffffffffff811115611e6457600080fd5b611e7084828501611d70565b602083015250604082015167ffffffffffffffff811115611e9057600080fd5b611e9c84828501611d70565b604083015250606082015167ffffffffffffffff811115611ebc57600080fd5b611ec884828501611d70565b606083015250608082015167ffffffffffffffff811115611ee857600080fd5b611ef484828501611d70565b60808301525092915050565b600060208284031215611f1257600080fd5b611f1c6020612fa3565b825190915067ffffffffffffffff811115611f3657600080fd5b611f4284828501611d70565b82525092915050565b600060808284031215611f5d57600080fd5b611f676080612fa3565b825190915067ffffffffffffffff811115611f8157600080fd5b611f8d84828501611d70565b825250602082015167ffffffffffffffff811115611faa57600080fd5b611fb684828501611d70565b602083015250604082015167ffffffffffffffff811115611fd657600080fd5b611fe284828501611d70565b604083015250606082015167ffffffffffffffff81111561200257600080fd5b61200e84828501611d70565b60608301525092915050565b60006020828403121561202c57600080fd5b6120366020612fa3565b825190915067ffffffffffffffff81111561205057600080fd5b611f4284828501611b3a565b6000610100828403121561206f57600080fd5b61207a610100612fa3565b825190915067ffffffffffffffff81111561209457600080fd5b6120a084828501611d70565b825250602082015167ffffffffffffffff8111156120bd57600080fd5b6120c984828501611d70565b602083015250604082015167ffffffffffffffff8111156120e957600080fd5b6120f584828501611d70565b604083015250606082015167ffffffffffffffff81111561211557600080fd5b61212184828501611d70565b606083015250608082015167ffffffffffffffff81111561214157600080fd5b61214d84828501611d70565b60808301525060a082015167ffffffffffffffff81111561216d57600080fd5b61217984828501611d70565b60a08301525060c082015167ffffffffffffffff81111561219957600080fd5b6121a584828501611d70565b60c08301525060e082015167ffffffffffffffff8111156121c557600080fd5b6121d184828501611d70565b60e08301525092915050565b600060c082840312156121ef57600080fd5b6121f960c0612fa3565b825190915067ffffffffffffffff81111561221357600080fd5b61221f84828501611d70565b825250602082015167ffffffffffffffff81111561223c57600080fd5b61224884828501611d70565b602083015250604082015167ffffffffffffffff81111561226857600080fd5b61227484828501611d70565b604083015250606082015167ffffffffffffffff81111561229457600080fd5b6122a084828501611d70565b606083015250608082015167ffffffffffffffff8111156122c057600080fd5b6122cc84828501611d70565b60808301525060a06122e084828501611d4c565b60a08301525092915050565b6000602082840312156122fe57600080fd5b600061230a8484611b1b565b949350505050565b60006020828403121561232457600080fd5b600061230a8484611b2e565b6000806040838503121561234357600080fd5b600061234f8585611b1b565b925050602061236085828601611d58565b9150509250929050565b60006020828403121561237c57600080fd5b813567ffffffffffffffff81111561239357600080fd5b61230a84828501611bb9565b6000602082840312156123b157600080fd5b815167ffffffffffffffff8111156123c857600080fd5b61230a84828501611c29565b6000602082840312156123e657600080fd5b815167ffffffffffffffff8111156123fd57600080fd5b61230a84828501611c86565b60006020828403121561241b57600080fd5b815167ffffffffffffffff81111561243257600080fd5b61230a84828501611ce3565b60006020828403121561245057600080fd5b600061230a8484611d4c565b60006020828403121561246e57600080fd5b813567ffffffffffffffff81111561248557600080fd5b61230a84828501611dbf565b600080600080608085870312156124a757600080fd5b843567ffffffffffffffff8111156124be57600080fd5b6124ca87828801611dbf565b945050602085013567ffffffffffffffff8111156124e757600080fd5b6124f387828801611dbf565b935050604085013567ffffffffffffffff81111561251057600080fd5b61251c87828801611dbf565b925050606085013567ffffffffffffffff81111561253957600080fd5b61254587828801611dbf565b91505092959194509250565b600080600080600060a0868803121561256957600080fd5b853567ffffffffffffffff81111561258057600080fd5b61258c88828901611dbf565b955050602086013567ffffffffffffffff8111156125a957600080fd5b6125b588828901611dbf565b945050604086013567ffffffffffffffff8111156125d257600080fd5b6125de88828901611dbf565b935050606086013567ffffffffffffffff8111156125fb57600080fd5b61260788828901611dbf565b925050608086013567ffffffffffffffff81111561262457600080fd5b61263088828901611dbf565b9150509295509295909350565b60008060008060008060c0878903121561265657600080fd5b863567ffffffffffffffff81111561266d57600080fd5b61267989828a01611dbf565b965050602087013567ffffffffffffffff81111561269657600080fd5b6126a289828a01611dbf565b955050604087013567ffffffffffffffff8111156126bf57600080fd5b6126cb89828a01611dbf565b945050606087013567ffffffffffffffff8111156126e857600080fd5b6126f489828a01611dbf565b935050608087013567ffffffffffffffff81111561271157600080fd5b61271d89828a01611dbf565b92505060a061272e89828a01611d40565b9150509295509295509295565b600080600080600080600080610100898b03121561275857600080fd5b883567ffffffffffffffff81111561276f57600080fd5b61277b8b828c01611dbf565b985050602089013567ffffffffffffffff81111561279857600080fd5b6127a48b828c01611dbf565b975050604089013567ffffffffffffffff8111156127c157600080fd5b6127cd8b828c01611dbf565b965050606089013567ffffffffffffffff8111156127ea57600080fd5b6127f68b828c01611dbf565b955050608089013567ffffffffffffffff81111561281357600080fd5b61281f8b828c01611dbf565b94505060a089013567ffffffffffffffff81111561283c57600080fd5b6128488b828c01611dbf565b93505060c089013567ffffffffffffffff81111561286557600080fd5b6128718b828c01611dbf565b92505060e089013567ffffffffffffffff81111561288e57600080fd5b61289a8b828c01611dbf565b9150509295985092959890939650565b6000602082840312156128bc57600080fd5b815167ffffffffffffffff8111156128d357600080fd5b61230a84828501611e05565b6000602082840312156128f157600080fd5b815167ffffffffffffffff81111561290857600080fd5b61230a84828501611f00565b60006020828403121561292657600080fd5b815167ffffffffffffffff81111561293d57600080fd5b61230a8482850161201a565b60006020828403121561295b57600080fd5b815167ffffffffffffffff81111561297257600080fd5b61230a8482850161205c565b6129878161301d565b82525050565b600061299882613019565b8084526020840193506129aa83613013565b60005b828110156129da576129c0868351612a3a565b6129c982613013565b6020969096019591506001016129ad565b5093949350505050565b60006129ef82613019565b808452602084019350612a0183613013565b60005b828110156129da57612a17868351612a3a565b612a2082613013565b602096909601959150600101612a04565b61298781613029565b6129878161302e565b6000612a4e82613019565b808452612a6281602086016020860161303d565b612a6b8161306d565b9093016020019392505050565b805160a080845260009190840190612a908282612a43565b91505060208301518482036020860152612aaa8282612a43565b91505060408301518482036040860152612ac48282612a43565b91505060608301518482036060860152612ade8282612a43565b91505060808301518482036080860152612af88282612a43565b95945050505050565b8051602080845260009190840190612af88282612a43565b8051608080845260009190840190612b318282612a43565b91505060208301518482036020860152612b4b8282612a43565b91505060408301518482036040860152612b658282612a43565b91505060608301518482036060860152612af88282612a43565b8051602080845260009190840190612af882826129e4565b805161010080845260009190840190612bb08282612a43565b91505060208301518482036020860152612bca8282612a43565b91505060408301518482036040860152612be48282612a43565b91505060608301518482036060860152612bfe8282612a43565b91505060808301518482036080860152612c188282612a43565b91505060a083015184820360a0860152612c328282612a43565b91505060c083015184820360c0860152612c4c8282612a43565b91505060e083015184820360e0860152612af88282612a43565b805160c080845260009190840190612c7e8282612a43565b91505060208301518482036020860152612c988282612a43565b91505060408301518482036040860152612cb28282612a43565b91505060608301518482036060860152612ccc8282612a43565b91505060808301518482036080860152612ce68282612a43565b91505060a0830151612cfb60a0860182612a31565b509392505050565b60208101611078828461297e565b60208082528101611b27818461298d565b602081016110788284612a31565b60208082528101611b278184612a43565b60808082528101612d528187612a43565b90508181036020830152612d668186612a43565b90508181036040830152612d7a8185612a43565b90508181036060830152612d8e8184612a43565b9695505050505050565b60a08082528101612da98188612a43565b90508181036020830152612dbd8187612a43565b90508181036040830152612dd18186612a43565b90508181036060830152612de58185612a43565b90508181036080830152612df98184612a43565b979650505050505050565b60c08082528101612e158189612a43565b90508181036020830152612e298188612a43565b90508181036040830152612e3d8187612a43565b90508181036060830152612e518186612a43565b90508181036080830152612e658185612a43565b9050612df960a0830184612a31565b6101008082528101612e86818b612a43565b90508181036020830152612e9a818a612a43565b90508181036040830152612eae8189612a43565b90508181036060830152612ec28188612a43565b90508181036080830152612ed68187612a43565b905081810360a0830152612eea8186612a43565b905081810360c0830152612efe8185612a43565b905081810360e0830152612f128184612a43565b9a9950505050505050505050565b60408082528101612f318185612a78565b9050611b27602083018461297e565b60408082528101612f318185612b01565b60408082528101612f318185612b19565b60408082528101612f318185612b7f565b60408082528101612f318185612b97565b60408082528101612f318185612c66565b602081016110788284612a3a565b60405181810167ffffffffffffffff81118282101715612fc257600080fd5b604052919050565b600067ffffffffffffffff821115612fe157600080fd5b5060209081020190565b600067ffffffffffffffff82111561300257600080fd5b506020601f91909101601f19160190565b60200190565b5190565b600160a060020a031690565b151590565b90565b82818337506000910152565b60005b83811015613058578181015183820152602001613040565b83811115613067576000848401525b50505050565b601f01601f1916905600a265627a7a723058204617b275d46b00792637504c58a69c15fa26209f69019b854a7352e956d6b8f36c6578706572696d656e74616cf50037",
  "source": "/**\r\n * This contract acts as a controller for front-end\r\n * requests. The DB file is separate incase, solidity adds\r\n * functionality to return structs. In that case, only\r\n * this contract needs to be redeployed and data migration\r\n * will not be needed as the data is stored in DB.sol\r\n * contract.\r\n */\r\npragma solidity ^0.4.24;\r\npragma experimental ABIEncoderV2; // experimental\r\n\r\n// import user.sol contract\r\nimport \"./User.sol\";\r\nimport \"./DB.sol\";\r\n\r\n// @title Blockvitae for CV\r\ncontract Blockvitae {\r\n\r\n    using User for User.UserMain;\r\n\r\n    // DB\r\n    DB private dbContract;\r\n\r\n    // owner of the contract\r\n    address public owner;\r\n\r\n    // checks if the user has an account or not\r\n    modifier userExists() {\r\n        require (dbContract.isExists(msg.sender));\r\n        _;\r\n    }\r\n\r\n    // checks if the address is not zero\r\n    modifier addressNotZero() {\r\n        require (msg.sender != address(0));\r\n        _;\r\n    }\r\n\r\n    // check for the owner\r\n    modifier isOwner() {\r\n        require(owner == msg.sender);\r\n        _;\r\n    }\r\n\r\n    // sets the owner of the contract\r\n    constructor(DB _dbContract) public {\r\n        dbContract = _dbContract;\r\n        owner = msg.sender;\r\n\r\n        // set this contract as the owner of DB contract\r\n        // to avoid any external calls to DB contract\r\n        // All calls to DB contract should pass through this\r\n        // contract\r\n        dbContract.setOwner(address(this));\r\n    } \r\n\r\n    // @description\r\n    // Change Owner function incase Blockviate is redeployed\r\n    // old Blockviate should be able to update the owner to new \r\n    // Blockviate.\r\n    //\r\n    // @param address _owner\r\n    // address of the new owner \r\n    function setOwner(address _owner) public isOwner {\r\n        owner = _owner;\r\n    }\r\n\r\n    // @description\r\n    // creates UserDetail struct\r\n    //\r\n    // @param string _fullName \r\n    // full name of the user\r\n    //\r\n    // @param string _userName \r\n    // username of the user\r\n    //\r\n    // @param string _imgUrl \r\n    // profile image url of the user\r\n    //\r\n    // @param string _email \r\n    // email of the user\r\n    //\r\n    // @param string _location\r\n    // (City, State) of the user\r\n    function createUserDetail(\r\n        string _fullName,\r\n        string _userName,\r\n        string _imgUrl,\r\n        string _email,\r\n        string _location\r\n    )\r\n    public\r\n    addressNotZero\r\n    {\r\n        // insert into the database\r\n        dbContract.insertUserDetail(User.setUserDetail(\r\n            _fullName,\r\n            _userName,\r\n            _imgUrl,\r\n            _email,\r\n            _location), msg.sender);\r\n    }\r\n\r\n    // @description\r\n    // create UserSocial struct and insers in DB\r\n    // \r\n    // @param string _websiteUrl\r\n    // personal website url\r\n    //\r\n    // @param string _twitterUrl\r\n    // twitter url of the user\r\n    //\r\n    // @param string _fbUrl\r\n    // facebook url of the user\r\n    //\r\n    // @param string _githubUrl\r\n    // github url of the user\r\n    //\r\n    // @param string _linkedInUrl\r\n    // linked in url of the user\r\n    //\r\n    // @param string _behanceUrl\r\n    // behance url of the user\r\n    //\r\n    // @param string _mediumUrl\r\n    // medium url of the user\r\n    function createUserSocial(\r\n        string _websiteUrl,\r\n        string _twitterUrl,\r\n        string _fbUrl,\r\n        string _githubUrl,\r\n        string _dribbbleUrl,\r\n        string _linkedInUrl,\r\n        string _behanceUrl,\r\n        string _mediumUrl\r\n    )\r\n    public\r\n    addressNotZero\r\n    userExists\r\n    {\r\n        // insert into the database\r\n        dbContract.insertUserSocial(User.setUserSocial(\r\n            _websiteUrl,\r\n            _twitterUrl,\r\n            _fbUrl,\r\n            _githubUrl,\r\n            _dribbbleUrl,\r\n            _linkedInUrl,\r\n            _behanceUrl,\r\n            _mediumUrl), msg.sender);\r\n    }\r\n\r\n    // @description\r\n    // creates UserProject struct and insert in DB\r\n    //\r\n    // @param string _name\r\n    // name of the \r\n    //\r\n    // @param string _shortDescription\r\n    // One line description of the project\r\n    //\r\n    // @param string _description \r\n    // description of the project\r\n    //\r\n    // @param string _url\r\n    // url of the project\r\n    function createUserProject(\r\n        string _name,\r\n        string _shortDescription,\r\n        string _description,\r\n        string _url\r\n    )\r\n    public\r\n    addressNotZero\r\n    userExists\r\n    {\r\n        // insert into the database\r\n        dbContract.insertUserProject(User.setUserProject(\r\n            _name,\r\n            _shortDescription,\r\n            _description,\r\n            _url), msg.sender);\r\n    }\r\n\r\n    // @description\r\n    // creates UserWorkExp struct and inserts in DB\r\n    //\r\n    // @param string _company\r\n    // name of the company or organization\r\n    //\r\n    // @param string _position\r\n    // position held in the given company\r\n    //\r\n    // @param string _dateStart\r\n    // start date of the job\r\n    //\r\n    // @param string _dateEnd\r\n    // end date of the job\r\n    //\r\n    // @param string _description\r\n    // description of the work experience\r\n    //\r\n    // @param bool _isWorking\r\n    // true if user still works here\r\n    function createUserWorkExp(\r\n        string _company,\r\n        string _position,\r\n        string _dateStart,\r\n        string _dateEnd,\r\n        string _description,\r\n        bool _isWorking\r\n    )\r\n    public\r\n    addressNotZero\r\n    userExists\r\n    {\r\n        // insert in to database\r\n        dbContract.insertUserWorkExp(User.setUserWorkExp(\r\n            _company,\r\n            _position,\r\n            _dateStart,\r\n            _dateEnd,\r\n            _description,\r\n            _isWorking), msg.sender);\r\n    }\r\n\r\n    // @description\r\n    // creates UserSkill struct and inserts in DB\r\n    //\r\n    // @param bytes32[] _skills\r\n    // array of skills\r\n    function createUserSkill(bytes32[] _skills) public addressNotZero userExists {\r\n        // insert into DB\r\n        dbContract.insertUserSkill(User.setUserSkill(_skills), msg.sender);\r\n    }\r\n\r\n    // @description\r\n    // creates UserIntroduction struct and inserts in DB\r\n    //\r\n    // @param string _introduction\r\n    // introduction of the user\r\n    function createUserIntroduction(string _introduction) public addressNotZero userExists {\r\n        // insert into DB\r\n        dbContract.insertUserIntroduction(User.setUserIntroduction(_introduction), msg.sender);\r\n    }\r\n\r\n    // @description\r\n    // creates UserEducation struct and inserts in DB\r\n    //\r\n     // @param string _organization\r\n    // name of the organization\r\n    //\r\n    // @param string _level\r\n    // education level held in the given organization\r\n    //\r\n    // @param string _dateStart\r\n    // start date of the education\r\n    //\r\n    // @param string _dateEnd\r\n    // end date of the education\r\n    //\r\n    // @param string _description\r\n    // description of the education\r\n    //\r\n    // @return UserEducation\r\n    // UserEducation struct for the given values\r\n    function createUserEducation(\r\n        string _organization,\r\n        string _level,\r\n        string _dateStart,\r\n        string _dateEnd,\r\n        string _description \r\n    )\r\n    public\r\n    addressNotZero\r\n    userExists\r\n    {\r\n        // insert in the database\r\n        dbContract.insertUserEducation(User.setUserEducation(\r\n            _organization,\r\n            _level,\r\n            _dateStart,\r\n            _dateEnd,\r\n            _description), msg.sender);\r\n    }\r\n\r\n    // @description\r\n    // gets count of total education added\r\n    //\r\n    // @param address _user\r\n    // address of the user who's data is to be searched\r\n    //\r\n    // @return uint\r\n    // count of the total education for the given user\r\n    function getEducationCount(address _user)\r\n    public\r\n    view\r\n    returns(uint) {\r\n        return dbContract.findUserEducation(_user).length;\r\n    }\r\n\r\n    // @description\r\n    // gets the user education with the given index for the given user\r\n    //\r\n    // @param address _user\r\n    // address of the user who's education is to be searched\r\n    //\r\n    // @param uint index\r\n    // index of the education to be searched\r\n    //\r\n    // @return (string, string, string, string, string)\r\n    // organization, level, dateStart, dateEnd\r\n    // and description of the education with given index\r\n    function getUserEducation(address _user, uint index)\r\n    public\r\n    view\r\n    returns(string, string, string, string, string) {\r\n        User.UserEducation[] memory education = dbContract.findUserEducation(_user);\r\n\r\n        return (education[index].organization, education[index].level, \r\n        education[index].dateStart, education[index].dateEnd, education[index].description);\r\n    }\r\n\r\n\r\n    // @description\r\n    // gets the array of skills of the user\r\n    //\r\n    // @param address _user\r\n    // address of the user who's data is to be searched\r\n    //\r\n    // @return bytes32[]\r\n    // array of skills of the user with given address\r\n    function getUserSkills(address _user) public view returns(bytes32[]) {\r\n        return dbContract.findUserSkill(_user).skills;\r\n    }\r\n\r\n    // @description\r\n    // gets the string of introduction of the user\r\n    //\r\n    // @param address _user\r\n    // address of the user who's data is to be searched\r\n    //\r\n    // @return string\r\n    // introduction of the user with given address\r\n    function getUserIntroduction(address _user) public view returns(string) {\r\n        return dbContract.findUserIntroduction(_user).introduction;\r\n    }\r\n\r\n    // @description\r\n    // Solidity doesn't allow to return array of strings\r\n    // Therefore, get count of projects first and\r\n    // then get each project one at a time from front end\r\n    //\r\n    // @param address _user\r\n    // address of the user who's data is to be searched\r\n    //\r\n    // @return uint\r\n    // count of the total projects for the given user\r\n    function getProjectCount(address _user) \r\n    public \r\n    view \r\n    returns(uint) {\r\n        return dbContract.findUserProject(_user).length;\r\n    }\r\n\r\n    // @description\r\n    // gets the user project with the given index for the given user\r\n    //\r\n    // @param address _user\r\n    // address of the user who's projects are to be searched\r\n    //\r\n    // @param uint index\r\n    // index of the project to be searched\r\n    //\r\n    // @return (string, string, string, string)\r\n    // name, short description, description and url of the project with given index\r\n    function getUserProject(address _user, uint index)\r\n    public\r\n    view\r\n    returns(string, string, string, string) {\r\n        User.UserProject[] memory projects = dbContract.findUserProject(_user);\r\n    \r\n        return (projects[index].name, projects[index].shortDescription, \r\n        projects[index].description, projects[index].url);\r\n    }\r\n\r\n    // @description\r\n    // gets count of total work experiences added\r\n    //\r\n    // @param address _user\r\n    // address of the user who's data is to be searched\r\n    //\r\n    // @return uint\r\n    // count of the total work exp for the given user\r\n    function getWorkExpCount(address _user) \r\n    public \r\n    view \r\n    returns(uint) {\r\n        return dbContract.findUserWorkExp(_user).length;\r\n    }\r\n\r\n    // @description\r\n    // gets the user work exp with the given index for the given user\r\n    //\r\n    // @param address _user\r\n    // address of the user who's work exp are to be searched\r\n    //\r\n    // @param uint index\r\n    // index of the work exp to be searched\r\n    //\r\n    // @return (string, string, string, string, string, bool\r\n    // company, position, dateStart, dateEnd\r\n    // and description of the work exp with given index\r\n    function getUserWorkExp(address _user, uint index)\r\n    public\r\n    view\r\n    returns(string, string, string, string, string, bool) {\r\n        User.UserWorkExp[] memory work = dbContract.findUserWorkExp(_user);\r\n    \r\n        return (work[index].company, work[index].position, work[index].dateStart, \r\n        work[index].dateEnd, work[index].description, work[index].isWorking);\r\n    }\r\n\r\n    // @description \r\n    // returns UserDetail struct values\r\n    // for the given address if user exists\r\n    //\r\n    // @param address _user \r\n    // address of the user for which UserDetail is \r\n    // to be searched\r\n    //\r\n    // @return (string, string, string, string, string)\r\n    // array of strings containing values of \r\n    // UserDetail struct in the respective order\r\n    function getUserDetail(address _user)  \r\n    public \r\n    view\r\n    returns(string, string, string, string, string) \r\n    {\r\n        // find the user details\r\n        User.UserDetail memory personal = dbContract.findUserDetail(_user);\r\n\r\n        // return\r\n        return (personal.fullName, personal.userName, personal.imgUrl, personal.email, personal.location);\r\n    }\r\n\r\n    // @description \r\n    // returns UserSocial struct values\r\n    // for the given address if user exists\r\n    //\r\n    // @param address _user \r\n    // address of the user for which UserSocial is \r\n    // to be searched\r\n    //\r\n    // @return (string, string, string, string, string, string, string, string)\r\n    // array of strings containing values of \r\n    // UserSocial struct in the respective order\r\n    function getUserSocial(address _user)  \r\n    public \r\n    view\r\n    returns(string, string, string, string, string, string, string, string) \r\n    {\r\n        // find the user details\r\n        User.UserSocial memory social = dbContract.findUserSocial(_user);\r\n\r\n        // return\r\n        return (social.websiteUrl, social.twitterUrl, social.fbUrl, social.githubUrl, social.dribbbleUrl, \r\n            social.linkedInUrl, social.behanceUrl, social.mediumUrl);\r\n    }\r\n\r\n    // @description\r\n    // finds the address the given userName\r\n    //\r\n    // @param string _userName\r\n    // userName of the user who's address is to be searched\r\n    //\r\n    // @return address\r\n    // address of the user with given userName\r\n    function getAddrForUserName(string _userName)\r\n    public\r\n    view\r\n    returns(address) \r\n    {\r\n        return dbContract.findAddrForUserName(_userName);\r\n    }\r\n\r\n    // @description\r\n    // Checks if the given username is available or taken\r\n    //\r\n    // @param string _userName\r\n    // username to be checked\r\n    //\r\n    // @return bool\r\n    // true if username is available else false\r\n    function isUsernameAvailable(string _userName)\r\n    public\r\n    view\r\n    returns(bool)\r\n    {\r\n        return dbContract.usernameExists(_userName);\r\n    }\r\n}",
  "sourcePath": "E:\\GitHub\\Blockchain\\Blockvitae\\blockvitae-ethereum\\contracts\\Blockvitae.sol",
  "compiler": {
    "name": "solc",
    "version": "0.4.24+commit.e67f0147.Emscripten.clang"
  },
  "schemaVersion": "2.0.0",
  "updatedAt": "2018-07-01T03:49:37.808Z"
}