{
  "contractName": "Blockvitae",
  "abi": [
    {
      "constant": true,
      "inputs": [],
      "name": "owner",
      "outputs": [
        {
          "name": "",
          "type": "address"
        }
      ],
      "payable": false,
      "stateMutability": "view",
      "type": "function"
    },
    {
      "inputs": [
        {
          "name": "_dbContract",
          "type": "address"
        }
      ],
      "payable": false,
      "stateMutability": "nonpayable",
      "type": "constructor"
    },
    {
      "constant": false,
      "inputs": [
        {
          "name": "_owner",
          "type": "address"
        }
      ],
      "name": "setOwner",
      "outputs": [],
      "payable": false,
      "stateMutability": "nonpayable",
      "type": "function"
    },
    {
      "constant": false,
      "inputs": [
        {
          "name": "_fullName",
          "type": "string"
        },
        {
          "name": "_userName",
          "type": "string"
        },
        {
          "name": "_imgUrl",
          "type": "string"
        },
        {
          "name": "_email",
          "type": "string"
        },
        {
          "name": "_location",
          "type": "string"
        },
        {
          "name": "_description",
          "type": "string"
        }
      ],
      "name": "createUserDetail",
      "outputs": [],
      "payable": false,
      "stateMutability": "nonpayable",
      "type": "function"
    },
    {
      "constant": false,
      "inputs": [
        {
          "name": "_websiteUrl",
          "type": "string"
        },
        {
          "name": "_twitterUrl",
          "type": "string"
        },
        {
          "name": "_fbUrl",
          "type": "string"
        },
        {
          "name": "_githubUrl",
          "type": "string"
        },
        {
          "name": "_dribbbleUrl",
          "type": "string"
        },
        {
          "name": "_linkedInUrl",
          "type": "string"
        },
        {
          "name": "_behanceUrl",
          "type": "string"
        },
        {
          "name": "_mediumUrl",
          "type": "string"
        }
      ],
      "name": "createUserSocial",
      "outputs": [],
      "payable": false,
      "stateMutability": "nonpayable",
      "type": "function"
    },
    {
      "constant": false,
      "inputs": [
        {
          "name": "_name",
          "type": "string"
        },
        {
          "name": "_shortDescription",
          "type": "string"
        },
        {
          "name": "_description",
          "type": "string"
        },
        {
          "name": "_url",
          "type": "string"
        },
        {
          "name": "_isDeleted",
          "type": "bool"
        }
      ],
      "name": "createUserProject",
      "outputs": [],
      "payable": false,
      "stateMutability": "nonpayable",
      "type": "function"
    },
    {
      "constant": false,
      "inputs": [
        {
          "name": "_company",
          "type": "string"
        },
        {
          "name": "_position",
          "type": "string"
        },
        {
          "name": "_dateStart",
          "type": "string"
        },
        {
          "name": "_dateEnd",
          "type": "string"
        },
        {
          "name": "_description",
          "type": "string"
        },
        {
          "name": "_isWorking",
          "type": "bool"
        },
        {
          "name": "_isDeleted",
          "type": "bool"
        }
      ],
      "name": "createUserWorkExp",
      "outputs": [],
      "payable": false,
      "stateMutability": "nonpayable",
      "type": "function"
    },
    {
      "constant": false,
      "inputs": [
        {
          "name": "_skills",
          "type": "bytes32[]"
        }
      ],
      "name": "createUserSkill",
      "outputs": [],
      "payable": false,
      "stateMutability": "nonpayable",
      "type": "function"
    },
    {
      "constant": false,
      "inputs": [
        {
          "name": "_introduction",
          "type": "string"
        }
      ],
      "name": "createUserIntroduction",
      "outputs": [],
      "payable": false,
      "stateMutability": "nonpayable",
      "type": "function"
    },
    {
      "constant": false,
      "inputs": [
        {
          "name": "_organization",
          "type": "string"
        },
        {
          "name": "_level",
          "type": "string"
        },
        {
          "name": "_dateStart",
          "type": "string"
        },
        {
          "name": "_dateEnd",
          "type": "string"
        },
        {
          "name": "_description",
          "type": "string"
        },
        {
          "name": "_isDeleted",
          "type": "bool"
        }
      ],
      "name": "createUserEducation",
      "outputs": [],
      "payable": false,
      "stateMutability": "nonpayable",
      "type": "function"
    },
    {
      "constant": true,
      "inputs": [
        {
          "name": "_user",
          "type": "address"
        }
      ],
      "name": "getEducationCount",
      "outputs": [
        {
          "name": "",
          "type": "uint256"
        }
      ],
      "payable": false,
      "stateMutability": "view",
      "type": "function"
    },
    {
      "constant": true,
      "inputs": [
        {
          "name": "_user",
          "type": "address"
        },
        {
          "name": "_index",
          "type": "uint256"
        }
      ],
      "name": "getUserEducation",
      "outputs": [
        {
          "name": "",
          "type": "string"
        },
        {
          "name": "",
          "type": "string"
        },
        {
          "name": "",
          "type": "string"
        },
        {
          "name": "",
          "type": "string"
        },
        {
          "name": "",
          "type": "string"
        },
        {
          "name": "",
          "type": "bool"
        }
      ],
      "payable": false,
      "stateMutability": "view",
      "type": "function"
    },
    {
      "constant": false,
      "inputs": [
        {
          "name": "_index",
          "type": "uint256"
        }
      ],
      "name": "deleteUserEducation",
      "outputs": [],
      "payable": false,
      "stateMutability": "nonpayable",
      "type": "function"
    },
    {
      "constant": true,
      "inputs": [
        {
          "name": "_user",
          "type": "address"
        }
      ],
      "name": "getUserSkills",
      "outputs": [
        {
          "name": "",
          "type": "bytes32[]"
        }
      ],
      "payable": false,
      "stateMutability": "view",
      "type": "function"
    },
    {
      "constant": true,
      "inputs": [
        {
          "name": "_user",
          "type": "address"
        }
      ],
      "name": "getUserIntroduction",
      "outputs": [
        {
          "name": "",
          "type": "string"
        }
      ],
      "payable": false,
      "stateMutability": "view",
      "type": "function"
    },
    {
      "constant": true,
      "inputs": [
        {
          "name": "_user",
          "type": "address"
        }
      ],
      "name": "getProjectCount",
      "outputs": [
        {
          "name": "",
          "type": "uint256"
        }
      ],
      "payable": false,
      "stateMutability": "view",
      "type": "function"
    },
    {
      "constant": true,
      "inputs": [
        {
          "name": "_user",
          "type": "address"
        },
        {
          "name": "_index",
          "type": "uint256"
        }
      ],
      "name": "getUserProject",
      "outputs": [
        {
          "name": "",
          "type": "string"
        },
        {
          "name": "",
          "type": "string"
        },
        {
          "name": "",
          "type": "string"
        },
        {
          "name": "",
          "type": "string"
        },
        {
          "name": "",
          "type": "bool"
        }
      ],
      "payable": false,
      "stateMutability": "view",
      "type": "function"
    },
    {
      "constant": false,
      "inputs": [
        {
          "name": "_index",
          "type": "uint256"
        }
      ],
      "name": "deleteUserProject",
      "outputs": [],
      "payable": false,
      "stateMutability": "nonpayable",
      "type": "function"
    },
    {
      "constant": true,
      "inputs": [
        {
          "name": "_user",
          "type": "address"
        }
      ],
      "name": "getWorkExpCount",
      "outputs": [
        {
          "name": "",
          "type": "uint256"
        }
      ],
      "payable": false,
      "stateMutability": "view",
      "type": "function"
    },
    {
      "constant": true,
      "inputs": [
        {
          "name": "_user",
          "type": "address"
        },
        {
          "name": "_index",
          "type": "uint256"
        }
      ],
      "name": "getUserWorkExp",
      "outputs": [
        {
          "name": "",
          "type": "string"
        },
        {
          "name": "",
          "type": "string"
        },
        {
          "name": "",
          "type": "string"
        },
        {
          "name": "",
          "type": "string"
        },
        {
          "name": "",
          "type": "string"
        },
        {
          "name": "",
          "type": "bool"
        },
        {
          "name": "",
          "type": "bool"
        }
      ],
      "payable": false,
      "stateMutability": "view",
      "type": "function"
    },
    {
      "constant": false,
      "inputs": [
        {
          "name": "_index",
          "type": "uint256"
        }
      ],
      "name": "deleteUserWorkExp",
      "outputs": [],
      "payable": false,
      "stateMutability": "nonpayable",
      "type": "function"
    },
    {
      "constant": true,
      "inputs": [
        {
          "name": "_user",
          "type": "address"
        }
      ],
      "name": "getUserDetail",
      "outputs": [
        {
          "name": "",
          "type": "string"
        },
        {
          "name": "",
          "type": "string"
        },
        {
          "name": "",
          "type": "string"
        },
        {
          "name": "",
          "type": "string"
        },
        {
          "name": "",
          "type": "string"
        },
        {
          "name": "",
          "type": "string"
        }
      ],
      "payable": false,
      "stateMutability": "view",
      "type": "function"
    },
    {
      "constant": true,
      "inputs": [
        {
          "name": "_user",
          "type": "address"
        }
      ],
      "name": "getUserSocial",
      "outputs": [
        {
          "name": "",
          "type": "string"
        },
        {
          "name": "",
          "type": "string"
        },
        {
          "name": "",
          "type": "string"
        },
        {
          "name": "",
          "type": "string"
        },
        {
          "name": "",
          "type": "string"
        },
        {
          "name": "",
          "type": "string"
        },
        {
          "name": "",
          "type": "string"
        },
        {
          "name": "",
          "type": "string"
        }
      ],
      "payable": false,
      "stateMutability": "view",
      "type": "function"
    },
    {
      "constant": true,
      "inputs": [
        {
          "name": "_userName",
          "type": "string"
        }
      ],
      "name": "getAddrForUserName",
      "outputs": [
        {
          "name": "",
          "type": "address"
        }
      ],
      "payable": false,
      "stateMutability": "view",
      "type": "function"
    },
    {
      "constant": true,
      "inputs": [
        {
          "name": "_userName",
          "type": "string"
        }
      ],
      "name": "isUsernameAvailable",
      "outputs": [
        {
          "name": "",
          "type": "bool"
        }
      ],
      "payable": false,
      "stateMutability": "view",
      "type": "function"
    }
  ],
  "bytecode": "0x60806040523480156200001157600080fd5b5060405160208062003a828339810180604052620000339190810190620000ee565b60008054600160a060020a03808416600160a060020a031992831617928390556001805490921633179091556040517f13af40350000000000000000000000000000000000000000000000000000000081529116906313af4035906200009e90309060040162000128565b600060405180830381600087803b158015620000b957600080fd5b505af1158015620000ce573d6000803e3d6000fd5b505050505062000157565b6000620000e782516200014a565b9392505050565b6000602082840312156200010157600080fd5b60006200010f8484620000d9565b949350505050565b62000122816200013e565b82525050565b6020810162000138828462000117565b92915050565b600160a060020a031690565b600062000138826200013e565b61391b80620001676000396000f30060806040526004361061012e5763ffffffff6000805160206138c28339815191526000350416630168fe818114610133578063038b1f921461016957806306602d821461019b5780630a357b50146101cf5780630e586670146101f15780631218095b1461022257806313af403514610242578063147f3af9146102625780631a0a4d4c1461028257806342ce594a146102a25780634a48c84b146102c25780634cb4b73f146102f45780635519d39014610321578063698508e014610341578063770685ac146103615780638da5cb5b1461038e578063b6d9226b146103a3578063b72c47e9146103d6578063b8ed6af0146103f6578063ce10958314610416578063d2886ebc14610436578063ea9db6ff14610463578063f4b1729114610483578063f69c6dec146104a3575b600080fd5b34801561013f57600080fd5b5061015361014e366004612805565b6104d0565b60405161016091906137a4565b60405180910390f35b34801561017557600080fd5b50610189610184366004612849565b610577565b604051610160969594939291906134f9565b3480156101a757600080fd5b506101bb6101b6366004612805565b6106e2565b604051610160989796959493929190613672565b3480156101db57600080fd5b506101ef6101ea366004612c8f565b6107f3565b005b3480156101fd57600080fd5b5061021161020c366004612849565b610883565b604051610160959493929190613493565b34801561022e57600080fd5b506101ef61023d3660046129aa565b6109cf565b34801561024e57600080fd5b506101ef61025d366004612805565b610af1565b34801561026e57600080fd5b506101ef61027d366004612d98565b610b37565b34801561028e57600080fd5b5061015361029d366004612805565b610c5f565b3480156102ae57600080fd5b506101ef6102bd366004612883565b610cff565b3480156102ce57600080fd5b506102e26102dd366004612805565b610e19565b604051610160969594939291906135fd565b34801561030057600080fd5b5061031461030f366004612805565b610efa565b6040516101609190613482565b34801561032d57600080fd5b506101ef61033c366004612a7e565b610f9a565b34801561034d57600080fd5b506101ef61035c366004612fdb565b611084565b34801561036d57600080fd5b5061038161037c366004612975565b61116f565b6040516101609190613455565b34801561039a57600080fd5b50610381611211565b3480156103af57600080fd5b506103c36103be366004612849565b611220565b6040516101609796959493929190613574565b3480156103e257600080fd5b506101ef6103f1366004612fdb565b6113b1565b34801561040257600080fd5b506101ef610411366004612fdb565b61149c565b34801561042257600080fd5b506101ef610431366004612b7c565b611587565b34801561044257600080fd5b50610456610451366004612805565b6116ad565b6040516101609190613463565b34801561046f57600080fd5b506101ef61047e366004612975565b61174d565b34801561048f57600080fd5b5061015361049e366004612805565b611832565b3480156104af57600080fd5b506104c36104be366004612975565b6118d2565b6040516101609190613474565b600080546040517f586a1f47000000000000000000000000000000000000000000000000000000008152600160a060020a039091169063586a1f479061051a908590600401613455565b600060405180830381600087803b15801561053457600080fd5b505af1158015610548573d6000803e3d6000fd5b505050506040513d6000823e601f3d908101601f191682016040526105709190810190612922565b5192915050565b600080546040517f099c34d9000000000000000000000000000000000000000000000000000000008152606092839283928392839290918391600160a060020a03169063099c34d9906105ce908c90600401613455565b600060405180830381600087803b1580156105e857600080fd5b505af11580156105fc573d6000803e3d6000fd5b505050506040513d6000823e601f3d908101601f1916820160405261062491908101906128b8565b9050808881518110151561063457fe5b6020908102909101015151815182908a90811061064d57fe5b9060200190602002015160200151828a81518110151561066957fe5b9060200190602002015160400151838b81518110151561068557fe5b9060200190602002015160600151848c8151811015156106a157fe5b9060200190602002015160800151858d8151811015156106bd57fe5b602090810291909101015160a00151949e939d50919b50995097509095509350505050565b6060806060806060806060806106f6611da1565b6000546040517fe9411881000000000000000000000000000000000000000000000000000000008152600160a060020a039091169063e94118819061073f908d90600401613455565b600060405180830381600087803b15801561075957600080fd5b505af115801561076d573d6000803e3d6000fd5b505050506040513d6000823e601f3d908101601f191682016040526107959190810190612fa6565b9050806000015181602001518260400151836060015184608001518560a001518660c001518760e001518797508696508595508494508393508292508191508090509850985098509850985098509850985050919395975091939597565b3315156107ff57600080fd5b600054600160a060020a0316634f10143561081e88888888888861196e565b336040518363ffffffff166000805160206138c283398151915202815260040161084992919061371e565b600060405180830381600087803b15801561086357600080fd5b505af1158015610877573d6000803e3d6000fd5b50505050505050505050565b600080546040517f93a8022c000000000000000000000000000000000000000000000000000000008152606092839283928392918391600160a060020a03909116906393a8022c906108d9908b90600401613455565b600060405180830381600087803b1580156108f357600080fd5b505af1158015610907573d6000803e3d6000fd5b505050506040513d6000823e601f3d908101601f1916820160405261092f91908101906128ed565b9050808781518110151561093f57fe5b6020908102909101015151815182908990811061095857fe5b9060200190602002015160200151828981518110151561097457fe5b9060200190602002015160400151838a81518110151561099057fe5b9060200190602002015160600151848b8151811015156109ac57fe5b602090810291909101015160800151939c929b5090995097509095509350505050565b3315156109db57600080fd5b6000546040516000805160206138a28339815191528152600160a060020a039091169063e0d4f1c390610a12903390600401613455565b602060405180830381600087803b158015610a2c57600080fd5b505af1158015610a40573d6000803e3d6000fd5b505050506040513d601f19601f82011682018060405250610a649190810190612957565b1515610a6f57600080fd5b600054600160a060020a031663410de536610a8d87878787876119a4565b336040518363ffffffff166000805160206138c2833981519152028152600401610ab8929190613760565b600060405180830381600087803b158015610ad257600080fd5b505af1158015610ae6573d6000803e3d6000fd5b505050505050505050565b600154600160a060020a03163314610b0857600080fd5b6001805473ffffffffffffffffffffffffffffffffffffffff1916600160a060020a0392909216919091179055565b331515610b4357600080fd5b6000546040516000805160206138a28339815191528152600160a060020a039091169063e0d4f1c390610b7a903390600401613455565b602060405180830381600087803b158015610b9457600080fd5b505af1158015610ba8573d6000803e3d6000fd5b505050506040513d601f19601f82011682018060405250610bcc9190810190612957565b1515610bd757600080fd5b600054600160a060020a03166302630c1f610bf88a8a8a8a8a8a8a8a611a6b565b336040518363ffffffff166000805160206138c2833981519152028152600401610c23929190613782565b600060405180830381600087803b158015610c3d57600080fd5b505af1158015610c51573d6000803e3d6000fd5b505050505050505050505050565b600080546040517f93a8022c000000000000000000000000000000000000000000000000000000008152600160a060020a03909116906393a8022c90610ca9908590600401613455565b600060405180830381600087803b158015610cc357600080fd5b505af1158015610cd7573d6000803e3d6000fd5b505050506040513d6000823e601f3d908101601f1916820160405261057091908101906128ed565b331515610d0b57600080fd5b6000546040516000805160206138a28339815191528152600160a060020a039091169063e0d4f1c390610d42903390600401613455565b602060405180830381600087803b158015610d5c57600080fd5b505af1158015610d70573d6000803e3d6000fd5b505050506040513d601f19601f82011682018060405250610d949190810190612957565b1515610d9f57600080fd5b600054600160a060020a0316631a57db1f610db983611b9d565b336040518363ffffffff166000805160206138c2833981519152028152600401610de4929190613771565b600060405180830381600087803b158015610dfe57600080fd5b505af1158015610e12573d6000803e3d6000fd5b5050505050565b606080606080606080610e2a611de7565b6000546040517f11934703000000000000000000000000000000000000000000000000000000008152600160a060020a0390911690631193470390610e73908b90600401613455565b600060405180830381600087803b158015610e8d57600080fd5b505af1158015610ea1573d6000803e3d6000fd5b505050506040513d6000823e601f3d908101601f19168201604052610ec99190810190612f07565b8051602082015160408301516060840151608085015160a090950151939d929c50909a509850919650945092505050565b6000546040517fc6cc2885000000000000000000000000000000000000000000000000000000008152606091600160a060020a03169063c6cc288590610f44908590600401613455565b600060405180830381600087803b158015610f5e57600080fd5b505af1158015610f72573d6000803e3d6000fd5b505050506040513d6000823e601f3d908101601f191682016040526105709190810190612f3c565b331515610fa657600080fd5b6000546040516000805160206138a28339815191528152600160a060020a039091169063e0d4f1c390610fdd903390600401613455565b602060405180830381600087803b158015610ff757600080fd5b505af115801561100b573d6000803e3d6000fd5b505050506040513d601f19601f8201168201806040525061102f9190810190612957565b151561103a57600080fd5b600054600160a060020a031663eab065e7611059888888888888611bb4565b336040518363ffffffff166000805160206138c283398151915202815260040161084992919061373e565b33151561109057600080fd5b6000546040516000805160206138a28339815191528152600160a060020a039091169063e0d4f1c3906110c7903390600401613455565b602060405180830381600087803b1580156110e157600080fd5b505af11580156110f5573d6000803e3d6000fd5b505050506040513d601f19601f820116820180604052506111199190810190612957565b151561112457600080fd5b6000546040517f390d1adc000000000000000000000000000000000000000000000000000000008152600160a060020a039091169063390d1adc90610de490849033906004016137b2565b600080546040517fd9148419000000000000000000000000000000000000000000000000000000008152600160a060020a039091169063d9148419906111b9908590600401613482565b602060405180830381600087803b1580156111d357600080fd5b505af11580156111e7573d6000803e3d6000fd5b505050506040513d601f19601f8201168201806040525061120b919081019061282b565b92915050565b600154600160a060020a031681565b606080606080606060008060606000809054906101000a9004600160a060020a0316600160a060020a031663586a1f478b6040518263ffffffff166000805160206138c283398151915202815260040161127a9190613455565b600060405180830381600087803b15801561129457600080fd5b505af11580156112a8573d6000803e3d6000fd5b505050506040513d6000823e601f3d908101601f191682016040526112d09190810190612922565b905080898151811015156112e057fe5b6020908102909101015151815182908b9081106112f957fe5b9060200190602002015160200151828b81518110151561131557fe5b9060200190602002015160400151838c81518110151561133157fe5b9060200190602002015160600151848d81518110151561134d57fe5b9060200190602002015160800151858e81518110151561136957fe5b9060200190602002015160a00151868f81518110151561138557fe5b6020908102909101015160c00151959d50939b5091995097509550935091505092959891949750929550565b3315156113bd57600080fd5b6000546040516000805160206138a28339815191528152600160a060020a039091169063e0d4f1c3906113f4903390600401613455565b602060405180830381600087803b15801561140e57600080fd5b505af1158015611422573d6000803e3d6000fd5b505050506040513d601f19601f820116820180604052506114469190810190612957565b151561145157600080fd5b6000546040517fe65200a9000000000000000000000000000000000000000000000000000000008152600160a060020a039091169063e65200a990610de490849033906004016137b2565b3315156114a857600080fd5b6000546040516000805160206138a28339815191528152600160a060020a039091169063e0d4f1c3906114df903390600401613455565b602060405180830381600087803b1580156114f957600080fd5b505af115801561150d573d6000803e3d6000fd5b505050506040513d601f19601f820116820180604052506115319190810190612957565b151561153c57600080fd5b6000546040517f87d5e034000000000000000000000000000000000000000000000000000000008152600160a060020a03909116906387d5e03490610de490849033906004016137b2565b33151561159357600080fd5b6000546040516000805160206138a28339815191528152600160a060020a039091169063e0d4f1c3906115ca903390600401613455565b602060405180830381600087803b1580156115e457600080fd5b505af11580156115f8573d6000803e3d6000fd5b505050506040513d601f19601f8201168201806040525061161c9190810190612957565b151561162757600080fd5b600054600160a060020a0316634e28b0e761164789898989898989611c9f565b336040518363ffffffff166000805160206138c2833981519152028152600401611672929190613793565b600060405180830381600087803b15801561168c57600080fd5b505af11580156116a0573d6000803e3d6000fd5b5050505050505050505050565b6000546040517f066b2a1e000000000000000000000000000000000000000000000000000000008152606091600160a060020a03169063066b2a1e906116f7908590600401613455565b600060405180830381600087803b15801561171157600080fd5b505af1158015611725573d6000803e3d6000fd5b505050506040513d6000823e601f3d908101601f191682016040526105709190810190612f71565b33151561175957600080fd5b6000546040516000805160206138a28339815191528152600160a060020a039091169063e0d4f1c390611790903390600401613455565b602060405180830381600087803b1580156117aa57600080fd5b505af11580156117be573d6000803e3d6000fd5b505050506040513d601f19601f820116820180604052506117e29190810190612957565b15156117ed57600080fd5b600054600160a060020a031663d3e26ee761180783611b9d565b336040518363ffffffff166000805160206138c2833981519152028152600401610de492919061374f565b600080546040517f099c34d9000000000000000000000000000000000000000000000000000000008152600160a060020a039091169063099c34d99061187c908590600401613455565b600060405180830381600087803b15801561189657600080fd5b505af11580156118aa573d6000803e3d6000fd5b505050506040513d6000823e601f3d908101601f1916820160405261057091908101906128b8565b600080546040517ff309e3f9000000000000000000000000000000000000000000000000000000008152600160a060020a039091169063f309e3f99061191c908590600401613482565b602060405180830381600087803b15801561193657600080fd5b505af115801561194a573d6000803e3d6000fd5b505050506040513d601f19601f8201168201806040525061120b9190810190612957565b611976611de7565b61197e611de7565b96875250602086019490945260408501929092526060840152608083015260a082015290565b6119ac611e1e565b6119b4611e1e565b86516000106119c257600080fd5b845115156119de576040805160208101909152600081526119e0565b845b604082015285511515611a0157604080516020810190915260008152611a03565b855b602082015286511515611a2457604080516020810190915260008152611a26565b865b815283511515611a4457604080516020810190915260008152611a46565b835b606082015282611a57576000611a5a565b60015b151560808201529695505050505050565b611a73611da1565b611a7b611da1565b88511515611a9757604080516020810190915260008152611a99565b885b602082015289511515611aba57604080516020810190915260008152611abc565b895b815287511515611ada57604080516020810190915260008152611adc565b875b604082015286511515611afd57604080516020810190915260008152611aff565b865b606082015285511515611b2057604080516020810190915260008152611b22565b855b608082015284511515611b4357604080516020810190915260008152611b45565b845b60a082015283511515611b6657604080516020810190915260008152611b68565b835b60c082015282511515611b8957604080516020810190915260008152611b8b565b825b60e08201529998505050505050505050565b611ba5611e50565b611bad611e50565b9182525090565b611bbc611e62565b611bc4611e62565b8751600010611bd257600080fd5b87511515611bee57604080516020810190915260008152611bf0565b875b815286511515611c0e57604080516020810190915260008152611c10565b865b602082015285511515611c3157604080516020810190915260008152611c33565b855b604082015284511515611c5457604080516020810190915260008152611c56565b845b606082015283511515611c7757604080516020810190915260008152611c79565b835b608082015282611c8a576000611c8d565b60015b151560a0820152979650505050505050565b611ca7611e9b565b611caf611e9b565b8851600010611cbd57600080fd5b88511515611cd957604080516020810190915260008152611cdb565b885b815287511515611cf957604080516020810190915260008152611cfb565b875b602082015286511515611d1c57604080516020810190915260008152611d1e565b865b604082015285511515611d3f57604080516020810190915260008152611d41565b855b606082015284511515611d6257604080516020810190915260008152611d64565b845b608082015283611d75576000611d78565b60015b151560a082015282611d8b576000611d8e565b60015b151560c082015298975050505050505050565b6101006040519081016040528060608152602001606081526020016060815260200160608152602001606081526020016060815260200160608152602001606081525090565b60c0604051908101604052806060815260200160608152602001606081526020016060815260200160608152602001606081525090565b60a060405190810160405280606081526020016060815260200160608152602001606081526020016000151581525090565b60408051602081019091526060815290565b60c06040519081016040528060608152602001606081526020016060815260200160608152602001606081526020016000151581525090565b60e06040519081016040528060608152602001606081526020016060815260200160608152602001606081526020016000151581526020016000151581525090565b6000611ee98235613847565b9392505050565b6000611ee98251613847565b6000601f82018313611f0d57600080fd5b8151611f20611f1b826137f4565b6137cd565b91508181835260208401935060208101905083856020840282011115611f4557600080fd5b60005b83811015611f715781611f5b8882612126565b8452506020928301929190910190600101611f48565b5050505092915050565b6000601f82018313611f8c57600080fd5b8135611f9a611f1b826137f4565b91508181835260208401935060208101905083856020840282011115611fbf57600080fd5b60005b83811015611f715781611fd5888261211a565b8452506020928301929190910190600101611fc2565b6000601f82018313611ffc57600080fd5b815161200a611f1b826137f4565b81815260209384019390925082018360005b83811015611f71578151860161203288826122ee565b845250602092830192919091019060010161201c565b6000601f8201831361205957600080fd5b8151612067611f1b826137f4565b81815260209384019390925082018360005b83811015611f71578151860161208f888261243c565b8452506020928301929190910190600101612079565b6000601f820183136120b657600080fd5b81516120c4611f1b826137f4565b81815260209384019390925082018360005b83811015611f7157815186016120ec88826126e2565b84525060209283019291909101906001016120d6565b6000611ee98235613853565b6000611ee98251613853565b6000611ee98235613858565b6000611ee98251613858565b6000601f8201831361214357600080fd5b8151612151611f1b82613815565b9150808252602083016020830185838301111561216d57600080fd5b612178838284613867565b50505092915050565b6000601f8201831361219257600080fd5b81356121a0611f1b82613815565b915080825260208301602083018583830111156121bc57600080fd5b61217883828461385b565b600060c082840312156121d957600080fd5b6121e360c06137cd565b825190915067ffffffffffffffff8111156121fd57600080fd5b61220984828501612132565b825250602082015167ffffffffffffffff81111561222657600080fd5b61223284828501612132565b602083015250604082015167ffffffffffffffff81111561225257600080fd5b61225e84828501612132565b604083015250606082015167ffffffffffffffff81111561227e57600080fd5b61228a84828501612132565b606083015250608082015167ffffffffffffffff8111156122aa57600080fd5b6122b684828501612132565b60808301525060a082015167ffffffffffffffff8111156122d657600080fd5b6122e284828501612132565b60a08301525092915050565b600060c0828403121561230057600080fd5b61230a60c06137cd565b825190915067ffffffffffffffff81111561232457600080fd5b61233084828501612132565b825250602082015167ffffffffffffffff81111561234d57600080fd5b61235984828501612132565b602083015250604082015167ffffffffffffffff81111561237957600080fd5b61238584828501612132565b604083015250606082015167ffffffffffffffff8111156123a557600080fd5b6123b184828501612132565b606083015250608082015167ffffffffffffffff8111156123d157600080fd5b6123dd84828501612132565b60808301525060a06122e28482850161210e565b60006020828403121561240357600080fd5b61240d60206137cd565b825190915067ffffffffffffffff81111561242757600080fd5b61243384828501612132565b82525092915050565b600060a0828403121561244e57600080fd5b61245860a06137cd565b825190915067ffffffffffffffff81111561247257600080fd5b61247e84828501612132565b825250602082015167ffffffffffffffff81111561249b57600080fd5b6124a784828501612132565b602083015250604082015167ffffffffffffffff8111156124c757600080fd5b6124d384828501612132565b604083015250606082015167ffffffffffffffff8111156124f357600080fd5b6124ff84828501612132565b60608301525060806125138482850161210e565b60808301525092915050565b60006020828403121561253157600080fd5b61253b60206137cd565b825190915067ffffffffffffffff81111561255557600080fd5b61243384828501611efc565b6000610100828403121561257457600080fd5b61257f6101006137cd565b825190915067ffffffffffffffff81111561259957600080fd5b6125a584828501612132565b825250602082015167ffffffffffffffff8111156125c257600080fd5b6125ce84828501612132565b602083015250604082015167ffffffffffffffff8111156125ee57600080fd5b6125fa84828501612132565b604083015250606082015167ffffffffffffffff81111561261a57600080fd5b61262684828501612132565b606083015250608082015167ffffffffffffffff81111561264657600080fd5b61265284828501612132565b60808301525060a082015167ffffffffffffffff81111561267257600080fd5b61267e84828501612132565b60a08301525060c082015167ffffffffffffffff81111561269e57600080fd5b6126aa84828501612132565b60c08301525060e082015167ffffffffffffffff8111156126ca57600080fd5b6126d684828501612132565b60e08301525092915050565b600060e082840312156126f457600080fd5b6126fe60e06137cd565b825190915067ffffffffffffffff81111561271857600080fd5b61272484828501612132565b825250602082015167ffffffffffffffff81111561274157600080fd5b61274d84828501612132565b602083015250604082015167ffffffffffffffff81111561276d57600080fd5b61277984828501612132565b604083015250606082015167ffffffffffffffff81111561279957600080fd5b6127a584828501612132565b606083015250608082015167ffffffffffffffff8111156127c557600080fd5b6127d184828501612132565b60808301525060a06127e58482850161210e565b60a08301525060c06127f98482850161210e565b60c08301525092915050565b60006020828403121561281757600080fd5b60006128238484611edd565b949350505050565b60006020828403121561283d57600080fd5b60006128238484611ef0565b6000806040838503121561285c57600080fd5b60006128688585611edd565b92505060206128798582860161211a565b9150509250929050565b60006020828403121561289557600080fd5b813567ffffffffffffffff8111156128ac57600080fd5b61282384828501611f7b565b6000602082840312156128ca57600080fd5b815167ffffffffffffffff8111156128e157600080fd5b61282384828501611feb565b6000602082840312156128ff57600080fd5b815167ffffffffffffffff81111561291657600080fd5b61282384828501612048565b60006020828403121561293457600080fd5b815167ffffffffffffffff81111561294b57600080fd5b612823848285016120a5565b60006020828403121561296957600080fd5b6000612823848461210e565b60006020828403121561298757600080fd5b813567ffffffffffffffff81111561299e57600080fd5b61282384828501612181565b600080600080600060a086880312156129c257600080fd5b853567ffffffffffffffff8111156129d957600080fd5b6129e588828901612181565b955050602086013567ffffffffffffffff811115612a0257600080fd5b612a0e88828901612181565b945050604086013567ffffffffffffffff811115612a2b57600080fd5b612a3788828901612181565b935050606086013567ffffffffffffffff811115612a5457600080fd5b612a6088828901612181565b9250506080612a7188828901612102565b9150509295509295909350565b60008060008060008060c08789031215612a9757600080fd5b863567ffffffffffffffff811115612aae57600080fd5b612aba89828a01612181565b965050602087013567ffffffffffffffff811115612ad757600080fd5b612ae389828a01612181565b955050604087013567ffffffffffffffff811115612b0057600080fd5b612b0c89828a01612181565b945050606087013567ffffffffffffffff811115612b2957600080fd5b612b3589828a01612181565b935050608087013567ffffffffffffffff811115612b5257600080fd5b612b5e89828a01612181565b92505060a0612b6f89828a01612102565b9150509295509295509295565b600080600080600080600060e0888a031215612b9757600080fd5b873567ffffffffffffffff811115612bae57600080fd5b612bba8a828b01612181565b975050602088013567ffffffffffffffff811115612bd757600080fd5b612be38a828b01612181565b965050604088013567ffffffffffffffff811115612c0057600080fd5b612c0c8a828b01612181565b955050606088013567ffffffffffffffff811115612c2957600080fd5b612c358a828b01612181565b945050608088013567ffffffffffffffff811115612c5257600080fd5b612c5e8a828b01612181565b93505060a0612c6f8a828b01612102565b92505060c0612c808a828b01612102565b91505092959891949750929550565b60008060008060008060c08789031215612ca857600080fd5b863567ffffffffffffffff811115612cbf57600080fd5b612ccb89828a01612181565b965050602087013567ffffffffffffffff811115612ce857600080fd5b612cf489828a01612181565b955050604087013567ffffffffffffffff811115612d1157600080fd5b612d1d89828a01612181565b945050606087013567ffffffffffffffff811115612d3a57600080fd5b612d4689828a01612181565b935050608087013567ffffffffffffffff811115612d6357600080fd5b612d6f89828a01612181565b92505060a087013567ffffffffffffffff811115612d8c57600080fd5b612b6f89828a01612181565b600080600080600080600080610100898b031215612db557600080fd5b883567ffffffffffffffff811115612dcc57600080fd5b612dd88b828c01612181565b985050602089013567ffffffffffffffff811115612df557600080fd5b612e018b828c01612181565b975050604089013567ffffffffffffffff811115612e1e57600080fd5b612e2a8b828c01612181565b965050606089013567ffffffffffffffff811115612e4757600080fd5b612e538b828c01612181565b955050608089013567ffffffffffffffff811115612e7057600080fd5b612e7c8b828c01612181565b94505060a089013567ffffffffffffffff811115612e9957600080fd5b612ea58b828c01612181565b93505060c089013567ffffffffffffffff811115612ec257600080fd5b612ece8b828c01612181565b92505060e089013567ffffffffffffffff811115612eeb57600080fd5b612ef78b828c01612181565b9150509295985092959890939650565b600060208284031215612f1957600080fd5b815167ffffffffffffffff811115612f3057600080fd5b612823848285016121c7565b600060208284031215612f4e57600080fd5b815167ffffffffffffffff811115612f6557600080fd5b612823848285016123f1565b600060208284031215612f8357600080fd5b815167ffffffffffffffff811115612f9a57600080fd5b6128238482850161251f565b600060208284031215612fb857600080fd5b815167ffffffffffffffff811115612fcf57600080fd5b61282384828501612561565b600060208284031215612fed57600080fd5b6000612823848461211a565b61300281613847565b82525050565b600061301382613843565b8084526020840193506130258361383d565b60005b828110156130555761303b8683516130b5565b6130448261383d565b602096909601959150600101613028565b5093949350505050565b600061306a82613843565b80845260208401935061307c8361383d565b60005b82811015613055576130928683516130b5565b61309b8261383d565b60209690960195915060010161307f565b61300281613853565b61300281613858565b60006130c982613843565b8084526130dd816020860160208601613867565b6130e681613897565b9093016020019392505050565b805160c08084526000919084019061310b82826130be565b9150506020830151848203602086015261312582826130be565b9150506040830151848203604086015261313f82826130be565b9150506060830151848203606086015261315982826130be565b9150506080830151848203608086015261317382826130be565b91505060a083015184820360a086015261318d82826130be565b95945050505050565b805160c0808452600091908401906131ae82826130be565b915050602083015184820360208601526131c882826130be565b915050604083015184820360408601526131e282826130be565b915050606083015184820360608601526131fc82826130be565b9150506080830151848203608086015261321682826130be565b91505060a083015161322b60a08601826130ac565b509392505050565b805160208084526000919084019061318d82826130be565b805160a08084526000919084019061326382826130be565b9150506020830151848203602086015261327d82826130be565b9150506040830151848203604086015261329782826130be565b915050606083015184820360608601526132b182826130be565b915050608083015161322b60808601826130ac565b805160208084526000919084019061318d828261305f565b8051610100808452600091908401906132f782826130be565b9150506020830151848203602086015261331182826130be565b9150506040830151848203604086015261332b82826130be565b9150506060830151848203606086015261334582826130be565b9150506080830151848203608086015261335f82826130be565b91505060a083015184820360a086015261337982826130be565b91505060c083015184820360c086015261339382826130be565b91505060e083015184820360e086015261318d82826130be565b805160e0808452600091908401906133c582826130be565b915050602083015184820360208601526133df82826130be565b915050604083015184820360408601526133f982826130be565b9150506060830151848203606086015261341382826130be565b9150506080830151848203608086015261342d82826130be565b91505060a083015161344260a08601826130ac565b5060c083015161322b60c08601826130ac565b6020810161120b8284612ff9565b60208082528101611ee98184613008565b6020810161120b82846130ac565b60208082528101611ee981846130be565b60a080825281016134a481886130be565b905081810360208301526134b881876130be565b905081810360408301526134cc81866130be565b905081810360608301526134e081856130be565b90506134ef60808301846130ac565b9695505050505050565b60c0808252810161350a81896130be565b9050818103602083015261351e81886130be565b9050818103604083015261353281876130be565b9050818103606083015261354681866130be565b9050818103608083015261355a81856130be565b905061356960a08301846130ac565b979650505050505050565b60e08082528101613585818a6130be565b9050818103602083015261359981896130be565b905081810360408301526135ad81886130be565b905081810360608301526135c181876130be565b905081810360808301526135d581866130be565b90506135e460a08301856130ac565b6135f160c08301846130ac565b98975050505050505050565b60c0808252810161360e81896130be565b9050818103602083015261362281886130be565b9050818103604083015261363681876130be565b9050818103606083015261364a81866130be565b9050818103608083015261365e81856130be565b905081810360a08301526135f181846130be565b6101008082528101613684818b6130be565b90508181036020830152613698818a6130be565b905081810360408301526136ac81896130be565b905081810360608301526136c081886130be565b905081810360808301526136d481876130be565b905081810360a08301526136e881866130be565b905081810360c08301526136fc81856130be565b905081810360e083015261371081846130be565b9a9950505050505050505050565b6040808252810161372f81856130f3565b9050611ee96020830184612ff9565b6040808252810161372f8185613196565b6040808252810161372f8185613233565b6040808252810161372f818561324b565b6040808252810161372f81856132c6565b6040808252810161372f81856132de565b6040808252810161372f81856133ad565b6020810161120b82846130b5565b604081016137c082856130b5565b611ee96020830184612ff9565b60405181810167ffffffffffffffff811182821017156137ec57600080fd5b604052919050565b600067ffffffffffffffff82111561380b57600080fd5b5060209081020190565b600067ffffffffffffffff82111561382c57600080fd5b506020601f91909101601f19160190565b60200190565b5190565b600160a060020a031690565b151590565b90565b82818337506000910152565b60005b8381101561388257818101518382015260200161386a565b83811115613891576000848401525b50505050565b601f01601f1916905600e0d4f1c3000000000000000000000000000000000000000000000000000000000000000100000000000000000000000000000000000000000000000000000000a265627a7a72305820a68edf5b3710d535a92b44245c55f699f1c9c9e3547426f9939dd8b758d44bc86c6578706572696d656e74616cf50037",
  "source": "/**\r\n * This contract acts as a controller for front-end\r\n * requests. The DB file is separate incase, solidity adds\r\n * functionality to return structs. In that case, only\r\n * this contract needs to be redeployed and data migration\r\n * will not be needed as the data is stored in DB.sol\r\n * contract.\r\n */\r\npragma solidity ^0.4.24;\r\npragma experimental ABIEncoderV2; // experimental\r\n\r\n// import user.sol contract\r\nimport \"./User.sol\";\r\nimport \"./DB.sol\";\r\n\r\n// @title Blockvitae for CV\r\ncontract Blockvitae {\r\n\r\n    using User for User.UserMain;\r\n\r\n    // DB\r\n    DB private dbContract;\r\n\r\n    // owner of the contract\r\n    address public owner;\r\n\r\n    // checks if the user has an account or not\r\n    modifier userExists() {\r\n        require (dbContract.isExists(msg.sender));\r\n        _;\r\n    }\r\n\r\n    // checks if the address is not zero\r\n    modifier addressNotZero() {\r\n        require (msg.sender != address(0));\r\n        _;\r\n    }\r\n\r\n    // check for the owner\r\n    modifier isOwner() {\r\n        require(owner == msg.sender);\r\n        _;\r\n    }\r\n\r\n    // sets the owner of the contract\r\n    constructor(DB _dbContract) public {\r\n        dbContract = _dbContract;\r\n        owner = msg.sender;\r\n\r\n        // set this contract as the owner of DB contract\r\n        // to avoid any external calls to DB contract\r\n        // All calls to DB contract should pass through this\r\n        // contract\r\n        dbContract.setOwner(address(this));\r\n    } \r\n\r\n    // @description\r\n    // Change Owner function incase Blockviate is redeployed\r\n    // old Blockviate should be able to update the owner to new \r\n    // Blockviate.\r\n    //\r\n    // @param address _owner\r\n    // address of the new owner \r\n    function setOwner(address _owner) public isOwner {\r\n        owner = _owner;\r\n    }\r\n\r\n    // @description\r\n    // creates UserDetail struct\r\n    //\r\n    // @param string _fullName \r\n    // full name of the user\r\n    //\r\n    // @param string _userName \r\n    // username of the user\r\n    //\r\n    // @param string _imgUrl \r\n    // profile image url of the user\r\n    //\r\n    // @param string _email \r\n    // email of the user\r\n    //\r\n    // @param string _location\r\n    // (City, State) of the user\r\n    //\r\n    // @param string _description\r\n    // One line descriprion of the user\r\n    function createUserDetail(\r\n        string _fullName,\r\n        string _userName,\r\n        string _imgUrl,\r\n        string _email,\r\n        string _location,\r\n        string _description\r\n    )\r\n    public\r\n    addressNotZero\r\n    {\r\n        // insert into the database\r\n        dbContract.insertUserDetail(User.setUserDetail(\r\n            _fullName,\r\n            _userName,\r\n            _imgUrl,\r\n            _email,\r\n            _location,\r\n            _description), msg.sender);\r\n    }\r\n\r\n    // @description\r\n    // create UserSocial struct and insers in DB\r\n    // \r\n    // @param string _websiteUrl\r\n    // personal website url\r\n    //\r\n    // @param string _twitterUrl\r\n    // twitter url of the user\r\n    //\r\n    // @param string _fbUrl\r\n    // facebook url of the user\r\n    //\r\n    // @param string _githubUrl\r\n    // github url of the user\r\n    //\r\n    // @param string _linkedInUrl\r\n    // linked in url of the user\r\n    //\r\n    // @param string _behanceUrl\r\n    // behance url of the user\r\n    //\r\n    // @param string _mediumUrl\r\n    // medium url of the user\r\n    function createUserSocial(\r\n        string _websiteUrl,\r\n        string _twitterUrl,\r\n        string _fbUrl,\r\n        string _githubUrl,\r\n        string _dribbbleUrl,\r\n        string _linkedInUrl,\r\n        string _behanceUrl,\r\n        string _mediumUrl\r\n    )\r\n    public\r\n    addressNotZero\r\n    userExists\r\n    {\r\n        // insert into the database\r\n        dbContract.insertUserSocial(User.setUserSocial(\r\n            _websiteUrl,\r\n            _twitterUrl,\r\n            _fbUrl,\r\n            _githubUrl,\r\n            _dribbbleUrl,\r\n            _linkedInUrl,\r\n            _behanceUrl,\r\n            _mediumUrl), msg.sender);\r\n    }\r\n\r\n    // @description\r\n    // creates UserProject struct and insert in DB\r\n    //\r\n    // @param string _name\r\n    // name of the \r\n    //\r\n    // @param string _shortDescription\r\n    // One line description of the project\r\n    //\r\n    // @param string _description \r\n    // description of the project\r\n    //\r\n    // @param bool _isDeleted\r\n    // true if the current record has been deleted by the user\r\n    //\r\n    // @param string _url\r\n    // url of the project\r\n    function createUserProject(\r\n        string _name,\r\n        string _shortDescription,\r\n        string _description,\r\n        string _url,\r\n        bool _isDeleted\r\n    )\r\n    public\r\n    addressNotZero\r\n    userExists\r\n    {\r\n        // insert into the database\r\n        dbContract.insertUserProject(User.setUserProject(\r\n            _name,\r\n            _shortDescription,\r\n            _description,\r\n            _url,\r\n            _isDeleted), msg.sender);\r\n    }\r\n\r\n    // @description\r\n    // creates UserWorkExp struct and inserts in DB\r\n    //\r\n    // @param string _company\r\n    // name of the company or organization\r\n    //\r\n    // @param string _position\r\n    // position held in the given company\r\n    //\r\n    // @param string _dateStart\r\n    // start date of the job\r\n    //\r\n    // @param string _dateEnd\r\n    // end date of the job\r\n    //\r\n    // @param string _description\r\n    // description of the work experience\r\n    //\r\n    // @param bool _isDeleted\r\n    // true if the current record has been deleted by the user\r\n    //\r\n    // @param bool _isWorking\r\n    // true if user still works here\r\n    function createUserWorkExp(\r\n        string _company,\r\n        string _position,\r\n        string _dateStart,\r\n        string _dateEnd,\r\n        string _description,\r\n        bool _isWorking,\r\n        bool _isDeleted\r\n    )\r\n    public\r\n    addressNotZero\r\n    userExists\r\n    {\r\n        // insert in to database\r\n        dbContract.insertUserWorkExp(User.setUserWorkExp(\r\n            _company,\r\n            _position,\r\n            _dateStart,\r\n            _dateEnd,\r\n            _description,\r\n            _isWorking,\r\n            _isDeleted), msg.sender);\r\n    }\r\n\r\n    // @description\r\n    // creates UserSkill struct and inserts in DB\r\n    //\r\n    // @param bytes32[] _skills\r\n    // array of skills\r\n    function createUserSkill(bytes32[] _skills) public addressNotZero userExists {\r\n        // insert into DB\r\n        dbContract.insertUserSkill(User.setUserSkill(_skills), msg.sender);\r\n    }\r\n\r\n    // @description\r\n    // creates UserIntroduction struct and inserts in DB\r\n    //\r\n    // @param string _introduction\r\n    // introduction of the user\r\n    function createUserIntroduction(string _introduction) public addressNotZero userExists {\r\n        // insert into DB\r\n        dbContract.insertUserIntroduction(User.setUserIntroduction(_introduction), msg.sender);\r\n    }\r\n\r\n    // @description\r\n    // creates UserEducation struct and inserts in DB\r\n    //\r\n     // @param string _organization\r\n    // name of the organization\r\n    //\r\n    // @param string _level\r\n    // education level held in the given organization\r\n    //\r\n    // @param string _dateStart\r\n    // start date of the education\r\n    //\r\n    // @param string _dateEnd\r\n    // end date of the education\r\n    //\r\n    // @param string _description\r\n    // description of the education\r\n    //\r\n    // @param bool _isDeleted\r\n    // true if the current record has been deleted by the user\r\n    //\r\n    // @return UserEducation\r\n    // UserEducation struct for the given values\r\n    function createUserEducation(\r\n        string _organization,\r\n        string _level,\r\n        string _dateStart,\r\n        string _dateEnd,\r\n        string _description,\r\n        bool _isDeleted \r\n    )\r\n    public\r\n    addressNotZero\r\n    userExists\r\n    {\r\n        // insert in the database\r\n        dbContract.insertUserEducation(User.setUserEducation(\r\n            _organization,\r\n            _level,\r\n            _dateStart,\r\n            _dateEnd,\r\n            _description,\r\n            _isDeleted), msg.sender);\r\n    }\r\n\r\n    // @description\r\n    // gets count of total education added\r\n    //\r\n    // @param address _user\r\n    // address of the user who's data is to be searched\r\n    //\r\n    // @return uint\r\n    // count of the total education for the given user\r\n    function getEducationCount(address _user)\r\n    public\r\n    view\r\n    returns(uint) {\r\n        return dbContract.findUserEducation(_user).length;\r\n    }\r\n\r\n    // @description\r\n    // gets the user education with the given index for the given user\r\n    //\r\n    // @param address _user\r\n    // address of the user who's education is to be searched\r\n    //\r\n    // @param uint _index\r\n    // index of the education to be searched\r\n    //\r\n    // @return (string, string, string, string, string, bool)\r\n    // organization, level, dateStart, dateEnd\r\n    // and description of the education with given index\r\n    function getUserEducation(address _user, uint _index)\r\n    public\r\n    view\r\n    returns(string, string, string, string, string, bool) {\r\n        User.UserEducation[] memory education = dbContract.findUserEducation(_user);\r\n\r\n        return (education[_index].organization, education[_index].level, \r\n        education[_index].dateStart, education[_index].dateEnd, \r\n        education[_index].description, education[_index].isDeleted);\r\n    }\r\n\r\n    // @description\r\n    // deletes the education for the given index and address\r\n    //\r\n    // @param uint _index\r\n    // index of the education to be deleted\r\n    function deleteUserEducation(uint _index)\r\n    public\r\n    addressNotZero\r\n    userExists\r\n    {\r\n        dbContract.deleteEducation(_index, msg.sender);\r\n    }\r\n\r\n    // @description\r\n    // gets the array of skills of the user\r\n    //\r\n    // @param address _user\r\n    // address of the user who's data is to be searched\r\n    //\r\n    // @return bytes32[]\r\n    // array of skills of the user with given address\r\n    function getUserSkills(address _user) public view returns(bytes32[]) {\r\n        return dbContract.findUserSkill(_user).skills;\r\n    }\r\n\r\n    // @description\r\n    // gets the string of introduction of the user\r\n    //\r\n    // @param address _user\r\n    // address of the user who's data is to be searched\r\n    //\r\n    // @return string\r\n    // introduction of the user with given address\r\n    function getUserIntroduction(address _user) public view returns(string) {\r\n        return dbContract.findUserIntroduction(_user).introduction;\r\n    }\r\n\r\n    // @description\r\n    // Solidity doesn't allow to return array of strings\r\n    // Therefore, get count of projects first and\r\n    // then get each project one at a time from front end\r\n    //\r\n    // @param address _user\r\n    // address of the user who's data is to be searched\r\n    //\r\n    // @return uint\r\n    // count of the total projects for the given user\r\n    function getProjectCount(address _user) \r\n    public \r\n    view \r\n    returns(uint) {\r\n        return dbContract.findUserProject(_user).length;\r\n    }\r\n\r\n    // @description\r\n    // gets the user project with the given index for the given user\r\n    //\r\n    // @param address _user\r\n    // address of the user who's projects are to be searched\r\n    //\r\n    // @param uint _index\r\n    // index of the project to be searched\r\n    //\r\n    // @return (string, string, string, string, bool)\r\n    // name, short description, description and url of the project with given index\r\n    function getUserProject(address _user, uint _index)\r\n    public\r\n    view\r\n    returns(string, string, string, string, bool) {\r\n        User.UserProject[] memory projects = dbContract.findUserProject(_user);\r\n    \r\n        return (projects[_index].name, projects[_index].shortDescription, \r\n        projects[_index].description, projects[_index].url,\r\n        projects[_index].isDeleted);\r\n    }\r\n\r\n    // @description\r\n    // deletes the project for the given index and address\r\n    //\r\n    // @param uint _index\r\n    // index of the project to be deleted\r\n    function deleteUserProject(uint _index)\r\n    public\r\n    addressNotZero\r\n    userExists\r\n    {\r\n        dbContract.deleteProject(_index, msg.sender);\r\n    }\r\n\r\n\r\n    // @description\r\n    // gets count of total work experiences added\r\n    //\r\n    // @param address _user\r\n    // address of the user who's data is to be searched\r\n    //\r\n    // @return uint\r\n    // count of the total work exp for the given user\r\n    function getWorkExpCount(address _user) \r\n    public \r\n    view \r\n    returns(uint) {\r\n        return dbContract.findUserWorkExp(_user).length;\r\n    }\r\n\r\n    // @description\r\n    // gets the user work exp with the given index for the given user\r\n    //\r\n    // @param address _user\r\n    // address of the user who's work exp are to be searched\r\n    //\r\n    // @param uint _index\r\n    // index of the work exp to be searched\r\n    //\r\n    // @return (string, string, string, string, string, bool, bool)\r\n    // company, position, dateStart, dateEnd\r\n    // and description of the work exp with given index\r\n    function getUserWorkExp(address _user, uint _index)\r\n    public\r\n    view\r\n    returns(string, string, string, string, string, bool, bool) {\r\n        User.UserWorkExp[] memory work = dbContract.findUserWorkExp(_user);\r\n    \r\n        return (work[_index].company, work[_index].position, work[_index].dateStart, \r\n        work[_index].dateEnd, work[_index].description, \r\n        work[_index].isWorking, work[_index].isDeleted);\r\n    }\r\n\r\n    // @description\r\n    // deletes the workexp for the given index and address\r\n    //\r\n    // @param uint _index\r\n    // index of the workexp to be deleted\r\n    function deleteUserWorkExp(uint _index)\r\n    public\r\n    addressNotZero\r\n    userExists\r\n    {\r\n        dbContract.deleteWorkExp(_index, msg.sender);\r\n    }\r\n\r\n    // @description \r\n    // returns UserDetail struct values\r\n    // for the given address if user exists\r\n    //\r\n    // @param address _user \r\n    // address of the user for which UserDetail is \r\n    // to be searched\r\n    //\r\n    // @return (string, string, string, string, string, string)\r\n    // array of strings containing values of \r\n    // UserDetail struct in the respective order\r\n    function getUserDetail(address _user)  \r\n    public \r\n    view\r\n    returns(string, string, string, string, string, string) \r\n    {\r\n        // find the user details\r\n        User.UserDetail memory personal = dbContract.findUserDetail(_user);\r\n\r\n        // return\r\n        return (personal.fullName, personal.userName, personal.imgUrl, \r\n        personal.email, personal.location, personal.description);\r\n    }\r\n\r\n    // @description \r\n    // returns UserSocial struct values\r\n    // for the given address if user exists\r\n    //\r\n    // @param address _user \r\n    // address of the user for which UserSocial is \r\n    // to be searched\r\n    //\r\n    // @return (string, string, string, string, string, string, string, string)\r\n    // array of strings containing values of \r\n    // UserSocial struct in the respective order\r\n    function getUserSocial(address _user)  \r\n    public \r\n    view\r\n    returns(string, string, string, string, string, string, string, string) \r\n    {\r\n        // find the user details\r\n        User.UserSocial memory social = dbContract.findUserSocial(_user);\r\n\r\n        // return\r\n        return (social.websiteUrl, social.twitterUrl, social.fbUrl, social.githubUrl, social.dribbbleUrl, \r\n            social.linkedInUrl, social.behanceUrl, social.mediumUrl);\r\n    }\r\n\r\n    // @description\r\n    // finds the address the given userName\r\n    //\r\n    // @param string _userName\r\n    // userName of the user who's address is to be searched\r\n    //\r\n    // @return address\r\n    // address of the user with given userName\r\n    function getAddrForUserName(string _userName)\r\n    public\r\n    view\r\n    returns(address) \r\n    {\r\n        return dbContract.findAddrForUserName(_userName);\r\n    }\r\n\r\n    // @description\r\n    // Checks if the given username is available or taken\r\n    //\r\n    // @param string _userName\r\n    // username to be checked\r\n    //\r\n    // @return bool\r\n    // true if username is available else false\r\n    function isUsernameAvailable(string _userName)\r\n    public\r\n    view\r\n    returns(bool)\r\n    {\r\n        return dbContract.usernameExists(_userName);\r\n    }\r\n}",
  "sourcePath": "E:\\GitHub\\Blockchain\\Blockvitae\\blockvitae-ethereum\\contracts\\Blockvitae.sol",
  "compiler": {
    "name": "solc",
    "version": "0.4.24+commit.e67f0147.Emscripten.clang"
  },
  "schemaVersion": "2.0.0",
  "updatedAt": "2018-07-08T02:07:24.297Z"
}