{
  "contractName": "Blockvitae",
  "abi": [
    {
      "constant": true,
      "inputs": [],
      "name": "dbContract",
      "outputs": [
        {
          "name": "",
          "type": "address"
        }
      ],
      "payable": false,
      "stateMutability": "view",
      "type": "function"
    },
    {
      "constant": true,
      "inputs": [],
      "name": "owner",
      "outputs": [
        {
          "name": "",
          "type": "address"
        }
      ],
      "payable": false,
      "stateMutability": "view",
      "type": "function"
    },
    {
      "inputs": [
        {
          "name": "_dbContract",
          "type": "address"
        }
      ],
      "payable": false,
      "stateMutability": "nonpayable",
      "type": "constructor"
    },
    {
      "constant": false,
      "inputs": [
        {
          "name": "_owner",
          "type": "address"
        }
      ],
      "name": "setOwner",
      "outputs": [],
      "payable": false,
      "stateMutability": "nonpayable",
      "type": "function"
    },
    {
      "constant": false,
      "inputs": [
        {
          "name": "_fullName",
          "type": "string"
        },
        {
          "name": "_userName",
          "type": "string"
        },
        {
          "name": "_imgUrl",
          "type": "string"
        },
        {
          "name": "_email",
          "type": "string"
        }
      ],
      "name": "createUserDetail",
      "outputs": [],
      "payable": false,
      "stateMutability": "nonpayable",
      "type": "function"
    },
    {
      "constant": false,
      "inputs": [
        {
          "name": "_twitterUrl",
          "type": "string"
        },
        {
          "name": "_fbUrl",
          "type": "string"
        },
        {
          "name": "_githubUrl",
          "type": "string"
        },
        {
          "name": "_dribbbleUrl",
          "type": "string"
        },
        {
          "name": "_linkedInUrl",
          "type": "string"
        },
        {
          "name": "_behanceUrl",
          "type": "string"
        },
        {
          "name": "_mediumUrl",
          "type": "string"
        }
      ],
      "name": "createUserSocial",
      "outputs": [],
      "payable": false,
      "stateMutability": "nonpayable",
      "type": "function"
    },
    {
      "constant": false,
      "inputs": [
        {
          "name": "_name",
          "type": "string"
        },
        {
          "name": "_description",
          "type": "string"
        },
        {
          "name": "_url",
          "type": "string"
        }
      ],
      "name": "createUserProject",
      "outputs": [],
      "payable": false,
      "stateMutability": "nonpayable",
      "type": "function"
    },
    {
      "constant": false,
      "inputs": [
        {
          "name": "_company",
          "type": "string"
        },
        {
          "name": "_position",
          "type": "string"
        },
        {
          "name": "_dateStart",
          "type": "string"
        },
        {
          "name": "_dateEnd",
          "type": "string"
        },
        {
          "name": "_description",
          "type": "string"
        }
      ],
      "name": "createUserWorkExp",
      "outputs": [],
      "payable": false,
      "stateMutability": "nonpayable",
      "type": "function"
    },
    {
      "constant": false,
      "inputs": [
        {
          "name": "_skills",
          "type": "bytes32[]"
        }
      ],
      "name": "createUserSkill",
      "outputs": [],
      "payable": false,
      "stateMutability": "nonpayable",
      "type": "function"
    },
    {
      "constant": false,
      "inputs": [
        {
          "name": "_organization",
          "type": "string"
        },
        {
          "name": "_level",
          "type": "string"
        },
        {
          "name": "_dateStart",
          "type": "string"
        },
        {
          "name": "_dateEnd",
          "type": "string"
        },
        {
          "name": "_description",
          "type": "string"
        }
      ],
      "name": "createUserEducation",
      "outputs": [],
      "payable": false,
      "stateMutability": "nonpayable",
      "type": "function"
    },
    {
      "constant": true,
      "inputs": [
        {
          "name": "_user",
          "type": "address"
        }
      ],
      "name": "getEducationCount",
      "outputs": [
        {
          "name": "",
          "type": "uint256"
        }
      ],
      "payable": false,
      "stateMutability": "view",
      "type": "function"
    },
    {
      "constant": true,
      "inputs": [
        {
          "name": "_user",
          "type": "address"
        },
        {
          "name": "index",
          "type": "uint256"
        }
      ],
      "name": "getUserEducation",
      "outputs": [
        {
          "name": "",
          "type": "string"
        },
        {
          "name": "",
          "type": "string"
        },
        {
          "name": "",
          "type": "string"
        },
        {
          "name": "",
          "type": "string"
        },
        {
          "name": "",
          "type": "string"
        }
      ],
      "payable": false,
      "stateMutability": "view",
      "type": "function"
    },
    {
      "constant": true,
      "inputs": [
        {
          "name": "_user",
          "type": "address"
        }
      ],
      "name": "getUserSkills",
      "outputs": [
        {
          "name": "",
          "type": "bytes32[]"
        }
      ],
      "payable": false,
      "stateMutability": "view",
      "type": "function"
    },
    {
      "constant": true,
      "inputs": [
        {
          "name": "_user",
          "type": "address"
        }
      ],
      "name": "getProjectCount",
      "outputs": [
        {
          "name": "",
          "type": "uint256"
        }
      ],
      "payable": false,
      "stateMutability": "view",
      "type": "function"
    },
    {
      "constant": true,
      "inputs": [
        {
          "name": "_user",
          "type": "address"
        },
        {
          "name": "index",
          "type": "uint256"
        }
      ],
      "name": "getUserProject",
      "outputs": [
        {
          "name": "",
          "type": "string"
        },
        {
          "name": "",
          "type": "string"
        },
        {
          "name": "",
          "type": "string"
        }
      ],
      "payable": false,
      "stateMutability": "view",
      "type": "function"
    },
    {
      "constant": true,
      "inputs": [
        {
          "name": "_user",
          "type": "address"
        }
      ],
      "name": "getWorkExpCount",
      "outputs": [
        {
          "name": "",
          "type": "uint256"
        }
      ],
      "payable": false,
      "stateMutability": "view",
      "type": "function"
    },
    {
      "constant": true,
      "inputs": [
        {
          "name": "_user",
          "type": "address"
        },
        {
          "name": "index",
          "type": "uint256"
        }
      ],
      "name": "getUserWorkExp",
      "outputs": [
        {
          "name": "",
          "type": "string"
        },
        {
          "name": "",
          "type": "string"
        },
        {
          "name": "",
          "type": "string"
        },
        {
          "name": "",
          "type": "string"
        },
        {
          "name": "",
          "type": "string"
        }
      ],
      "payable": false,
      "stateMutability": "view",
      "type": "function"
    },
    {
      "constant": true,
      "inputs": [
        {
          "name": "_user",
          "type": "address"
        }
      ],
      "name": "getUserDetail",
      "outputs": [
        {
          "name": "",
          "type": "string"
        },
        {
          "name": "",
          "type": "string"
        },
        {
          "name": "",
          "type": "string"
        },
        {
          "name": "",
          "type": "string"
        }
      ],
      "payable": false,
      "stateMutability": "view",
      "type": "function"
    },
    {
      "constant": true,
      "inputs": [
        {
          "name": "_user",
          "type": "address"
        }
      ],
      "name": "getUserSocial",
      "outputs": [
        {
          "name": "",
          "type": "string"
        },
        {
          "name": "",
          "type": "string"
        },
        {
          "name": "",
          "type": "string"
        },
        {
          "name": "",
          "type": "string"
        },
        {
          "name": "",
          "type": "string"
        },
        {
          "name": "",
          "type": "string"
        },
        {
          "name": "",
          "type": "string"
        }
      ],
      "payable": false,
      "stateMutability": "view",
      "type": "function"
    },
    {
      "constant": true,
      "inputs": [
        {
          "name": "_userName",
          "type": "string"
        }
      ],
      "name": "getAddrForUserName",
      "outputs": [
        {
          "name": "",
          "type": "address"
        }
      ],
      "payable": false,
      "stateMutability": "view",
      "type": "function"
    }
  ],
  "bytecode": "0x60806040523480156200001157600080fd5b5060405160208062002b348339810180604052620000339190810190620000ee565b60008054600160a060020a03808416600160a060020a031992831617928390556001805490921633179091556040517f13af40350000000000000000000000000000000000000000000000000000000081529116906313af4035906200009e90309060040162000128565b600060405180830381600087803b158015620000b957600080fd5b505af1158015620000ce573d6000803e3d6000fd5b505050505062000157565b6000620000e782516200014a565b9392505050565b6000602082840312156200010157600080fd5b60006200010f8484620000d9565b949350505050565b62000122816200013e565b82525050565b6020810162000138828462000117565b92915050565b600160a060020a031690565b600062000138826200013e565b6129cd80620001676000396000f3006080604052600436106101065763ffffffff7c01000000000000000000000000000000000000000000000000000000006000350416630168fe81811461010b578063038b1f921461014157806306602d82146101725780630e586670146101a557806313af4035146101d45780631a0a4d4c146101f65780632251f8b1146102165780633e94f93d1461023657806342ce594a146102565780634a48c84b1461027657806366f23caa146102a65780636962f9f1146102c8578063770685ac146102e85780638c28105e146103155780638da5cb5b14610335578063968f419d1461034a578063b6d9226b1461036a578063d2886ebc1461038a578063f4b17291146103b7575b600080fd5b34801561011757600080fd5b5061012b610126366004611daa565b6103d7565b60405161013891906128a6565b60405180910390f35b34801561014d57600080fd5b5061016161015c366004611dee565b61047e565b604051610138959493929190612740565b34801561017e57600080fd5b5061019261018d366004611daa565b6105ec565b60405161013897969594939291906127ac565b3480156101b157600080fd5b506101c56101c0366004611dee565b6106d6565b604051610138939291906126b0565b3480156101e057600080fd5b506101f46101ef366004611daa565b6107ec565b005b34801561020257600080fd5b5061012b610211366004611daa565b610832565b34801561022257600080fd5b506101f46102313660046120a3565b6108d2565b34801561024257600080fd5b506101f4610251366004611fe3565b610a1f565b34801561026257600080fd5b506101f4610271366004611e28565b610ac4565b34801561028257600080fd5b50610296610291366004611daa565b610c09565b60405161013894939291906126e9565b3480156102b257600080fd5b506102bb610cd8565b6040516101389190612691565b3480156102d457600080fd5b506101f46102e336600461218f565b610ce7565b3480156102f457600080fd5b50610308610303366004611f1a565b610e38565b6040516101389190612672565b34801561032157600080fd5b506101f46103303660046120a3565b610eda565b34801561034157600080fd5b50610308610fed565b34801561035657600080fd5b506101f4610365366004611f4f565b610ffc565b34801561037657600080fd5b50610161610385366004611dee565b611145565b34801561039657600080fd5b506103aa6103a5366004611daa565b611208565b6040516101389190612680565b3480156103c357600080fd5b5061012b6103d2366004611daa565b6112a8565b600080546040517f586a1f47000000000000000000000000000000000000000000000000000000008152600160a060020a039091169063586a1f4790610421908590600401612672565b600060405180830381600087803b15801561043b57600080fd5b505af115801561044f573d6000803e3d6000fd5b505050506040513d6000823e601f3d908101601f191682016040526104779190810190611ec7565b5192915050565b60608060608060608060608060608060606000809054906101000a9004600160a060020a0316600160a060020a031663099c34d98e6040518263ffffffff167c01000000000000000000000000000000000000000000000000000000000281526004016104eb9190612672565b600060405180830381600087803b15801561050557600080fd5b505af1158015610519573d6000803e3d6000fd5b505050506040513d6000823e601f3d908101601f191682016040526105419190810190611e5d565b9550858c81518110151561055157fe5b90602001906020020151600001519450858c81518110151561056f57fe5b90602001906020020151602001519350858c81518110151561058d57fe5b90602001906020020151604001519250858c8151811015156105ab57fe5b90602001906020020151606001519150858c8151811015156105c957fe5b6020908102909101015160800151949d939c50919a509850919650945050505050565b60608060608060608060606105ff6115f6565b6000546040517fe9411881000000000000000000000000000000000000000000000000000000008152600160a060020a039091169063e941188190610648908c90600401612672565b600060405180830381600087803b15801561066257600080fd5b505af1158015610676573d6000803e3d6000fd5b505050506040513d6000823e601f3d908101601f1916820160405261069e919081019061233c565b8051602082015160408301516060840151608085015160a086015160c090960151949f939e50919c509a509850919650945092505050565b6000546040517f93a8022c000000000000000000000000000000000000000000000000000000008152606091829182918291829182918291600160a060020a0316906393a8022c9061072c908c90600401612672565b600060405180830381600087803b15801561074657600080fd5b505af115801561075a573d6000803e3d6000fd5b505050506040513d6000823e601f3d908101601f191682016040526107829190810190611e92565b9350838881518110151561079257fe5b9060200190602002015160000151925083888151811015156107b057fe5b9060200190602002015160200151915083888151811015156107ce57fe5b60209081029091010151604001519299919850919650945050505050565b600154600160a060020a0316331461080357600080fd5b6001805473ffffffffffffffffffffffffffffffffffffffff1916600160a060020a0392909216919091179055565b600080546040517f93a8022c000000000000000000000000000000000000000000000000000000008152600160a060020a03909116906393a8022c9061087c908590600401612672565b600060405180830381600087803b15801561089657600080fd5b505af11580156108aa573d6000803e3d6000fd5b505050506040513d6000823e601f3d908101601f191682016040526104779190810190611e92565b6108da611634565b3315156108e657600080fd5b6000546040517fe0d4f1c3000000000000000000000000000000000000000000000000000000008152600160a060020a039091169063e0d4f1c39061092f903390600401612672565b602060405180830381600087803b15801561094957600080fd5b505af115801561095d573d6000803e3d6000fd5b505050506040513d601f19601f820116820180604052506109819190810190611efc565b151561098c57600080fd5b6109998686868686611348565b6000546040517f21d6eb07000000000000000000000000000000000000000000000000000000008152919250600160a060020a0316906321d6eb07906109e59084903390600401612862565b600060405180830381600087803b1580156109ff57600080fd5b505af1158015610a13573d6000803e3d6000fd5b50505050505050505050565b610a27611664565b331515610a3357600080fd5b610a3f8585858561141c565b6000546040517f8822269e000000000000000000000000000000000000000000000000000000008152919250600160a060020a031690638822269e90610a8b9084903390600401612842565b600060405180830381600087803b158015610aa557600080fd5b505af1158015610ab9573d6000803e3d6000fd5b505050505050505050565b610acc61168d565b331515610ad857600080fd5b6000546040517fe0d4f1c3000000000000000000000000000000000000000000000000000000008152600160a060020a039091169063e0d4f1c390610b21903390600401612672565b602060405180830381600087803b158015610b3b57600080fd5b505af1158015610b4f573d6000803e3d6000fd5b505050506040513d601f19601f82011682018060405250610b739190810190611efc565b1515610b7e57600080fd5b610b8782611445565b6000546040517f1a57db1f000000000000000000000000000000000000000000000000000000008152919250600160a060020a031690631a57db1f90610bd39084903390600401612884565b600060405180830381600087803b158015610bed57600080fd5b505af1158015610c01573d6000803e3d6000fd5b505050505050565b606080606080610c17611664565b6000546040517f11934703000000000000000000000000000000000000000000000000000000008152600160a060020a0390911690631193470390610c60908990600401612672565b600060405180830381600087803b158015610c7a57600080fd5b505af1158015610c8e573d6000803e3d6000fd5b505050506040513d6000823e601f3d908101601f19168201604052610cb691908101906122d2565b8051602082015160408301516060909301519199909850919650945092505050565b600054600160a060020a031681565b610cef6115f6565b331515610cfb57600080fd5b6000546040517fe0d4f1c3000000000000000000000000000000000000000000000000000000008152600160a060020a039091169063e0d4f1c390610d44903390600401612672565b602060405180830381600087803b158015610d5e57600080fd5b505af1158015610d72573d6000803e3d6000fd5b505050506040513d601f19601f82011682018060405250610d969190810190611efc565b1515610da157600080fd5b610db08888888888888861145c565b6000546040517f37799bbd000000000000000000000000000000000000000000000000000000008152919250600160a060020a0316906337799bbd90610dfc9084903390600401612895565b600060405180830381600087803b158015610e1657600080fd5b505af1158015610e2a573d6000803e3d6000fd5b505050505050505050505050565b600080546040517fd9148419000000000000000000000000000000000000000000000000000000008152600160a060020a039091169063d914841990610e8290859060040161269f565b602060405180830381600087803b158015610e9c57600080fd5b505af1158015610eb0573d6000803e3d6000fd5b505050506040513d601f19601f82011682018060405250610ed49190810190611dd0565b92915050565b610ee2611634565b331515610eee57600080fd5b6000546040517fe0d4f1c3000000000000000000000000000000000000000000000000000000008152600160a060020a039091169063e0d4f1c390610f37903390600401612672565b602060405180830381600087803b158015610f5157600080fd5b505af1158015610f65573d6000803e3d6000fd5b505050506040513d601f19601f82011682018060405250610f899190810190611efc565b1515610f9457600080fd5b610fa18686868686611348565b6000546040517f9fec7fcb000000000000000000000000000000000000000000000000000000008152919250600160a060020a031690639fec7fcb906109e59084903390600401612862565b600154600160a060020a031681565b61100461169f565b33151561101057600080fd5b6000546040517fe0d4f1c3000000000000000000000000000000000000000000000000000000008152600160a060020a039091169063e0d4f1c390611059903390600401612672565b602060405180830381600087803b15801561107357600080fd5b505af1158015611087573d6000803e3d6000fd5b505050506040513d601f19601f820116820180604052506110ab9190810190611efc565b15156110b657600080fd5b6110c184848461156a565b6000546040517fc7f05246000000000000000000000000000000000000000000000000000000008152919250600160a060020a03169063c7f052469061110d9084903390600401612873565b600060405180830381600087803b15801561112757600080fd5b505af115801561113b573d6000803e3d6000fd5b5050505050505050565b60608060608060608060608060608060606000809054906101000a9004600160a060020a0316600160a060020a031663586a1f478e6040518263ffffffff167c01000000000000000000000000000000000000000000000000000000000281526004016111b29190612672565b600060405180830381600087803b1580156111cc57600080fd5b505af11580156111e0573d6000803e3d6000fd5b505050506040513d6000823e601f3d908101601f191682016040526105419190810190611ec7565b6000546040517f066b2a1e000000000000000000000000000000000000000000000000000000008152606091600160a060020a03169063066b2a1e90611252908590600401612672565b600060405180830381600087803b15801561126c57600080fd5b505af1158015611280573d6000803e3d6000fd5b505050506040513d6000823e601f3d908101601f191682016040526104779190810190612307565b600080546040517f099c34d9000000000000000000000000000000000000000000000000000000008152600160a060020a039091169063099c34d9906112f2908590600401612672565b600060405180830381600087803b15801561130c57600080fd5b505af1158015611320573d6000803e3d6000fd5b505050506040513d6000823e601f3d908101601f191682016040526104779190810190611e5d565b611350611634565b611358611634565b865160001061136657600080fd5b8651151561138257604080516020810190915260008152611384565b865b8152855115156113a2576040805160208101909152600081526113a4565b855b6020820152845115156113c5576040805160208101909152600081526113c7565b845b6040820152835115156113e8576040805160208101909152600081526113ea565b835b60608201528251151561140b5760408051602081019091526000815261140d565b825b60808201529695505050505050565b611424611664565b61142c611664565b9485525060208401929092526040830152606082015290565b61144d61168d565b61145561168d565b9182525090565b6114646115f6565b61146c6115f6565b885115156114885760408051602081019091526000815261148a565b885b8152875115156114a8576040805160208101909152600081526114aa565b875b6020820152865115156114cb576040805160208101909152600081526114cd565b865b6040820152855115156114ee576040805160208101909152600081526114f0565b855b60608201528451151561151157604080516020810190915260008152611513565b845b60808201528351151561153457604080516020810190915260008152611536565b835b60a08201528251151561155757604080516020810190915260008152611559565b825b60c082015298975050505050505050565b61157261169f565b61157a61169f565b845160001061158857600080fd5b835115156115a4576040805160208101909152600081526115a6565b835b6020820152845115156115c7576040805160208101909152600081526115c9565b845b8152825115156115e7576040805160208101909152600081526115e9565b825b6040820152949350505050565b60e060405190810160405280606081526020016060815260200160608152602001606081526020016060815260200160608152602001606081525090565b60a06040519081016040528060608152602001606081526020016060815260200160608152602001606081525090565b608060405190810160405280606081526020016060815260200160608152602001606081525090565b60408051602081019091526060815290565b6060604051908101604052806060815260200160608152602001606081525090565b60006116cd823561292e565b9392505050565b60006116cd825161292e565b6000601f820183136116f157600080fd5b81516117046116ff826128db565b6128b4565b9150818183526020840193506020810190508385602084028201111561172957600080fd5b60005b83811015611755578161173f88826118fe565b845250602092830192919091019060010161172c565b5050505092915050565b6000601f8201831361177057600080fd5b813561177e6116ff826128db565b915081818352602084019350602081019050838560208402820111156117a357600080fd5b60005b8381101561175557816117b988826118f2565b84525060209283019291909101906001016117a6565b6000601f820183136117e057600080fd5b81516117ee6116ff826128db565b81815260209384019390925082018360005b8381101561175557815186016118168882611a6e565b8452506020928301929190910190600101611800565b6000601f8201831361183d57600080fd5b815161184b6116ff826128db565b81815260209384019390925082018360005b8381101561175557815186016118738882611b69565b845250602092830192919091019060010161185d565b6000601f8201831361189a57600080fd5b81516118a86116ff826128db565b81815260209384019390925082018360005b8381101561175557815186016118d08882611a6e565b84525060209283019291909101906001016118ba565b60006116cd825161293d565b60006116cd823561293a565b60006116cd825161293a565b6000601f8201831361191b57600080fd5b81516119296116ff826128fc565b9150808252602083016020830185838301111561194557600080fd5b611950838284612959565b50505092915050565b6000601f8201831361196a57600080fd5b81356119786116ff826128fc565b9150808252602083016020830185838301111561199457600080fd5b61195083828461294d565b6000608082840312156119b157600080fd5b6119bb60806128b4565b825190915067ffffffffffffffff8111156119d557600080fd5b6119e18482850161190a565b825250602082015167ffffffffffffffff8111156119fe57600080fd5b611a0a8482850161190a565b602083015250604082015167ffffffffffffffff811115611a2a57600080fd5b611a368482850161190a565b604083015250606082015167ffffffffffffffff811115611a5657600080fd5b611a628482850161190a565b60608301525092915050565b600060a08284031215611a8057600080fd5b611a8a60a06128b4565b825190915067ffffffffffffffff811115611aa457600080fd5b611ab08482850161190a565b825250602082015167ffffffffffffffff811115611acd57600080fd5b611ad98482850161190a565b602083015250604082015167ffffffffffffffff811115611af957600080fd5b611b058482850161190a565b604083015250606082015167ffffffffffffffff811115611b2557600080fd5b611b318482850161190a565b606083015250608082015167ffffffffffffffff811115611b5157600080fd5b611b5d8482850161190a565b60808301525092915050565b600060608284031215611b7b57600080fd5b611b8560606128b4565b825190915067ffffffffffffffff811115611b9f57600080fd5b611bab8482850161190a565b825250602082015167ffffffffffffffff811115611bc857600080fd5b611bd48482850161190a565b602083015250604082015167ffffffffffffffff811115611bf457600080fd5b611c008482850161190a565b60408301525092915050565b600060208284031215611c1e57600080fd5b611c2860206128b4565b825190915067ffffffffffffffff811115611c4257600080fd5b611c4e848285016116e0565b82525092915050565b600060e08284031215611c6957600080fd5b611c7360e06128b4565b825190915067ffffffffffffffff811115611c8d57600080fd5b611c998482850161190a565b825250602082015167ffffffffffffffff811115611cb657600080fd5b611cc28482850161190a565b602083015250604082015167ffffffffffffffff811115611ce257600080fd5b611cee8482850161190a565b604083015250606082015167ffffffffffffffff811115611d0e57600080fd5b611d1a8482850161190a565b606083015250608082015167ffffffffffffffff811115611d3a57600080fd5b611d468482850161190a565b60808301525060a082015167ffffffffffffffff811115611d6657600080fd5b611d728482850161190a565b60a08301525060c082015167ffffffffffffffff811115611d9257600080fd5b611d9e8482850161190a565b60c08301525092915050565b600060208284031215611dbc57600080fd5b6000611dc884846116c1565b949350505050565b600060208284031215611de257600080fd5b6000611dc884846116d4565b60008060408385031215611e0157600080fd5b6000611e0d85856116c1565b9250506020611e1e858286016118f2565b9150509250929050565b600060208284031215611e3a57600080fd5b813567ffffffffffffffff811115611e5157600080fd5b611dc88482850161175f565b600060208284031215611e6f57600080fd5b815167ffffffffffffffff811115611e8657600080fd5b611dc8848285016117cf565b600060208284031215611ea457600080fd5b815167ffffffffffffffff811115611ebb57600080fd5b611dc88482850161182c565b600060208284031215611ed957600080fd5b815167ffffffffffffffff811115611ef057600080fd5b611dc884828501611889565b600060208284031215611f0e57600080fd5b6000611dc884846118e6565b600060208284031215611f2c57600080fd5b813567ffffffffffffffff811115611f4357600080fd5b611dc884828501611959565b600080600060608486031215611f6457600080fd5b833567ffffffffffffffff811115611f7b57600080fd5b611f8786828701611959565b935050602084013567ffffffffffffffff811115611fa457600080fd5b611fb086828701611959565b925050604084013567ffffffffffffffff811115611fcd57600080fd5b611fd986828701611959565b9150509250925092565b60008060008060808587031215611ff957600080fd5b843567ffffffffffffffff81111561201057600080fd5b61201c87828801611959565b945050602085013567ffffffffffffffff81111561203957600080fd5b61204587828801611959565b935050604085013567ffffffffffffffff81111561206257600080fd5b61206e87828801611959565b925050606085013567ffffffffffffffff81111561208b57600080fd5b61209787828801611959565b91505092959194509250565b600080600080600060a086880312156120bb57600080fd5b853567ffffffffffffffff8111156120d257600080fd5b6120de88828901611959565b955050602086013567ffffffffffffffff8111156120fb57600080fd5b61210788828901611959565b945050604086013567ffffffffffffffff81111561212457600080fd5b61213088828901611959565b935050606086013567ffffffffffffffff81111561214d57600080fd5b61215988828901611959565b925050608086013567ffffffffffffffff81111561217657600080fd5b61218288828901611959565b9150509295509295909350565b600080600080600080600060e0888a0312156121aa57600080fd5b873567ffffffffffffffff8111156121c157600080fd5b6121cd8a828b01611959565b975050602088013567ffffffffffffffff8111156121ea57600080fd5b6121f68a828b01611959565b965050604088013567ffffffffffffffff81111561221357600080fd5b61221f8a828b01611959565b955050606088013567ffffffffffffffff81111561223c57600080fd5b6122488a828b01611959565b945050608088013567ffffffffffffffff81111561226557600080fd5b6122718a828b01611959565b93505060a088013567ffffffffffffffff81111561228e57600080fd5b61229a8a828b01611959565b92505060c088013567ffffffffffffffff8111156122b757600080fd5b6122c38a828b01611959565b91505092959891949750929550565b6000602082840312156122e457600080fd5b815167ffffffffffffffff8111156122fb57600080fd5b611dc88482850161199f565b60006020828403121561231957600080fd5b815167ffffffffffffffff81111561233057600080fd5b611dc884828501611c0c565b60006020828403121561234e57600080fd5b815167ffffffffffffffff81111561236557600080fd5b611dc884828501611c57565b61237a8161292e565b82525050565b600061238b8261292a565b80845260208401935061239d83612924565b60005b828110156123cd576123b3868351612424565b6123bc82612924565b6020969096019591506001016123a0565b5093949350505050565b60006123e28261292a565b8084526020840193506123f483612924565b60005b828110156123cd5761240a868351612424565b61241382612924565b6020969096019591506001016123f7565b61237a8161293a565b61237a81612942565b60006124418261292a565b808452612455816020860160208601612959565b61245e81612989565b9093016020019392505050565b80516080808452600091908401906124838282612436565b9150506020830151848203602086015261249d8282612436565b915050604083015184820360408601526124b78282612436565b915050606083015184820360608601526124d18282612436565b95945050505050565b805160a0808452600091908401906124f28282612436565b9150506020830151848203602086015261250c8282612436565b915050604083015184820360408601526125268282612436565b915050606083015184820360608601526125408282612436565b915050608083015184820360808601526124d18282612436565b80516060808452600091908401906125728282612436565b9150506020830151848203602086015261258c8282612436565b915050604083015184820360408601526124d18282612436565b80516020808452600091908401906124d182826123d7565b805160e0808452600091908401906125d68282612436565b915050602083015184820360208601526125f08282612436565b9150506040830151848203604086015261260a8282612436565b915050606083015184820360608601526126248282612436565b9150506080830151848203608086015261263e8282612436565b91505060a083015184820360a08601526126588282612436565b91505060c083015184820360c08601526124d18282612436565b60208101610ed48284612371565b602080825281016116cd8184612380565b60208101610ed4828461242d565b602080825281016116cd8184612436565b606080825281016126c18186612436565b905081810360208301526126d58185612436565b905081810360408301526124d18184612436565b608080825281016126fa8187612436565b9050818103602083015261270e8186612436565b905081810360408301526127228185612436565b905081810360608301526127368184612436565b9695505050505050565b60a080825281016127518188612436565b905081810360208301526127658187612436565b905081810360408301526127798186612436565b9050818103606083015261278d8185612436565b905081810360808301526127a18184612436565b979650505050505050565b60e080825281016127bd818a612436565b905081810360208301526127d18189612436565b905081810360408301526127e58188612436565b905081810360608301526127f98187612436565b9050818103608083015261280d8186612436565b905081810360a08301526128218185612436565b905081810360c08301526128358184612436565b9998505050505050505050565b60408082528101612853818561246b565b90506116cd6020830184612371565b6040808252810161285381856124da565b60408082528101612853818561255a565b6040808252810161285381856125a6565b6040808252810161285381856125be565b60208101610ed48284612424565b60405181810167ffffffffffffffff811182821017156128d357600080fd5b604052919050565b600067ffffffffffffffff8211156128f257600080fd5b5060209081020190565b600067ffffffffffffffff82111561291357600080fd5b506020601f91909101601f19160190565b60200190565b5190565b600160a060020a031690565b90565b151590565b6000610ed48261292e565b82818337506000910152565b60005b8381101561297457818101518382015260200161295c565b83811115612983576000848401525b50505050565b601f01601f1916905600a265627a7a72305820370f0ee1aabbcea124f4e5c0588ccacb0325d68c1da456aded4ce78ab8ff853e6c6578706572696d656e74616cf50037",
  "source": "/**\r\n * This contract acts as a controller for front-end\r\n * requests. The DB file is separate incase, solidity adds\r\n * functionality to return structs. In that case, only\r\n * this contract needs to be redeployed and data migration\r\n * will not be needed as the data is stored in DB.sol\r\n * contract.\r\n */\r\npragma solidity ^0.4.24;\r\npragma experimental ABIEncoderV2; // experimental\r\n\r\n// import user.sol contract\r\nimport \"./User.sol\";\r\nimport \"./DB.sol\";\r\n\r\n// @title Blockvitae for CV\r\ncontract Blockvitae {\r\n\r\n    using User for User.UserMain;\r\n\r\n    // DB\r\n    DB public dbContract;\r\n\r\n    // owner of the contract\r\n    address public owner;\r\n\r\n    // checks if the user has an account or not\r\n    modifier userExists() {\r\n        require (dbContract.isExists(msg.sender));\r\n        _;\r\n    }\r\n\r\n    // checks if the address is not zero\r\n    modifier addressNotZero() {\r\n        require (msg.sender != address(0));\r\n        _;\r\n    }\r\n\r\n    // check for the owner\r\n    modifier isOwner() {\r\n        require(owner == msg.sender);\r\n        _;\r\n    }\r\n\r\n    // sets the owner of the contract\r\n    constructor(DB _dbContract) public {\r\n        dbContract = _dbContract;\r\n        owner = msg.sender;\r\n\r\n        // set this contract as the owner of DB contract\r\n        // to avoid any external calls to DB contract\r\n        // All calls to DB contract should pass through this\r\n        // contract\r\n        dbContract.setOwner(address(this));\r\n    } \r\n\r\n    // @description\r\n    // Change Owner function incase Blockviate is redeployed\r\n    // old Blockviate should be able to update the owner to new \r\n    // Blockviate.\r\n    //\r\n    // @param address _owner\r\n    // address of the new owner \r\n    function setOwner(address _owner) public isOwner {\r\n        owner = _owner;\r\n    }\r\n\r\n    // @description\r\n    // creates UserDetail struct\r\n    //\r\n    // @param string _fullName \r\n    // full name of the user\r\n    //\r\n    // @param string _userName \r\n    // username of the user\r\n    //\r\n    // @param string _imgUrl \r\n    // profile image url of the user\r\n    //\r\n    // @param string _email \r\n    // email of the user\r\n    function createUserDetail(\r\n        string _fullName,\r\n        string _userName,\r\n        string _imgUrl,\r\n        string _email\r\n    )\r\n    public\r\n    addressNotZero\r\n    {\r\n        // create userDetail struct\r\n        User.UserDetail memory personal = User.setUserDetail(\r\n            _fullName,\r\n            _userName,\r\n            _imgUrl,\r\n            _email\r\n        );\r\n\r\n        // insert into the database\r\n        dbContract.insertUserDetail(personal, msg.sender);\r\n    }\r\n\r\n    // @description\r\n    // create UserSocial struct and insers in DB\r\n    //\r\n    // @param string _twitterUrl\r\n    // twitter url of the user\r\n    //\r\n    // @param string _fbUrl\r\n    // facebook url of the user\r\n    //\r\n    // @param string _githubUrl\r\n    // github url of the user\r\n    //\r\n    // @param string _linkedInUrl\r\n    // linked in url of the user\r\n    //\r\n    // @param string _behanceUrl\r\n    // behance url of the user\r\n    //\r\n    // @param string _mediumUrl\r\n    // medium url of the user\r\n    function createUserSocial(\r\n        string _twitterUrl,\r\n        string _fbUrl,\r\n        string _githubUrl,\r\n        string _dribbbleUrl,\r\n        string _linkedInUrl,\r\n        string _behanceUrl,\r\n        string _mediumUrl\r\n    )\r\n    public\r\n    addressNotZero\r\n    userExists\r\n    {\r\n        // create userSocial struct\r\n        User.UserSocial memory social = User.setUserSocial(\r\n            _twitterUrl,\r\n            _fbUrl,\r\n            _githubUrl,\r\n            _dribbbleUrl,\r\n            _linkedInUrl,\r\n            _behanceUrl,\r\n            _mediumUrl\r\n        );\r\n\r\n        // insert into the database\r\n        dbContract.insertUserSocial(social, msg.sender);\r\n    }\r\n\r\n    // @description\r\n    // creates UserProject struct and insert in DB\r\n    //\r\n    // @param string _name\r\n    // name of the project\r\n    //\r\n    // @param string _description \r\n    // description of the project\r\n    //\r\n    // @param string _url\r\n    // url of the project\r\n    function createUserProject(\r\n        string _name,\r\n        string _description,\r\n        string _url\r\n    )\r\n    public\r\n    addressNotZero\r\n    userExists\r\n    {\r\n        // create UserProject struct\r\n        User.UserProject memory project = User.setUserProject(\r\n            _name,\r\n            _description,\r\n            _url\r\n        );\r\n\r\n        // insert into the database\r\n        dbContract.insertUserProject(project, msg.sender);\r\n    }\r\n\r\n    // @description\r\n    // creates UserWorkExp struct and inserts in DB\r\n    //\r\n    // @param string _company\r\n    // name of the company or organization\r\n    //\r\n    // @param string _position\r\n    // position held in the given company\r\n    //\r\n    // @param string _dateStart\r\n    // start date of the job\r\n    //\r\n    // @param string _dateEnd\r\n    // end date of the job\r\n    //\r\n    // @param string _description\r\n    // description of the work experience\r\n    function createUserWorkExp(\r\n        string _company,\r\n        string _position,\r\n        string _dateStart,\r\n        string _dateEnd,\r\n        string _description\r\n    )\r\n    public\r\n    addressNotZero\r\n    userExists\r\n    {\r\n        // create UserWorkExp struct\r\n        User.UserWorkExp memory work = User.setUserWorkExp(\r\n            _company,\r\n            _position,\r\n            _dateStart,\r\n            _dateEnd,\r\n            _description\r\n        );\r\n\r\n        // insert in to database\r\n        dbContract.insertUserWorkExp(work, msg.sender);\r\n    }\r\n\r\n    // @description\r\n    // creates UserSkill struct and inserts in DB\r\n    //\r\n    // @param bytes32[] _skills\r\n    // array of skills\r\n    function createUserSkill(bytes32[] _skills) public addressNotZero userExists {\r\n        // create user skill struct\r\n        User.UserSkill memory skills = User.setUserSkill(_skills);\r\n\r\n        // insert into DB\r\n        dbContract.insertUserSkill(skills, msg.sender);\r\n    }\r\n\r\n    // @description\r\n    // creates UserEducation struct and inserts in DB\r\n    //\r\n     // @param string _organization\r\n    // name of the organization\r\n    //\r\n    // @param string _level\r\n    // education level held in the given organization\r\n    //\r\n    // @param string _dateStart\r\n    // start date of the education\r\n    //\r\n    // @param string _dateEnd\r\n    // end date of the education\r\n    //\r\n    // @param string _description\r\n    // description of the education\r\n    //\r\n    // @return UserEducation\r\n    // UserEducation struct for the given values\r\n    function createUserEducation(\r\n        string _organization,\r\n        string _level,\r\n        string _dateStart,\r\n        string _dateEnd,\r\n        string _description \r\n    )\r\n    public\r\n    addressNotZero\r\n    userExists\r\n    {\r\n        // create UserEducation struct\r\n        User.UserEducation memory education = User.setUserEducation(\r\n            _organization,\r\n            _level,\r\n            _dateStart,\r\n            _dateEnd,\r\n            _description\r\n        );\r\n\r\n        // insert in the database\r\n        dbContract.insertUserEducation(education, msg.sender);\r\n    }\r\n\r\n    // @description\r\n    // gets count of total education added\r\n    //\r\n    // @param address _user\r\n    // address of the user who's data is to be searched\r\n    //\r\n    // @return uint\r\n    // count of the total education for the given user\r\n    function getEducationCount(address _user)\r\n    public\r\n    view\r\n    returns(uint) {\r\n        return dbContract.findUserEducation(_user).length;\r\n    }\r\n\r\n    // @description\r\n    // gets the user education with the given index for the given user\r\n    //\r\n    // @param address _user\r\n    // address of the user who's education is to be searched\r\n    //\r\n    // @param uint index\r\n    // index of the education to be searched\r\n    //\r\n    // @return (string, string, string, string, string)\r\n    // organization, level, dateStart, dateEnd\r\n    // and description of the education with given index\r\n    function getUserEducation(address _user, uint index)\r\n    public\r\n    view\r\n    returns(string, string, string, string, string) {\r\n        User.UserEducation[] memory education = dbContract.findUserEducation(_user);\r\n\r\n        string memory organization = education[index].organization;\r\n        string memory level = education[index].level;\r\n        string memory dateStart = education[index].dateStart;\r\n        string memory dateEnd = education[index].dateEnd;\r\n        string memory description = education[index].description;\r\n    \r\n        return (organization, level, dateStart, dateEnd, description);\r\n    }\r\n\r\n\r\n    // @description\r\n    // gets the array of skills of the user\r\n    //\r\n    // @param address _user\r\n    // address of the user who's data is to be searched\r\n    //\r\n    // @return bytes32[]\r\n    // bytes32 array of skills of the user with given address\r\n    function getUserSkills(address _user) public view returns(bytes32[]) {\r\n        return dbContract.findUserSkill(_user).skills;\r\n    }\r\n\r\n    // @description\r\n    // Solidity doesn't allow to return array of strings\r\n    // Therefore, get count of projects first and\r\n    // then get each project one at a time from front end\r\n    //\r\n    // @param address _user\r\n    // address of the user who's data is to be searched\r\n    //\r\n    // @return uint\r\n    // count of the total projects for the given user\r\n    function getProjectCount(address _user) \r\n    public \r\n    view \r\n    returns(uint) {\r\n        return dbContract.findUserProject(_user).length;\r\n    }\r\n\r\n    // @description\r\n    // gets the user project with the given index for the given user\r\n    //\r\n    // @param address _user\r\n    // address of the user who's projects are to be searched\r\n    //\r\n    // @param uint index\r\n    // index of the project to be searched\r\n    //\r\n    // @return (string, string, string)\r\n    // name, description and url of the project with given index\r\n    function getUserProject(address _user, uint index)\r\n    public\r\n    view\r\n    returns(string, string, string) {\r\n        User.UserProject[] memory projects = dbContract.findUserProject(_user);\r\n\r\n        string memory name = projects[index].name;\r\n        string memory description = projects[index].description;\r\n        string memory url = projects[index].url;\r\n    \r\n        return (name, description, url);\r\n    }\r\n\r\n    // @description\r\n    // gets count of total work experiences added\r\n    //\r\n    // @param address _user\r\n    // address of the user who's data is to be searched\r\n    //\r\n    // @return uint\r\n    // count of the total work exp for the given user\r\n    function getWorkExpCount(address _user) \r\n    public \r\n    view \r\n    returns(uint) {\r\n        return dbContract.findUserWorkExp(_user).length;\r\n    }\r\n\r\n    // @description\r\n    // gets the user work exp with the given index for the given user\r\n    //\r\n    // @param address _user\r\n    // address of the user who's work exp are to be searched\r\n    //\r\n    // @param uint index\r\n    // index of the work exp to be searched\r\n    //\r\n    // @return (string, string, string, string, string)\r\n    // company, position, dateStart, dateEnd\r\n    // and description of the work exp with given index\r\n    function getUserWorkExp(address _user, uint index)\r\n    public\r\n    view\r\n    returns(string, string, string, string, string) {\r\n        User.UserWorkExp[] memory work = dbContract.findUserWorkExp(_user);\r\n\r\n        string memory company = work[index].company;\r\n        string memory position = work[index].position;\r\n        string memory dateStart = work[index].dateStart;\r\n        string memory dateEnd = work[index].dateEnd;\r\n        string memory description = work[index].description;\r\n    \r\n        return (company, position, dateStart, dateEnd, description);\r\n    }\r\n\r\n    // @description \r\n    // returns UserDetail struct values\r\n    // for the given address if user exists\r\n    //\r\n    // @param address _user \r\n    // address of the user for which UserDetail is \r\n    // to be searched\r\n    //\r\n    // @return (string, string, string, string)\r\n    // array of strings containing values of \r\n    // UserDetail struct in the respective order\r\n    function getUserDetail(address _user)  \r\n    public \r\n    view\r\n    returns(string, string, string, string) \r\n    {\r\n        // find the user details\r\n        User.UserDetail memory personal = dbContract.findUserDetail(_user);\r\n\r\n        // return\r\n        return (personal.fullName, personal.userName, personal.imgUrl, personal.email);\r\n    }\r\n\r\n    // @description \r\n    // returns UserSocial struct values\r\n    // for the given address if user exists\r\n    //\r\n    // @param address _user \r\n    // address of the user for which UserSocial is \r\n    // to be searched\r\n    //\r\n    // @return (string, string, string, string)\r\n    // array of strings containing values of \r\n    // UserSocial struct in the respective order\r\n    function getUserSocial(address _user)  \r\n    public \r\n    view\r\n    returns(string, string, string, string, string, string, string) \r\n    {\r\n        // find the user details\r\n        User.UserSocial memory social = dbContract.findUserSocial(_user);\r\n\r\n        // return\r\n        return (social.twitterUrl, social.fbUrl, social.githubUrl, social.dribbbleUrl, \r\n            social.linkedInUrl, social.behanceUrl, social.mediumUrl);\r\n    }\r\n\r\n    // @description\r\n    // finds the address the given userName\r\n    //\r\n    // @param string _userName\r\n    // userName of the user who's address is to be searched\r\n    //\r\n    // @return address\r\n    // address of the user with given userName\r\n    function getAddrForUserName(string _userName)\r\n    public\r\n    view\r\n    returns(address) \r\n    {\r\n        return dbContract.findAddrForUserName(_userName);\r\n    }\r\n}",
  "sourcePath": "E:\\GitHub\\Blockchain\\Blockvitae\\blockvitae-ethereum\\contracts\\Blockvitae.sol",
  "compiler": {
    "name": "solc",
    "version": "0.4.24+commit.e67f0147.Emscripten.clang"
  },
  "schemaVersion": "2.0.0",
  "updatedAt": "2018-06-23T20:59:10.158Z"
}